{
  "_format": "hh-sol-artifact-1",
  "contractName": "LoanMarketplace",
  "sourceName": "contracts/LoanMarketplace.sol",
  "abi": [
    {
      "anonymous": false,
      "inputs": [
        {
          "indexed": true,
          "internalType": "uint256",
          "name": "loanId",
          "type": "uint256"
        },
        {
          "indexed": true,
          "internalType": "address",
          "name": "lender",
          "type": "address"
        },
        {
          "indexed": true,
          "internalType": "address",
          "name": "borrower",
          "type": "address"
        },
        {
          "indexed": false,
          "internalType": "uint256",
          "name": "amount",
          "type": "uint256"
        }
      ],
      "name": "LoanFunded",
      "type": "event"
    },
    {
      "anonymous": false,
      "inputs": [
        {
          "indexed": true,
          "internalType": "uint256",
          "name": "loanId",
          "type": "uint256"
        },
        {
          "indexed": true,
          "internalType": "address",
          "name": "borrower",
          "type": "address"
        },
        {
          "indexed": false,
          "internalType": "uint256",
          "name": "amount",
          "type": "uint256"
        }
      ],
      "name": "LoanRepaid",
      "type": "event"
    },
    {
      "anonymous": false,
      "inputs": [
        {
          "indexed": true,
          "internalType": "uint256",
          "name": "loanId",
          "type": "uint256"
        },
        {
          "indexed": true,
          "internalType": "address",
          "name": "borrower",
          "type": "address"
        },
        {
          "indexed": false,
          "internalType": "uint256",
          "name": "amount",
          "type": "uint256"
        },
        {
          "indexed": false,
          "internalType": "uint256",
          "name": "interestRate",
          "type": "uint256"
        },
        {
          "indexed": false,
          "internalType": "uint256",
          "name": "duration",
          "type": "uint256"
        }
      ],
      "name": "LoanRequestCreated",
      "type": "event"
    },
    {
      "anonymous": false,
      "inputs": [
        {
          "indexed": true,
          "internalType": "uint256",
          "name": "loanId",
          "type": "uint256"
        },
        {
          "indexed": true,
          "internalType": "address",
          "name": "borrower",
          "type": "address"
        }
      ],
      "name": "LoanRequestWithdrawn",
      "type": "event"
    },
    {
      "anonymous": false,
      "inputs": [
        {
          "indexed": true,
          "internalType": "address",
          "name": "previousOwner",
          "type": "address"
        },
        {
          "indexed": true,
          "internalType": "address",
          "name": "newOwner",
          "type": "address"
        }
      ],
      "name": "OwnershipTransferred",
      "type": "event"
    },
    {
      "anonymous": false,
      "inputs": [
        {
          "indexed": false,
          "internalType": "address",
          "name": "account",
          "type": "address"
        }
      ],
      "name": "Paused",
      "type": "event"
    },
    {
      "anonymous": false,
      "inputs": [
        {
          "indexed": false,
          "internalType": "address",
          "name": "account",
          "type": "address"
        }
      ],
      "name": "Unpaused",
      "type": "event"
    },
    {
      "anonymous": false,
      "inputs": [
        {
          "indexed": true,
          "internalType": "address",
          "name": "user",
          "type": "address"
        }
      ],
      "name": "WalletConnected",
      "type": "event"
    },
    {
      "anonymous": false,
      "inputs": [
        {
          "indexed": true,
          "internalType": "address",
          "name": "user",
          "type": "address"
        }
      ],
      "name": "WalletDisconnected",
      "type": "event"
    },
    {
      "inputs": [],
      "name": "BASE_INTEREST_RATE",
      "outputs": [
        {
          "internalType": "uint256",
          "name": "",
          "type": "uint256"
        }
      ],
      "stateMutability": "view",
      "type": "function"
    },
    {
      "inputs": [],
      "name": "MAX_DURATION",
      "outputs": [
        {
          "internalType": "uint256",
          "name": "",
          "type": "uint256"
        }
      ],
      "stateMutability": "view",
      "type": "function"
    },
    {
      "inputs": [],
      "name": "MAX_LOAN_AMOUNT",
      "outputs": [
        {
          "internalType": "uint256",
          "name": "",
          "type": "uint256"
        }
      ],
      "stateMutability": "view",
      "type": "function"
    },
    {
      "inputs": [],
      "name": "MIN_DURATION",
      "outputs": [
        {
          "internalType": "uint256",
          "name": "",
          "type": "uint256"
        }
      ],
      "stateMutability": "view",
      "type": "function"
    },
    {
      "inputs": [],
      "name": "MIN_LOAN_AMOUNT",
      "outputs": [
        {
          "internalType": "uint256",
          "name": "",
          "type": "uint256"
        }
      ],
      "stateMutability": "view",
      "type": "function"
    },
    {
      "inputs": [
        {
          "internalType": "uint256",
          "name": "amount",
          "type": "uint256"
        },
        {
          "internalType": "uint256",
          "name": "duration",
          "type": "uint256"
        }
      ],
      "name": "calculateInterestRate",
      "outputs": [
        {
          "internalType": "uint256",
          "name": "",
          "type": "uint256"
        }
      ],
      "stateMutability": "pure",
      "type": "function"
    },
    {
      "inputs": [],
      "name": "connectWallet",
      "outputs": [],
      "stateMutability": "nonpayable",
      "type": "function"
    },
    {
      "inputs": [
        {
          "internalType": "address",
          "name": "",
          "type": "address"
        }
      ],
      "name": "connectedWallets",
      "outputs": [
        {
          "internalType": "bool",
          "name": "",
          "type": "bool"
        }
      ],
      "stateMutability": "view",
      "type": "function"
    },
    {
      "inputs": [
        {
          "internalType": "uint256",
          "name": "amount",
          "type": "uint256"
        },
        {
          "internalType": "uint256",
          "name": "duration",
          "type": "uint256"
        }
      ],
      "name": "createLoanRequest",
      "outputs": [],
      "stateMutability": "nonpayable",
      "type": "function"
    },
    {
      "inputs": [],
      "name": "disconnectWallet",
      "outputs": [],
      "stateMutability": "nonpayable",
      "type": "function"
    },
    {
      "inputs": [],
      "name": "emergencyWithdraw",
      "outputs": [],
      "stateMutability": "nonpayable",
      "type": "function"
    },
    {
      "inputs": [
        {
          "internalType": "uint256",
          "name": "loanId",
          "type": "uint256"
        }
      ],
      "name": "fundLoan",
      "outputs": [],
      "stateMutability": "payable",
      "type": "function"
    },
    {
      "inputs": [],
      "name": "getActiveLoanRequests",
      "outputs": [
        {
          "internalType": "uint256[]",
          "name": "",
          "type": "uint256[]"
        }
      ],
      "stateMutability": "view",
      "type": "function"
    },
    {
      "inputs": [
        {
          "internalType": "uint256",
          "name": "loanId",
          "type": "uint256"
        }
      ],
      "name": "getLoanRequest",
      "outputs": [
        {
          "components": [
            {
              "internalType": "uint256",
              "name": "id",
              "type": "uint256"
            },
            {
              "internalType": "address",
              "name": "borrower",
              "type": "address"
            },
            {
              "internalType": "uint256",
              "name": "amount",
              "type": "uint256"
            },
            {
              "internalType": "uint256",
              "name": "interestRate",
              "type": "uint256"
            },
            {
              "internalType": "uint256",
              "name": "duration",
              "type": "uint256"
            },
            {
              "internalType": "uint256",
              "name": "timestamp",
              "type": "uint256"
            },
            {
              "internalType": "uint256",
              "name": "deadline",
              "type": "uint256"
            },
            {
              "internalType": "bool",
              "name": "isActive",
              "type": "bool"
            },
            {
              "internalType": "bool",
              "name": "isFunded",
              "type": "bool"
            },
            {
              "internalType": "address",
              "name": "lender",
              "type": "address"
            },
            {
              "internalType": "uint256",
              "name": "fundedAt",
              "type": "uint256"
            }
          ],
          "internalType": "struct LoanMarketplace.LoanRequest",
          "name": "",
          "type": "tuple"
        }
      ],
      "stateMutability": "view",
      "type": "function"
    },
    {
      "inputs": [
        {
          "internalType": "address",
          "name": "user",
          "type": "address"
        }
      ],
      "name": "getUserFundedLoans",
      "outputs": [
        {
          "internalType": "uint256[]",
          "name": "",
          "type": "uint256[]"
        }
      ],
      "stateMutability": "view",
      "type": "function"
    },
    {
      "inputs": [
        {
          "internalType": "address",
          "name": "user",
          "type": "address"
        }
      ],
      "name": "getUserLoanRequests",
      "outputs": [
        {
          "internalType": "uint256[]",
          "name": "",
          "type": "uint256[]"
        }
      ],
      "stateMutability": "view",
      "type": "function"
    },
    {
      "inputs": [
        {
          "internalType": "address",
          "name": "user",
          "type": "address"
        }
      ],
      "name": "getUserStats",
      "outputs": [
        {
          "internalType": "uint256",
          "name": "totalBorrowed",
          "type": "uint256"
        },
        {
          "internalType": "uint256",
          "name": "totalLent",
          "type": "uint256"
        }
      ],
      "stateMutability": "view",
      "type": "function"
    },
    {
      "inputs": [
        {
          "internalType": "address",
          "name": "user",
          "type": "address"
        }
      ],
      "name": "isWalletConnected",
      "outputs": [
        {
          "internalType": "bool",
          "name": "",
          "type": "bool"
        }
      ],
      "stateMutability": "view",
      "type": "function"
    },
    {
      "inputs": [
        {
          "internalType": "uint256",
          "name": "",
          "type": "uint256"
        }
      ],
      "name": "loanRequests",
      "outputs": [
        {
          "internalType": "uint256",
          "name": "id",
          "type": "uint256"
        },
        {
          "internalType": "address",
          "name": "borrower",
          "type": "address"
        },
        {
          "internalType": "uint256",
          "name": "amount",
          "type": "uint256"
        },
        {
          "internalType": "uint256",
          "name": "interestRate",
          "type": "uint256"
        },
        {
          "internalType": "uint256",
          "name": "duration",
          "type": "uint256"
        },
        {
          "internalType": "uint256",
          "name": "timestamp",
          "type": "uint256"
        },
        {
          "internalType": "uint256",
          "name": "deadline",
          "type": "uint256"
        },
        {
          "internalType": "bool",
          "name": "isActive",
          "type": "bool"
        },
        {
          "internalType": "bool",
          "name": "isFunded",
          "type": "bool"
        },
        {
          "internalType": "address",
          "name": "lender",
          "type": "address"
        },
        {
          "internalType": "uint256",
          "name": "fundedAt",
          "type": "uint256"
        }
      ],
      "stateMutability": "view",
      "type": "function"
    },
    {
      "inputs": [],
      "name": "nextLoanId",
      "outputs": [
        {
          "internalType": "uint256",
          "name": "",
          "type": "uint256"
        }
      ],
      "stateMutability": "view",
      "type": "function"
    },
    {
      "inputs": [],
      "name": "owner",
      "outputs": [
        {
          "internalType": "address",
          "name": "",
          "type": "address"
        }
      ],
      "stateMutability": "view",
      "type": "function"
    },
    {
      "inputs": [],
      "name": "pause",
      "outputs": [],
      "stateMutability": "nonpayable",
      "type": "function"
    },
    {
      "inputs": [],
      "name": "paused",
      "outputs": [
        {
          "internalType": "bool",
          "name": "",
          "type": "bool"
        }
      ],
      "stateMutability": "view",
      "type": "function"
    },
    {
      "inputs": [],
      "name": "renounceOwnership",
      "outputs": [],
      "stateMutability": "nonpayable",
      "type": "function"
    },
    {
      "inputs": [
        {
          "internalType": "uint256",
          "name": "loanId",
          "type": "uint256"
        }
      ],
      "name": "repayLoan",
      "outputs": [],
      "stateMutability": "payable",
      "type": "function"
    },
    {
      "inputs": [
        {
          "internalType": "address",
          "name": "newOwner",
          "type": "address"
        }
      ],
      "name": "transferOwnership",
      "outputs": [],
      "stateMutability": "nonpayable",
      "type": "function"
    },
    {
      "inputs": [],
      "name": "unpause",
      "outputs": [],
      "stateMutability": "nonpayable",
      "type": "function"
    },
    {
      "inputs": [
        {
          "internalType": "address",
          "name": "",
          "type": "address"
        }
      ],
      "name": "users",
      "outputs": [
        {
          "internalType": "bool",
          "name": "isRegistered",
          "type": "bool"
        },
        {
          "internalType": "uint256",
          "name": "totalBorrowed",
          "type": "uint256"
        },
        {
          "internalType": "uint256",
          "name": "totalLent",
          "type": "uint256"
        }
      ],
      "stateMutability": "view",
      "type": "function"
    },
    {
      "inputs": [
        {
          "internalType": "uint256",
          "name": "loanId",
          "type": "uint256"
        }
      ],
      "name": "withdrawLoanRequest",
      "outputs": [],
      "stateMutability": "nonpayable",
      "type": "function"
    }
  ],
  "bytecode": "0x6080604052600160025534801561001557600080fd5b5060016000819055805460ff1916905561002e33610033565b61008d565b600180546001600160a01b03838116610100818102610100600160a81b031985161790945560405193909204169182907f8be0079c531659141344cd1fd0a4f28419497f9722a3daafe3b4186f6b6457e090600090a35050565b611f008061009c6000396000f3fe6080604052600436106101c25760003560e01c806388ae545c116100f7578063b1724b4611610095578063d1b332f411610064578063d1b332f414610549578063db2e21bc14610632578063ddbaa46b14610647578063f2fde38b1461066757600080fd5b8063b1724b46146104dd578063b6a6d177146104f5578063c125958e1461050c578063ceba17941461052c57600080fd5b80639772d7ee116100d15780639772d7ee14610437578063a57967851461044c578063a87430ba1461046c578063ab7b1c89146104ca57600080fd5b806388ae545c146103b85780638da5cb5b146103e557806396fa212f1461041b57600080fd5b806363e680ae1161016457806378961f941161013e57806378961f94146103415780638456cb591461037a578063846b909a1461038f57806387c51459146103a257600080fd5b806363e680ae146102f7578063714e83951461030c578063715018a61461032c57600080fd5b80632d66f063116101a05780632d66f0631461025d5780633f4ba83a146102745780634e43603a146102895780635c975abb146102df57600080fd5b80630d8cb2ff146101c7578063184009b0146101f05780631b3b867114610230575b600080fd5b3480156101d357600080fd5b506101dd61020881565b6040519081526020015b60405180910390f35b3480156101fc57600080fd5b5061022061020b366004611c20565b60056020526000908152604090205460ff1681565b60405190151581526020016101e7565b34801561023c57600080fd5b5061025061024b366004611c49565b610687565b6040516101e79190611c62565b34801561026957600080fd5b5061027261079e565b005b34801561028057600080fd5b50610272610877565b34801561029557600080fd5b506102ca6102a4366004611c20565b6001600160a01b0316600090815260046020819052604090912060038101549101549091565b604080519283526020830191909152016101e7565b3480156102eb57600080fd5b5060015460ff16610220565b34801561030357600080fd5b50610272610889565b34801561031857600080fd5b50610272610327366004611c49565b6108f7565b34801561033857600080fd5b50610272610a8d565b34801561034d57600080fd5b5061022061035c366004611c20565b6001600160a01b031660009081526005602052604090205460ff1690565b34801561038657600080fd5b50610272610a9f565b61027261039d366004611c49565b610aaf565b3480156103ae57600080fd5b506101dd60025481565b3480156103c457600080fd5b506103d86103d3366004611c20565b610eaa565b6040516101e79190611d00565b3480156103f157600080fd5b5060015461010090046001600160a01b03166040516001600160a01b0390911681526020016101e7565b34801561042757600080fd5b506101dd670de0b6b3a764000081565b34801561044357600080fd5b506103d8610f19565b34801561045857600080fd5b506101dd610467366004611d44565b6110a9565b34801561047857600080fd5b506104ad610487366004611c20565b600460208190526000918252604090912080546003820154919092015460ff9092169183565b6040805193151584526020840192909252908201526060016101e7565b6102726104d8366004611c49565b611287565b3480156104e957600080fd5b506101dd6301e1338081565b34801561050157600080fd5b506101dd62093a8081565b34801561051857600080fd5b506103d8610527366004611c20565b6114db565b34801561053857600080fd5b506101dd683635c9adc5dea0000081565b34801561055557600080fd5b506105d1610564366004611c49565b600360208190526000918252604090912080546001820154600283015493830154600484015460058501546006860154600787015460089097015495976001600160a01b03958616979096949593949293919260ff8083169361010084049091169262010000900416908b565b604080519b8c526001600160a01b039a8b1660208d01528b019890985260608a0196909652608089019490945260a088019290925260c0870152151560e08601521515610100850152909116610120830152610140820152610160016101e7565b34801561063e57600080fd5b50610272611548565b34801561065357600080fd5b50610272610662366004611d44565b6115fb565b34801561067357600080fd5b50610272610682366004611c20565b61197b565b6106fa6040518061016001604052806000815260200160006001600160a01b03168152602001600081526020016000815260200160008152602001600081526020016000815260200160001515815260200160001515815260200160006001600160a01b03168152602001600081525090565b506000908152600360208181526040928390208351610160810185528154815260018201546001600160a01b039081169382019390935260028201549481019490945291820154606084015260048201546080840152600582015460a0840152600682015460c0840152600782015460ff808216151560e0860152610100808304909116151590850152620100009004166101208301526008015461014082015290565b3360009081526005602052604090205460ff16156108035760405162461bcd60e51b815260206004820152601860248201527f57616c6c657420616c726561647920636f6e6e6563746564000000000000000060448201526064015b60405180910390fd5b336000908152600560209081526040808320805460ff19166001179055600490915290205460ff1661084a57336000908152600460205260409020805460ff191660011790555b60405133907f1c072e5ba1f77c8500be2f4d3f2b949ba75c7b388393230124ca29b18b5b554f90600090a2565b61087f6119f1565b610887611a51565b565b3360009081526005602052604090205460ff166108b85760405162461bcd60e51b81526004016107fa90611d66565b33600081815260056020526040808220805460ff19169055517ff39e69be143be787b159dec6a9654f66a1ba77f043b7249d8865aa10016275bc9190a2565b60008181526003602052604090206001015481906001600160a01b031633146109325760405162461bcd60e51b81526004016107fa90611d94565b6000828152600360205260408120548391036109605760405162461bcd60e51b81526004016107fa90611dd9565b600083815260036020526040902060070154839060ff166109c35760405162461bcd60e51b815260206004820152601a60248201527f4c6f616e2072657175657374206973206e6f742061637469766500000000000060448201526064016107fa565b6000848152600360205260409020600701548490610100900460ff1615610a255760405162461bcd60e51b8152602060048201526016602482015275131bd85b881a5cc8185b1c9958591e48199d5b99195960521b60448201526064016107fa565b610a2d611aa3565b610a35611ae9565b60008581526003602052604080822060078101805460ff1916905590519091339188917fdbf354ec74f7d7a19e29856dc9f7387ad7a3e7f226aa570470cb65fcc68f972991a350610a866001600055565b5050505050565b610a956119f1565b6108876000611b42565b610aa76119f1565b610887611b9c565b3360009081526005602052604090205460ff16610ade5760405162461bcd60e51b81526004016107fa90611d66565b600081815260036020526040812054829103610b0c5760405162461bcd60e51b81526004016107fa90611dd9565b600082815260036020526040902060070154829060ff16610b6f5760405162461bcd60e51b815260206004820152601a60248201527f4c6f616e2072657175657374206973206e6f742061637469766500000000000060448201526064016107fa565b6000838152600360205260409020600701548390610100900460ff1615610bd15760405162461bcd60e51b8152602060048201526016602482015275131bd85b881a5cc8185b1c9958591e48199d5b99195960521b60448201526064016107fa565b6000848152600360205260409020600601548490421115610c345760405162461bcd60e51b815260206004820152601860248201527f4c6f616e2072657175657374206861732065787069726564000000000000000060448201526064016107fa565b610c3c611aa3565b610c44611ae9565b600085815260036020526040902060018101546001600160a01b03163303610cae5760405162461bcd60e51b815260206004820152601960248201527f43616e6e6f742066756e6420796f7572206f776e206c6f616e0000000000000060448201526064016107fa565b80600201543414610d015760405162461bcd60e51b815260206004820152601b60248201527f4d7573742073656e64206578616374206c6f616e20616d6f756e74000000000060448201526064016107fa565b6007810180546201000033908102610100600160b01b0319909216919091176101001790915542600883015560008181526004602081815260408320600281810180546001810182559086529285209092018b905590850154938352018054909190610d6e908490611e26565b9091555050600281015460018201546001600160a01b031660009081526004602052604081206003018054909190610da7908490611e26565b909155505060018101546040516000916001600160a01b03169034908381818185875af1925050503d8060008114610dfb576040519150601f19603f3d011682016040523d82523d6000602084013e610e00565b606091505b5050905080610e515760405162461bcd60e51b815260206004820152601b60248201527f5472616e7366657220746f20626f72726f776572206661696c6564000000000060448201526064016107fa565b600182015460028301546040519081526001600160a01b0390911690339089907f31962dfcc960e802d8cb12e69128e6789a329952d8300113d776e53221bf44849060200160405180910390a45050610a866001600055565b6001600160a01b038116600090815260046020908152604091829020600101805483518184028101840190945280845260609392830182828015610f0d57602002820191906000526020600020905b815481526020019060010190808311610ef9575b50505050509050919050565b60606000806001600254610f2d9190611e39565b905060015b818111610fb35760008181526003602052604090206007015460ff168015610f715750600081815260036020526040902060070154610100900460ff16155b8015610f8e57506000818152600360205260409020600601544211155b15610fa15782610f9d81611e4c565b9350505b80610fab81611e4c565b915050610f32565b5060008267ffffffffffffffff811115610fcf57610fcf611e65565b604051908082528060200260200182016040528015610ff8578160200160208202803683370190505b509050600060015b83811161109f5760008181526003602052604090206007015460ff16801561103f5750600081815260036020526040902060070154610100900460ff16155b801561105c57506000818152600360205260409020600601544211155b1561108d578083838151811061107457611074611e7b565b60209081029190910101528161108981611e4c565b9250505b8061109781611e4c565b915050611000565b5090949350505050565b600061020867016345785d8a000084108015906110cd5750670de0b6b3a764000084105b156110e4576110dd600082611e26565b90506111dd565b670de0b6b3a764000084101580156111035750678ac7230489e8000084105b15611113576110dd606482611e26565b678ac7230489e80000841015801561113357506802b5e3af16b188000084105b15611143576110dd60c882611e26565b6802b5e3af16b18800008410158015611164575068056bc75e2d6310000084105b15611175576110dd61012c82611e26565b68056bc75e2d6310000084101580156111965750681b1ae4d6e2ef50000084105b156111a7576110dd6101f482611e26565b681b1ae4d6e2ef50000084101580156111c95750683635c9adc5dea000008411155b156111dd576111da6102bc82611e26565b90505b62093a8083101580156111f3575062278d008311155b1561120a57611203600082611e26565b905061127e565b62278d008311801561121f57506276a7008311155b1561122f57611203606482611e26565b6276a70083118015611244575062ed4e008311155b156112545761120360c882611e26565b62ed4e008311801561126a57506301e133808311155b1561127e5761127b61012c82611e26565b90505b90505b92915050565b60008181526003602052604090206001015481906001600160a01b031633146112c25760405162461bcd60e51b81526004016107fa90611d94565b6000828152600360205260408120548391036112f05760405162461bcd60e51b81526004016107fa90611dd9565b6112f8611aa3565b611300611ae9565b60008381526003602052604090206007810154610100900460ff1661135c5760405162461bcd60e51b8152602060048201526012602482015271131bd85b881a5cc81b9bdd08199d5b99195960721b60448201526064016107fa565b60006064826003015483600201546113749190611e91565b61137e9190611ea8565b826002015461138d9190611e26565b90508034146113de5760405162461bcd60e51b815260206004820181905260248201527f4d7573742073656e642065786163742072657061796d656e7420616d6f756e7460448201526064016107fa565b60078201805460ff1916908190556040516000916201000090046001600160a01b03169034908381818185875af1925050503d806000811461143c576040519150601f19603f3d011682016040523d82523d6000602084013e611441565b606091505b50509050806114925760405162461bcd60e51b815260206004820152601960248201527f5472616e7366657220746f206c656e646572206661696c65640000000000000060448201526064016107fa565b604051828152339087907f512d3e65b3e58c2187bb1872aa435dba5bd09c1c03823ba56ab70aac411e4a219060200160405180910390a35050506114d66001600055565b505050565b6001600160a01b038116600090815260046020908152604091829020600201805483518184028101840190945280845260609392830182828015610f0d5760200282019190600052602060002090815481526020019060010190808311610ef95750505050509050919050565b6115506119f1565b60015460405160009161010090046001600160a01b03169047908381818185875af1925050503d80600081146115a2576040519150601f19603f3d011682016040523d82523d6000602084013e6115a7565b606091505b50509050806115f85760405162461bcd60e51b815260206004820152601b60248201527f456d657267656e6379207769746864726177616c206661696c6564000000000060448201526064016107fa565b50565b3360009081526005602052604090205460ff1661162a5760405162461bcd60e51b81526004016107fa90611d66565b611632611aa3565b61163a611ae9565b670de0b6b3a7640000821015801561165b5750683635c9adc5dea000008211155b6116b85760405162461bcd60e51b815260206004820152602860248201527f416d6f756e74206d757374206265206265747765656e20302e303120616e6420604482015267062606060408aa8960c31b60648201526084016107fa565b62093a8081101580156116cf57506301e133808111155b6117305760405162461bcd60e51b815260206004820152602c60248201527f4475726174696f6e206d757374206265206265747765656e203720646179732060448201526b616e6420333635206461797360a01b60648201526084016107fa565b600061173c83836110a9565b60028054919250600091908261175183611e4c565b90915550905060006117638442611e26565b9050604051806101600160405280838152602001336001600160a01b0316815260200186815260200184815260200185815260200142815260200182815260200160011515815260200160001515815260200160006001600160a01b031681526020016000815250600360008481526020019081526020016000206000820151816000015560208201518160010160006101000a8154816001600160a01b0302191690836001600160a01b0316021790555060408201518160020155606082015181600301556080820151816004015560a0820151816005015560c0820151816006015560e08201518160070160006101000a81548160ff0219169083151502179055506101008201518160070160016101000a81548160ff0219169083151502179055506101208201518160070160026101000a8154816001600160a01b0302191690836001600160a01b03160217905550610140820151816008015590505060046000336001600160a01b03166001600160a01b03168152602001908152602001600020600101829080600181540180825580915050600190039060005260206000200160009091909190915055336001600160a01b0316827f9de2064cad69ef8141b960a6b33ed36921ec69d79cb142983f4b98a58095ffb5878688604051611962939291909283526020830191909152604082015260600190565b60405180910390a35050506119776001600055565b5050565b6119836119f1565b6001600160a01b0381166119e85760405162461bcd60e51b815260206004820152602660248201527f4f776e61626c653a206e6577206f776e657220697320746865207a65726f206160448201526564647265737360d01b60648201526084016107fa565b6115f881611b42565b6001546001600160a01b036101009091041633146108875760405162461bcd60e51b815260206004820181905260248201527f4f776e61626c653a2063616c6c6572206973206e6f7420746865206f776e657260448201526064016107fa565b611a59611bd7565b6001805460ff191690557f5db9ee0a495bf2e6ff9c91a7834c1ba4fdd244a5e8aa4e537bd38aeae4b073aa335b6040516001600160a01b03909116815260200160405180910390a1565b60015460ff16156108875760405162461bcd60e51b815260206004820152601060248201526f14185d5cd8589b194e881c185d5cd95960821b60448201526064016107fa565b600260005403611b3b5760405162461bcd60e51b815260206004820152601f60248201527f5265656e7472616e637947756172643a207265656e7472616e742063616c6c0060448201526064016107fa565b6002600055565b600180546001600160a01b03838116610100818102610100600160a81b031985161790945560405193909204169182907f8be0079c531659141344cd1fd0a4f28419497f9722a3daafe3b4186f6b6457e090600090a35050565b611ba4611aa3565b6001805460ff1916811790557f62e78cea01bee320cd4e420270b5ea74000d11b0c9f74754ebdbfc544b05a25833611a86565b60015460ff166108875760405162461bcd60e51b815260206004820152601460248201527314185d5cd8589b194e881b9bdd081c185d5cd95960621b60448201526064016107fa565b600060208284031215611c3257600080fd5b81356001600160a01b038116811461127e57600080fd5b600060208284031215611c5b57600080fd5b5035919050565b81518152602080830151610160830191611c86908401826001600160a01b03169052565b5060408301516040830152606083015160608301526080830151608083015260a083015160a083015260c083015160c083015260e0830151611ccc60e084018215159052565b5061010083810151151590830152610120808401516001600160a01b03169083015261014092830151929091019190915290565b6020808252825182820181905260009190848201906040850190845b81811015611d3857835183529284019291840191600101611d1c565b50909695505050505050565b60008060408385031215611d5757600080fd5b50508035926020909101359150565b60208082526014908201527315d85b1b195d081b9bdd0818dbdb9b9958dd195960621b604082015260600190565b60208082526025908201527f4f6e6c7920626f72726f7765722063616e20706572666f726d2074686973206160408201526431ba34b7b760d91b606082015260800190565b6020808252601b908201527f4c6f616e207265717565737420646f6573206e6f742065786973740000000000604082015260600190565b634e487b7160e01b600052601160045260246000fd5b8082018082111561128157611281611e10565b8181038181111561128157611281611e10565b600060018201611e5e57611e5e611e10565b5060010190565b634e487b7160e01b600052604160045260246000fd5b634e487b7160e01b600052603260045260246000fd5b808202811582820484141761128157611281611e10565b600082611ec557634e487b7160e01b600052601260045260246000fd5b50049056fea26469706673582212205e2e2040ebb2aa5d67f523c59e3ca09fe66a5d646c8fff4f1fc785ff7fd63b9664736f6c63430008140033",
  "linkReferences": {},
  "deployedLinkReferences": {}
}