{
  "_format": "hh-sol-artifact-1",
  "contractName": "FinBridgeMultiSig",
  "sourceName": "contracts/FinBridgeMultiSig.sol",
  "abi": [
    {
      "inputs": [
        {
          "internalType": "address[]",
          "name": "_owners",
          "type": "address[]"
        },
        {
          "internalType": "uint256",
          "name": "_required",
          "type": "uint256"
        }
      ],
      "stateMutability": "nonpayable",
      "type": "constructor"
    },
    {
      "anonymous": false,
      "inputs": [
        {
          "indexed": true,
          "internalType": "address",
          "name": "previousOwner",
          "type": "address"
        },
        {
          "indexed": true,
          "internalType": "address",
          "name": "newOwner",
          "type": "address"
        }
      ],
      "name": "OwnershipTransferred",
      "type": "event"
    },
    {
      "anonymous": false,
      "inputs": [
        {
          "indexed": true,
          "internalType": "uint256",
          "name": "transactionId",
          "type": "uint256"
        },
        {
          "indexed": true,
          "internalType": "address",
          "name": "owner",
          "type": "address"
        }
      ],
      "name": "TransactionConfirmed",
      "type": "event"
    },
    {
      "anonymous": false,
      "inputs": [
        {
          "indexed": true,
          "internalType": "uint256",
          "name": "transactionId",
          "type": "uint256"
        },
        {
          "indexed": true,
          "internalType": "address",
          "name": "owner",
          "type": "address"
        }
      ],
      "name": "TransactionExecuted",
      "type": "event"
    },
    {
      "anonymous": false,
      "inputs": [
        {
          "indexed": true,
          "internalType": "uint256",
          "name": "transactionId",
          "type": "uint256"
        },
        {
          "indexed": true,
          "internalType": "address",
          "name": "owner",
          "type": "address"
        },
        {
          "indexed": false,
          "internalType": "address",
          "name": "to",
          "type": "address"
        },
        {
          "indexed": false,
          "internalType": "uint256",
          "name": "value",
          "type": "uint256"
        }
      ],
      "name": "TransactionSubmitted",
      "type": "event"
    },
    {
      "inputs": [
        {
          "internalType": "address",
          "name": "newOwner",
          "type": "address"
        }
      ],
      "name": "addOwner",
      "outputs": [],
      "stateMutability": "nonpayable",
      "type": "function"
    },
    {
      "inputs": [
        {
          "internalType": "uint256",
          "name": "newRequired",
          "type": "uint256"
        }
      ],
      "name": "changeRequirement",
      "outputs": [],
      "stateMutability": "nonpayable",
      "type": "function"
    },
    {
      "inputs": [
        {
          "internalType": "uint256",
          "name": "transactionId",
          "type": "uint256"
        }
      ],
      "name": "confirmTransaction",
      "outputs": [],
      "stateMutability": "nonpayable",
      "type": "function"
    },
    {
      "inputs": [
        {
          "internalType": "uint256",
          "name": "",
          "type": "uint256"
        },
        {
          "internalType": "address",
          "name": "",
          "type": "address"
        }
      ],
      "name": "confirmations",
      "outputs": [
        {
          "internalType": "bool",
          "name": "",
          "type": "bool"
        }
      ],
      "stateMutability": "view",
      "type": "function"
    },
    {
      "inputs": [
        {
          "internalType": "uint256",
          "name": "transactionId",
          "type": "uint256"
        }
      ],
      "name": "getConfirmationCount",
      "outputs": [
        {
          "internalType": "uint256",
          "name": "",
          "type": "uint256"
        }
      ],
      "stateMutability": "view",
      "type": "function"
    },
    {
      "inputs": [
        {
          "internalType": "uint256",
          "name": "transactionId",
          "type": "uint256"
        }
      ],
      "name": "getTransaction",
      "outputs": [
        {
          "components": [
            {
              "internalType": "address",
              "name": "to",
              "type": "address"
            },
            {
              "internalType": "uint256",
              "name": "value",
              "type": "uint256"
            },
            {
              "internalType": "bytes",
              "name": "data",
              "type": "bytes"
            },
            {
              "internalType": "bool",
              "name": "executed",
              "type": "bool"
            },
            {
              "internalType": "uint256",
              "name": "numConfirmations",
              "type": "uint256"
            },
            {
              "internalType": "uint256",
              "name": "createdAt",
              "type": "uint256"
            }
          ],
          "internalType": "struct FinBridgeMultiSig.Transaction",
          "name": "",
          "type": "tuple"
        }
      ],
      "stateMutability": "view",
      "type": "function"
    },
    {
      "inputs": [
        {
          "internalType": "uint256",
          "name": "transactionId",
          "type": "uint256"
        },
        {
          "internalType": "address",
          "name": "owner",
          "type": "address"
        }
      ],
      "name": "isConfirmed",
      "outputs": [
        {
          "internalType": "bool",
          "name": "",
          "type": "bool"
        }
      ],
      "stateMutability": "view",
      "type": "function"
    },
    {
      "inputs": [
        {
          "internalType": "address",
          "name": "",
          "type": "address"
        }
      ],
      "name": "isOwner",
      "outputs": [
        {
          "internalType": "bool",
          "name": "",
          "type": "bool"
        }
      ],
      "stateMutability": "view",
      "type": "function"
    },
    {
      "inputs": [],
      "name": "owner",
      "outputs": [
        {
          "internalType": "address",
          "name": "",
          "type": "address"
        }
      ],
      "stateMutability": "view",
      "type": "function"
    },
    {
      "inputs": [
        {
          "internalType": "uint256",
          "name": "",
          "type": "uint256"
        }
      ],
      "name": "owners",
      "outputs": [
        {
          "internalType": "address",
          "name": "",
          "type": "address"
        }
      ],
      "stateMutability": "view",
      "type": "function"
    },
    {
      "inputs": [
        {
          "internalType": "address",
          "name": "ownerToRemove",
          "type": "address"
        }
      ],
      "name": "removeOwner",
      "outputs": [],
      "stateMutability": "nonpayable",
      "type": "function"
    },
    {
      "inputs": [],
      "name": "renounceOwnership",
      "outputs": [],
      "stateMutability": "nonpayable",
      "type": "function"
    },
    {
      "inputs": [],
      "name": "requiredConfirmations",
      "outputs": [
        {
          "internalType": "uint256",
          "name": "",
          "type": "uint256"
        }
      ],
      "stateMutability": "view",
      "type": "function"
    },
    {
      "inputs": [
        {
          "internalType": "address",
          "name": "to",
          "type": "address"
        },
        {
          "internalType": "uint256",
          "name": "value",
          "type": "uint256"
        },
        {
          "internalType": "bytes",
          "name": "data",
          "type": "bytes"
        }
      ],
      "name": "submitTransaction",
      "outputs": [],
      "stateMutability": "nonpayable",
      "type": "function"
    },
    {
      "inputs": [],
      "name": "transactionCount",
      "outputs": [
        {
          "internalType": "uint256",
          "name": "",
          "type": "uint256"
        }
      ],
      "stateMutability": "view",
      "type": "function"
    },
    {
      "inputs": [
        {
          "internalType": "uint256",
          "name": "",
          "type": "uint256"
        }
      ],
      "name": "transactions",
      "outputs": [
        {
          "internalType": "address",
          "name": "to",
          "type": "address"
        },
        {
          "internalType": "uint256",
          "name": "value",
          "type": "uint256"
        },
        {
          "internalType": "bytes",
          "name": "data",
          "type": "bytes"
        },
        {
          "internalType": "bool",
          "name": "executed",
          "type": "bool"
        },
        {
          "internalType": "uint256",
          "name": "numConfirmations",
          "type": "uint256"
        },
        {
          "internalType": "uint256",
          "name": "createdAt",
          "type": "uint256"
        }
      ],
      "stateMutability": "view",
      "type": "function"
    },
    {
      "inputs": [
        {
          "internalType": "address",
          "name": "newOwner",
          "type": "address"
        }
      ],
      "name": "transferOwnership",
      "outputs": [],
      "stateMutability": "nonpayable",
      "type": "function"
    }
  ],
  "bytecode": "0x60806040523480156200001157600080fd5b50604051620017c5380380620017c5833981016040819052620000349162000298565b6001600055620000443362000192565b6002825110156200009c5760405162461bcd60e51b815260206004820152601960248201527f4d696e696d756d2032206f776e6572732072657175697265640000000000000060448201526064015b60405180910390fd5b600081118015620000ae575081518111155b620000fc5760405162461bcd60e51b815260206004820152601e60248201527f496e76616c696420726571756972656420636f6e6669726d6174696f6e730000604482015260640162000093565b815162000111906005906020850190620001e4565b50600681905560005b825181101562000189576001600460006005848154811062000140576200014062000372565b6000918252602080832091909101546001600160a01b031683528201929092526040019020805460ff191691151591909117905580620001808162000388565b9150506200011a565b505050620003b0565b600180546001600160a01b038381166001600160a01b0319831681179093556040519116919082907f8be0079c531659141344cd1fd0a4f28419497f9722a3daafe3b4186f6b6457e090600090a35050565b8280548282559060005260206000209081019282156200023c579160200282015b828111156200023c57825182546001600160a01b0319166001600160a01b0390911617825560209092019160019091019062000205565b506200024a9291506200024e565b5090565b5b808211156200024a57600081556001016200024f565b634e487b7160e01b600052604160045260246000fd5b80516001600160a01b03811681146200029357600080fd5b919050565b60008060408385031215620002ac57600080fd5b82516001600160401b0380821115620002c457600080fd5b818501915085601f830112620002d957600080fd5b8151602082821115620002f057620002f062000265565b8160051b604051601f19603f8301168101818110868211171562000318576200031862000265565b6040529283528183019350848101820192898411156200033757600080fd5b948201945b83861015620003605762000350866200027b565b855294820194938201936200033c565b97909101519698969750505050505050565b634e487b7160e01b600052603260045260246000fd5b600060018201620003a957634e487b7160e01b600052601160045260246000fd5b5060010190565b61140580620003c06000396000f3fe608060405234801561001057600080fd5b506004361061010b5760003560e01c806382e717f7116100a2578063b77bf60011610071578063b77bf60014610274578063ba51a6df1461027d578063c01a8c8414610290578063c6427474146102a3578063f2fde38b146102b657600080fd5b806382e717f7146102045780638b51d13f1461021b5780638da5cb5b1461023e5780639ace38c21461024f57600080fd5b80633411c81c116100de5780633411c81c146101a85780637065cb48146101d6578063715018a6146101e957806380f59a65146101f157600080fd5b8063025e7c2714610110578063173825d9146101405780632f54bf6e1461015557806333ea3dc814610188575b600080fd5b61012361011e366004610f29565b6102c9565b6040516001600160a01b0390911681526020015b60405180910390f35b61015361014e366004610f5e565b6102f3565b005b610178610163366004610f5e565b60046020526000908152604090205460ff1681565b6040519015158152602001610137565b61019b610196366004610f29565b61052f565b6040516101379190610fc6565b6101786101b636600461102a565b600360209081526000928352604080842090915290825290205460ff1681565b6101536101e4366004610f5e565b610665565b6101536107a7565b6101786101ff36600461102a565b6107bb565b61020d60065481565b604051908152602001610137565b61020d610229366004610f29565b60009081526002602052604090206004015490565b6001546001600160a01b0316610123565b61026261025d366004610f29565b6107e8565b60405161013796959493929190611056565b61020d60075481565b61015361028b366004610f29565b6108b7565b61015361029e366004610f29565b610999565b6101536102b13660046110b1565b610b6f565b6101536102c4366004610f5e565b610cf8565b600581815481106102d957600080fd5b6000918252602090912001546001600160a01b0316905081565b6000805b60055481101561035357336001600160a01b03166005828154811061031e5761031e61117c565b6000918252602090912001546001600160a01b0316036103415760019150610353565b8061034b816111a8565b9150506102f7565b508061037a5760405162461bcd60e51b8152600401610371906111c1565b60405180910390fd5b6001600160a01b03821660009081526004602052604090205460ff166103b25760405162461bcd60e51b8152600401610371906111c1565b6005546001106104045760405162461bcd60e51b815260206004820152601860248201527f43616e6e6f742072656d6f7665206c617374206f776e657200000000000000006044820152606401610371565b6001600160a01b0382166000908152600460205260408120805460ff191690555b6005548110156104f757826001600160a01b03166005828154811061044c5761044c61117c565b6000918252602090912001546001600160a01b0316036104e55760058054610476906001906111e7565b815481106104865761048661117c565b600091825260209091200154600580546001600160a01b0390921691839081106104b2576104b261117c565b9060005260206000200160006101000a8154816001600160a01b0302191690836001600160a01b031602179055506104f7565b806104ef816111a8565b915050610425565b506005805480610509576105096111fa565b600082815260209020810160001990810180546001600160a01b03191690550190555050565b6105736040518060c0016040528060006001600160a01b03168152602001600081526020016060815260200160001515815260200160008152602001600081525090565b600082815260026020818152604092839020835160c08101855281546001600160a01b03168152600182015492810192909252918201805491938401916105b990611210565b80601f01602080910402602001604051908101604052809291908181526020018280546105e590611210565b80156106325780601f1061060757610100808354040283529160200191610632565b820191906000526020600020905b81548152906001019060200180831161061557829003601f168201915b5050509183525050600382015460ff16151560208201526004820154604082015260059091015460609091015292915050565b6000805b6005548110156106c557336001600160a01b0316600582815481106106905761069061117c565b6000918252602090912001546001600160a01b0316036106b357600191506106c5565b806106bd816111a8565b915050610669565b50806106e35760405162461bcd60e51b8152600401610371906111c1565b6001600160a01b03821660009081526004602052604090205460ff161561073f5760405162461bcd60e51b815260206004820152601060248201526f20b63932b0b23c9030b71037bbb732b960811b6044820152606401610371565b506005805460018181019092557f036b6384b5eca791c62761152d0c79bb0604c104a5fb6f4eb0703f3154bb3db00180546001600160a01b039093166001600160a01b031990931683179055600091825260046020526040909120805460ff19169091179055565b6107af610d71565b6107b96000610dcb565b565b60008281526003602090815260408083206001600160a01b038516845290915290205460ff165b92915050565b60026020819052600091825260409091208054600182015492820180546001600160a01b0390921693929161081c90611210565b80601f016020809104026020016040519081016040528092919081815260200182805461084890611210565b80156108955780601f1061086a57610100808354040283529160200191610895565b820191906000526020600020905b81548152906001019060200180831161087857829003601f168201915b5050505060038301546004840154600590940154929360ff9091169290915086565b6000805b60055481101561091757336001600160a01b0316600582815481106108e2576108e261117c565b6000918252602090912001546001600160a01b0316036109055760019150610917565b8061090f816111a8565b9150506108bb565b50806109355760405162461bcd60e51b8152600401610371906111c1565b60008211801561094757506005548211155b6109935760405162461bcd60e51b815260206004820152601e60248201527f496e76616c696420726571756972656420636f6e6669726d6174696f6e7300006044820152606401610371565b50600655565b6000805b6005548110156109f957336001600160a01b0316600582815481106109c4576109c461117c565b6000918252602090912001546001600160a01b0316036109e757600191506109f9565b806109f1816111a8565b91505061099d565b5080610a175760405162461bcd60e51b8152600401610371906111c1565b600082815260026020526040902060030154829060ff1615610a7b5760405162461bcd60e51b815260206004820152601c60248201527f5472616e73616374696f6e20616c7265616479206578656375746564000000006044820152606401610371565b6000838152600260209081526040808320600383528184203385529092529091205460ff1615610aed5760405162461bcd60e51b815260206004820152601d60248201527f5472616e73616374696f6e20616c726561647920636f6e6669726d65640000006044820152606401610371565b60008481526003602090815260408083203384529091528120805460ff1916600117905560048201805491610b21836111a8565b9091555050604051339085907f15c2f311c9e0f53b50388279894aeff029a3457884a6601e924fca879e12adcc90600090a3600654816004015410610b6957610b6984610e1d565b50505050565b6000805b600554811015610bcf57336001600160a01b031660058281548110610b9a57610b9a61117c565b6000918252602090912001546001600160a01b031603610bbd5760019150610bcf565b80610bc7816111a8565b915050610b73565b5080610bed5760405162461bcd60e51b8152600401610371906111c1565b6007805460009182610bfe836111a8565b909155506040805160c0810182526001600160a01b0388811682526020808301898152838501898152600060608601819052608086018190524260a087015287815260029384905295909520845181546001600160a01b0319169416939093178355516001830155925193945090929091820190610c7c9082611299565b50606082015160038201805460ff19169115159190911790556080820151600482015560a090910151600590910155604080516001600160a01b038716815260208101869052339183917f753dcda37efe0bc3675e04e24d1fb08b70681f14675eed4b6e7978495caf2ca0910160405180910390a35050505050565b610d00610d71565b6001600160a01b038116610d655760405162461bcd60e51b815260206004820152602660248201527f4f776e61626c653a206e6577206f776e657220697320746865207a65726f206160448201526564647265737360d01b6064820152608401610371565b610d6e81610dcb565b50565b6001546001600160a01b031633146107b95760405162461bcd60e51b815260206004820181905260248201527f4f776e61626c653a2063616c6c6572206973206e6f7420746865206f776e65726044820152606401610371565b600180546001600160a01b038381166001600160a01b0319831681179093556040519116919082907f8be0079c531659141344cd1fd0a4f28419497f9722a3daafe3b4186f6b6457e090600090a35050565b600081815260026020819052604080832060038101805460ff1916600190811790915581549082015492519194936001600160a01b039091169291610e6491860190611359565b60006040518083038185875af1925050503d8060008114610ea1576040519150601f19603f3d011682016040523d82523d6000602084013e610ea6565b606091505b5050905080610ef75760405162461bcd60e51b815260206004820152601c60248201527f5472616e73616374696f6e20657865637574696f6e206661696c6564000000006044820152606401610371565b604051339084907fefc13bdcf58f184ea7cae26b499fb33b539e01d0197cea456f3ada289b8cf19b90600090a3505050565b600060208284031215610f3b57600080fd5b5035919050565b80356001600160a01b0381168114610f5957600080fd5b919050565b600060208284031215610f7057600080fd5b610f7982610f42565b9392505050565b6000815180845260005b81811015610fa657602081850181015186830182015201610f8a565b506000602082860101526020601f19601f83011685010191505092915050565b6020815260018060a01b038251166020820152602082015160408201526000604083015160c06060840152610ffe60e0840182610f80565b9050606084015115156080840152608084015160a084015260a084015160c08401528091505092915050565b6000806040838503121561103d57600080fd5b8235915061104d60208401610f42565b90509250929050565b60018060a01b038716815285602082015260c06040820152600061107d60c0830187610f80565b941515606083015250608081019290925260a0909101529392505050565b634e487b7160e01b600052604160045260246000fd5b6000806000606084860312156110c657600080fd5b6110cf84610f42565b925060208401359150604084013567ffffffffffffffff808211156110f357600080fd5b818601915086601f83011261110757600080fd5b8135818111156111195761111961109b565b604051601f8201601f19908116603f011681019083821181831017156111415761114161109b565b8160405282815289602084870101111561115a57600080fd5b8260208601602083013760006020848301015280955050505050509250925092565b634e487b7160e01b600052603260045260246000fd5b634e487b7160e01b600052601160045260246000fd5b6000600182016111ba576111ba611192565b5060010190565b6020808252600c908201526b2737ba1030b71037bbb732b960a11b604082015260600190565b818103818111156107e2576107e2611192565b634e487b7160e01b600052603160045260246000fd5b600181811c9082168061122457607f821691505b60208210810361124457634e487b7160e01b600052602260045260246000fd5b50919050565b601f82111561129457600081815260208120601f850160051c810160208610156112715750805b601f850160051c820191505b818110156112905782815560010161127d565b5050505b505050565b815167ffffffffffffffff8111156112b3576112b361109b565b6112c7816112c18454611210565b8461124a565b602080601f8311600181146112fc57600084156112e45750858301515b600019600386901b1c1916600185901b178555611290565b600085815260208120601f198616915b8281101561132b5788860151825594840194600190910190840161130c565b50858210156113495787850151600019600388901b60f8161c191681555b5050505050600190811b01905550565b600080835461136781611210565b6001828116801561137f5760018114611394576113c3565b60ff19841687528215158302870194506113c3565b8760005260208060002060005b858110156113ba5781548a8201529084019082016113a1565b50505082870194505b5092969550505050505056fea264697066735822122093a16db63d2547803f1343154753852191cfc376075a745826f32d6966ad431064736f6c63430008140033",
  "linkReferences": {},
  "deployedLinkReferences": {}
}