{
  "_format": "hh-sol-artifact-1",
  "contractName": "FinBridgeRewards",
  "sourceName": "contracts/FinBridgeRewards.sol",
  "abi": [
    {
      "inputs": [],
      "stateMutability": "nonpayable",
      "type": "constructor"
    },
    {
      "anonymous": false,
      "inputs": [
        {
          "indexed": true,
          "internalType": "address",
          "name": "user",
          "type": "address"
        },
        {
          "indexed": false,
          "internalType": "uint256",
          "name": "amount",
          "type": "uint256"
        }
      ],
      "name": "RewardClaimed",
      "type": "event"
    },
    {
      "anonymous": false,
      "inputs": [
        {
          "indexed": true,
          "internalType": "address",
          "name": "user",
          "type": "address"
        },
        {
          "indexed": false,
          "internalType": "uint256",
          "name": "amount",
          "type": "uint256"
        },
        {
          "indexed": false,
          "internalType": "uint256",
          "name": "tier",
          "type": "uint256"
        }
      ],
      "name": "RewardEarned",
      "type": "event"
    },
    {
      "inputs": [],
      "name": "TIER_BRONZE",
      "outputs": [
        {
          "internalType": "uint256",
          "name": "",
          "type": "uint256"
        }
      ],
      "stateMutability": "view",
      "type": "function"
    },
    {
      "inputs": [],
      "name": "TIER_GOLD",
      "outputs": [
        {
          "internalType": "uint256",
          "name": "",
          "type": "uint256"
        }
      ],
      "stateMutability": "view",
      "type": "function"
    },
    {
      "inputs": [],
      "name": "TIER_PLATINUM",
      "outputs": [
        {
          "internalType": "uint256",
          "name": "",
          "type": "uint256"
        }
      ],
      "stateMutability": "view",
      "type": "function"
    },
    {
      "inputs": [],
      "name": "TIER_SILVER",
      "outputs": [
        {
          "internalType": "uint256",
          "name": "",
          "type": "uint256"
        }
      ],
      "stateMutability": "view",
      "type": "function"
    },
    {
      "inputs": [],
      "name": "claimRewards",
      "outputs": [],
      "stateMutability": "nonpayable",
      "type": "function"
    },
    {
      "inputs": [
        {
          "internalType": "address",
          "name": "user",
          "type": "address"
        }
      ],
      "name": "getUserRewards",
      "outputs": [
        {
          "internalType": "uint256",
          "name": "",
          "type": "uint256"
        }
      ],
      "stateMutability": "view",
      "type": "function"
    },
    {
      "inputs": [
        {
          "internalType": "address",
          "name": "user",
          "type": "address"
        }
      ],
      "name": "getUserTier",
      "outputs": [
        {
          "internalType": "uint256",
          "name": "",
          "type": "uint256"
        },
        {
          "internalType": "string",
          "name": "",
          "type": "string"
        }
      ],
      "stateMutability": "view",
      "type": "function"
    },
    {
      "inputs": [
        {
          "internalType": "address",
          "name": "lender",
          "type": "address"
        },
        {
          "internalType": "uint256",
          "name": "amount",
          "type": "uint256"
        }
      ],
      "name": "incrementLentAmount",
      "outputs": [],
      "stateMutability": "nonpayable",
      "type": "function"
    },
    {
      "inputs": [
        {
          "internalType": "address",
          "name": "borrower",
          "type": "address"
        }
      ],
      "name": "incrementLoanCount",
      "outputs": [],
      "stateMutability": "nonpayable",
      "type": "function"
    },
    {
      "inputs": [
        {
          "internalType": "uint256",
          "name": "",
          "type": "uint256"
        }
      ],
      "name": "rewardTiers",
      "outputs": [
        {
          "internalType": "uint256",
          "name": "minLoans",
          "type": "uint256"
        },
        {
          "internalType": "uint256",
          "name": "minLent",
          "type": "uint256"
        },
        {
          "internalType": "uint256",
          "name": "rewardRate",
          "type": "uint256"
        },
        {
          "internalType": "string",
          "name": "tierName",
          "type": "string"
        }
      ],
      "stateMutability": "view",
      "type": "function"
    },
    {
      "inputs": [],
      "name": "rewardsToken",
      "outputs": [
        {
          "internalType": "contract FinBridgeRewardsToken",
          "name": "",
          "type": "address"
        }
      ],
      "stateMutability": "view",
      "type": "function"
    },
    {
      "inputs": [
        {
          "internalType": "address",
          "name": "",
          "type": "address"
        }
      ],
      "name": "userLentAmount",
      "outputs": [
        {
          "internalType": "uint256",
          "name": "",
          "type": "uint256"
        }
      ],
      "stateMutability": "view",
      "type": "function"
    },
    {
      "inputs": [
        {
          "internalType": "address",
          "name": "",
          "type": "address"
        }
      ],
      "name": "userLoanCount",
      "outputs": [
        {
          "internalType": "uint256",
          "name": "",
          "type": "uint256"
        }
      ],
      "stateMutability": "view",
      "type": "function"
    },
    {
      "inputs": [
        {
          "internalType": "address",
          "name": "",
          "type": "address"
        }
      ],
      "name": "userRewards",
      "outputs": [
        {
          "internalType": "uint256",
          "name": "",
          "type": "uint256"
        }
      ],
      "stateMutability": "view",
      "type": "function"
    }
  ],
  "bytecode": "0x60806040523480156200001157600080fd5b506001600055604051601290620000289062000488565b60608082526011908201527046696e427269646765205265776172647360781b608082015260a0602082018190526003908201526223212960e91b60c082015260ff909116604082015260e001604051809103906000f08015801562000092573d6000803e3d6000fd5b50600180546001600160a01b0319166001600160a01b03929092169190911781556040805160808101825291825267016345785d8a0000602080840191825260648484019081528351808501909452600684526542726f6e7a6560d01b848301526060850193845260008052600590915283517f05b8ccbb9d4d8fb16ea74ce3c29a41f1b461fbdaff4714a0d9a8eb05499746bc90815591517f05b8ccbb9d4d8fb16ea74ce3c29a41f1b461fbdaff4714a0d9a8eb05499746bd55517f05b8ccbb9d4d8fb16ea74ce3c29a41f1b461fbdaff4714a0d9a8eb05499746be5590517f05b8ccbb9d4d8fb16ea74ce3c29a41f1b461fbdaff4714a0d9a8eb05499746bf90620001a090826200053b565b5050604080516080810182526005808252670de0b6b3a7640000602080840191825260c88486019081528551808701909652600686526529b4b63b32b960d11b8683015260608501958652600160005292905282517f1471eb6eb2c5e789fc3de43f8ce62938c7d1836ec861730447e2ada8fd81017b90815590517f1471eb6eb2c5e789fc3de43f8ce62938c7d1836ec861730447e2ada8fd81017c5590517f1471eb6eb2c5e789fc3de43f8ce62938c7d1836ec861730447e2ada8fd81017d5591519092507f1471eb6eb2c5e789fc3de43f8ce62938c7d1836ec861730447e2ada8fd81017e906200029490826200053b565b505060408051608081018252600a8152674563918244f4000060208083019182526101f48385019081528451808601909552600485526311dbdb1960e21b85830152606084019485526002600052600590915282517f89832631fb3c3307a103ba2c84ab569c64d6182a18893dcd163f0f1c2090733a90815591517f89832631fb3c3307a103ba2c84ab569c64d6182a18893dcd163f0f1c2090733b55517f89832631fb3c3307a103ba2c84ab569c64d6182a18893dcd163f0f1c2090733c5591519092507f89832631fb3c3307a103ba2c84ab569c64d6182a18893dcd163f0f1c2090733d906200038790826200053b565b50506040805160808101825260198152678ac7230489e8000060208083019182526103e883850190815284518086019095526008855267506c6174696e756d60c01b85830152606084019485526003600052600590915282517fa9bc9a3a348c357ba16b37005d7e6b3236198c0e939f4af8c5f19b8deeb8ebc090815591517fa9bc9a3a348c357ba16b37005d7e6b3236198c0e939f4af8c5f19b8deeb8ebc155517fa9bc9a3a348c357ba16b37005d7e6b3236198c0e939f4af8c5f19b8deeb8ebc25591519092507fa9bc9a3a348c357ba16b37005d7e6b3236198c0e939f4af8c5f19b8deeb8ebc3906200047e90826200053b565b5090505062000607565b610ad1806200102083390190565b634e487b7160e01b600052604160045260246000fd5b600181811c90821680620004c157607f821691505b602082108103620004e257634e487b7160e01b600052602260045260246000fd5b50919050565b601f8211156200053657600081815260208120601f850160051c81016020861015620005115750805b601f850160051c820191505b8181101562000532578281556001016200051d565b5050505b505050565b81516001600160401b0381111562000557576200055762000496565b6200056f81620005688454620004ac565b84620004e8565b602080601f831160018114620005a757600084156200058e5750858301515b600019600386901b1c1916600185901b17855562000532565b600085815260208120601f198616915b82811015620005d857888601518255948401946001909101908401620005b7565b5085821015620005f75787850151600019600388901b60f8161c191681555b5050505050600190811b01905550565b610a0980620006176000396000f3fe608060405234801561001057600080fd5b50600436106100ea5760003560e01c8063d1af0c7d1161008c578063e3d3f84311610066578063e3d3f843146101eb578063e4d2620e146101f3578063fd442eae14610214578063ff2011141461022757600080fd5b8063d1af0c7d146101a5578063d86b56f7146101d0578063de0c7388146101d857600080fd5b80633c0847f5116100c85780633c0847f51461015557806376bf78001461015d5780639a46e4121461017d578063af85e1d51461018557600080fd5b80630660f1e8146100ef578063078b0fb714610122578063372500ab1461014b575b600080fd5b61010f6100fd3660046107ee565b60046020526000908152604090205481565b6040519081526020015b60405180910390f35b61010f6101303660046107ee565b6001600160a01b031660009081526004602052604090205490565b61015361024a565b005b61010f600081565b61010f61016b3660046107ee565b60036020526000908152604090205481565b61010f600181565b61010f6101933660046107ee565b60026020526000908152604090205481565b6001546101b8906001600160a01b031681565b6040516001600160a01b039091168152602001610119565b61010f600381565b6101536101e63660046107ee565b610380565b61010f600281565b6102066102013660046107ee565b6103b5565b604051610119929190610856565b610153610222366004610877565b610495565b61023a6102353660046108a1565b6104d0565b60405161011994939291906108ba565b610252610583565b33600090815260046020526040902054806102b45760405162461bcd60e51b815260206004820152601d60248201527f4e6f207265776172647320617661696c61626c6520746f20636c61696d00000060448201526064015b60405180910390fd5b33600081815260046020819052604080832092909255600154915163a9059cbb60e01b815290810192909252602482018390526001600160a01b03169063a9059cbb906044016020604051808303816000875af1158015610319573d6000803e3d6000fd5b505050506040513d601f19601f8201168201806040525081019061033d91906108e9565b5060405181815233907f106f923f993c2149d49b4255ff723acafa1f2d94393f561d3eda32ae348f72419060200160405180910390a25061037e6001600055565b565b6001600160a01b03811660009081526002602052604081208054916103a483610921565b91905055506103b2816105dc565b50565b6001600160a01b038116600090815260026020908152604080832054600390925282205460609183916103e89190610754565b600081815260056020526040902060030180549192508291819061040b9061093a565b80601f01602080910402602001604051908101604052809291908181526020018280546104379061093a565b80156104845780601f1061045957610100808354040283529160200191610484565b820191906000526020600020905b81548152906001019060200180831161046757829003601f168201915b505050505090509250925050915091565b6001600160a01b038216600090815260036020526040812080548392906104bd908490610974565b909155506104cc9050826105dc565b5050565b6005602052600090815260409020805460018201546002830154600384018054939492939192916105009061093a565b80601f016020809104026020016040519081016040528092919081815260200182805461052c9061093a565b80156105795780601f1061054e57610100808354040283529160200191610579565b820191906000526020600020905b81548152906001019060200180831161055c57829003601f168201915b5050505050905084565b6002600054036105d55760405162461bcd60e51b815260206004820152601f60248201527f5265656e7472616e637947756172643a207265656e7472616e742063616c6c0060448201526064016102ab565b6002600055565b6001600160a01b0381166000908152600260209081526040808320546003909252822054909161060c8383610754565b905060006103e861061d8486610974565b6000848152600560205260409020600201546106399190610987565b610643919061099e565b6001600160a01b03861660009081526004602052604090205490915081111561074d576001600160a01b03851660009081526004602052604081205461068990836109c0565b6001600160a01b0387811660008181526004602081905260409182902087905560015491516340c10f1960e01b815290810192909252602482018490529293509116906340c10f1990604401600060405180830381600087803b1580156106ef57600080fd5b505af1158015610703573d6000803e3d6000fd5b505060408051848152602081018790526001600160a01b038a1693507f5a91a713f126207d46906d994a642f1da493d9f984546740403956e2db950bca92500160405180910390a2505b5050505050565b60006019831015801561076f5750678ac7230489e800008210155b1561077c575060036107cc565b600a83101580156107955750674563918244f400008210155b156107a2575060026107cc565b600583101580156107bb5750670de0b6b3a76400008210155b156107c8575060016107cc565b5060005b92915050565b80356001600160a01b03811681146107e957600080fd5b919050565b60006020828403121561080057600080fd5b610809826107d2565b9392505050565b6000815180845260005b818110156108365760208185018101518683018201520161081a565b506000602082860101526020601f19601f83011685010191505092915050565b82815260406020820152600061086f6040830184610810565b949350505050565b6000806040838503121561088a57600080fd5b610893836107d2565b946020939093013593505050565b6000602082840312156108b357600080fd5b5035919050565b8481528360208201528260408201526080606082015260006108df6080830184610810565b9695505050505050565b6000602082840312156108fb57600080fd5b8151801515811461080957600080fd5b634e487b7160e01b600052601160045260246000fd5b6000600182016109335761093361090b565b5060010190565b600181811c9082168061094e57607f821691505b60208210810361096e57634e487b7160e01b600052602260045260246000fd5b50919050565b808201808211156107cc576107cc61090b565b80820281158282048414176107cc576107cc61090b565b6000826109bb57634e487b7160e01b600052601260045260246000fd5b500490565b818103818111156107cc576107cc61090b56fea264697066735822122008841eb3ba36350a7d877e4f110ad72a900a4707b790741358a8d84349dec27164736f6c6343000814003360806040523480156200001157600080fd5b5060405162000ad138038062000ad1833981016040819052620000349162000138565b60006200004284826200024c565b5060016200005183826200024c565b506002805460ff191660ff929092169190911790555050600060035562000318565b634e487b7160e01b600052604160045260246000fd5b600082601f8301126200009b57600080fd5b81516001600160401b0380821115620000b857620000b862000073565b604051601f8301601f19908116603f01168101908282118183101715620000e357620000e362000073565b816040528381526020925086838588010111156200010057600080fd5b600091505b8382101562000124578582018301518183018401529082019062000105565b600093810190920192909252949350505050565b6000806000606084860312156200014e57600080fd5b83516001600160401b03808211156200016657600080fd5b620001748783880162000089565b945060208601519150808211156200018b57600080fd5b506200019a8682870162000089565b925050604084015160ff81168114620001b257600080fd5b809150509250925092565b600181811c90821680620001d257607f821691505b602082108103620001f357634e487b7160e01b600052602260045260246000fd5b50919050565b601f8211156200024757600081815260208120601f850160051c81016020861015620002225750805b601f850160051c820191505b8181101562000243578281556001016200022e565b5050505b505050565b81516001600160401b0381111562000268576200026862000073565b6200028081620002798454620001bd565b84620001f9565b602080601f831160018114620002b857600084156200029f5750858301515b600019600386901b1c1916600185901b17855562000243565b600085815260208120601f198616915b82811015620002e957888601518255948401946001909101908401620002c8565b5085821015620003085787850151600019600388901b60f8161c191681555b5050505050600190811b01905550565b6107a980620003286000396000f3fe608060405234801561001057600080fd5b506004361061009e5760003560e01c806340c10f191161006657806340c10f191461012d57806370a082311461014257806395d89b4114610162578063a9059cbb1461016a578063dd62ed3e1461017d57600080fd5b806306fdde03146100a3578063095ea7b3146100c157806318160ddd146100e457806323b872dd146100fb578063313ce5671461010e575b600080fd5b6100ab6101a8565b6040516100b891906105d8565b60405180910390f35b6100d46100cf366004610642565b610236565b60405190151581526020016100b8565b6100ed60035481565b6040519081526020016100b8565b6100d461010936600461066c565b6102a3565b60025461011b9060ff1681565b60405160ff90911681526020016100b8565b61014061013b366004610642565b61045e565b005b6100ed6101503660046106a8565b60046020526000908152604090205481565b6100ab6104e7565b6100d4610178366004610642565b6104f4565b6100ed61018b3660046106ca565b600560209081526000928352604080842090915290825290205481565b600080546101b5906106fd565b80601f01602080910402602001604051908101604052809291908181526020018280546101e1906106fd565b801561022e5780601f106102035761010080835404028352916020019161022e565b820191906000526020600020905b81548152906001019060200180831161021157829003601f168201915b505050505081565b3360008181526005602090815260408083206001600160a01b038716808552925280832085905551919290917f8c5be1e5ebec7d5bd14f71427d1e84f3dd0314c0f7b2291e5b200ac8c7c3b925906102919086815260200190565b60405180910390a35060015b92915050565b6001600160a01b0383166000908152600460205260408120548211156103075760405162461bcd60e51b8152602060048201526014602482015273496e73756666696369656e742062616c616e636560601b60448201526064015b60405180910390fd5b6001600160a01b03841660009081526005602090815260408083203384529091529020548211156103735760405162461bcd60e51b8152602060048201526016602482015275496e73756666696369656e7420616c6c6f77616e636560501b60448201526064016102fe565b6001600160a01b0384166000908152600460205260408120805484929061039b90849061074d565b90915550506001600160a01b038316600090815260046020526040812080548492906103c8908490610760565b90915550506001600160a01b03841660009081526005602090815260408083203384529091528120805484929061040090849061074d565b92505081905550826001600160a01b0316846001600160a01b03167fddf252ad1be2c89b69c2b068fc378daa952ba7f163c4a11628f55a4df523b3ef8460405161044c91815260200190565b60405180910390a35060019392505050565b80600360008282546104709190610760565b90915550506001600160a01b0382166000908152600460205260408120805483929061049d908490610760565b90915550506040518181526001600160a01b038316906000907fddf252ad1be2c89b69c2b068fc378daa952ba7f163c4a11628f55a4df523b3ef9060200160405180910390a35050565b600180546101b5906106fd565b3360009081526004602052604081205482111561054a5760405162461bcd60e51b8152602060048201526014602482015273496e73756666696369656e742062616c616e636560601b60448201526064016102fe565b336000908152600460205260408120805484929061056990849061074d565b90915550506001600160a01b03831660009081526004602052604081208054849290610596908490610760565b90915550506040518281526001600160a01b0384169033907fddf252ad1be2c89b69c2b068fc378daa952ba7f163c4a11628f55a4df523b3ef90602001610291565b600060208083528351808285015260005b81811015610605578581018301518582016040015282016105e9565b506000604082860101526040601f19601f8301168501019250505092915050565b80356001600160a01b038116811461063d57600080fd5b919050565b6000806040838503121561065557600080fd5b61065e83610626565b946020939093013593505050565b60008060006060848603121561068157600080fd5b61068a84610626565b925061069860208501610626565b9150604084013590509250925092565b6000602082840312156106ba57600080fd5b6106c382610626565b9392505050565b600080604083850312156106dd57600080fd5b6106e683610626565b91506106f460208401610626565b90509250929050565b600181811c9082168061071157607f821691505b60208210810361073157634e487b7160e01b600052602260045260246000fd5b50919050565b634e487b7160e01b600052601160045260246000fd5b8181038181111561029d5761029d610737565b8082018082111561029d5761029d61073756fea2646970667358221220e4e12b0b94fbd563f261f56bf902ef6f2fd84a4377b3b858fca240ed1db3a43964736f6c63430008140033",
  "linkReferences": {},
  "deployedLinkReferences": {}
}