{
  "_format": "hh-sol-artifact-1",
  "contractName": "FinBridgeLending",
  "sourceName": "contracts/FinBridgeLending.sol",
  "abi": [
    {
      "anonymous": false,
      "inputs": [
        {
          "indexed": true,
          "internalType": "uint256",
          "name": "loanId",
          "type": "uint256"
        },
        {
          "indexed": true,
          "internalType": "address",
          "name": "lender",
          "type": "address"
        },
        {
          "indexed": true,
          "internalType": "address",
          "name": "borrower",
          "type": "address"
        },
        {
          "indexed": false,
          "internalType": "uint256",
          "name": "amount",
          "type": "uint256"
        }
      ],
      "name": "LoanFunded",
      "type": "event"
    },
    {
      "anonymous": false,
      "inputs": [
        {
          "indexed": true,
          "internalType": "uint256",
          "name": "loanId",
          "type": "uint256"
        },
        {
          "indexed": true,
          "internalType": "address",
          "name": "borrower",
          "type": "address"
        },
        {
          "indexed": false,
          "internalType": "uint256",
          "name": "amount",
          "type": "uint256"
        }
      ],
      "name": "LoanRepaid",
      "type": "event"
    },
    {
      "anonymous": false,
      "inputs": [
        {
          "indexed": true,
          "internalType": "uint256",
          "name": "loanId",
          "type": "uint256"
        },
        {
          "indexed": true,
          "internalType": "address",
          "name": "borrower",
          "type": "address"
        },
        {
          "indexed": false,
          "internalType": "uint256",
          "name": "amount",
          "type": "uint256"
        },
        {
          "indexed": false,
          "internalType": "uint256",
          "name": "interestRate",
          "type": "uint256"
        },
        {
          "indexed": false,
          "internalType": "uint256",
          "name": "duration",
          "type": "uint256"
        }
      ],
      "name": "LoanRequestCreated",
      "type": "event"
    },
    {
      "anonymous": false,
      "inputs": [
        {
          "indexed": true,
          "internalType": "address",
          "name": "previousOwner",
          "type": "address"
        },
        {
          "indexed": true,
          "internalType": "address",
          "name": "newOwner",
          "type": "address"
        }
      ],
      "name": "OwnershipTransferred",
      "type": "event"
    },
    {
      "anonymous": false,
      "inputs": [
        {
          "indexed": false,
          "internalType": "address",
          "name": "account",
          "type": "address"
        }
      ],
      "name": "Paused",
      "type": "event"
    },
    {
      "anonymous": false,
      "inputs": [
        {
          "indexed": false,
          "internalType": "address",
          "name": "account",
          "type": "address"
        }
      ],
      "name": "Unpaused",
      "type": "event"
    },
    {
      "anonymous": false,
      "inputs": [
        {
          "indexed": true,
          "internalType": "address",
          "name": "user",
          "type": "address"
        }
      ],
      "name": "WalletConnected",
      "type": "event"
    },
    {
      "anonymous": false,
      "inputs": [
        {
          "indexed": true,
          "internalType": "address",
          "name": "user",
          "type": "address"
        }
      ],
      "name": "WalletDisconnected",
      "type": "event"
    },
    {
      "inputs": [],
      "name": "connectWallet",
      "outputs": [],
      "stateMutability": "nonpayable",
      "type": "function"
    },
    {
      "inputs": [
        {
          "internalType": "address",
          "name": "",
          "type": "address"
        }
      ],
      "name": "connectedWallets",
      "outputs": [
        {
          "internalType": "bool",
          "name": "",
          "type": "bool"
        }
      ],
      "stateMutability": "view",
      "type": "function"
    },
    {
      "inputs": [
        {
          "internalType": "uint256",
          "name": "amount",
          "type": "uint256"
        },
        {
          "internalType": "uint256",
          "name": "interestRate",
          "type": "uint256"
        },
        {
          "internalType": "uint256",
          "name": "duration",
          "type": "uint256"
        }
      ],
      "name": "createLoanRequest",
      "outputs": [],
      "stateMutability": "nonpayable",
      "type": "function"
    },
    {
      "inputs": [],
      "name": "disconnectWallet",
      "outputs": [],
      "stateMutability": "nonpayable",
      "type": "function"
    },
    {
      "inputs": [],
      "name": "emergencyWithdraw",
      "outputs": [],
      "stateMutability": "nonpayable",
      "type": "function"
    },
    {
      "inputs": [
        {
          "internalType": "uint256",
          "name": "loanId",
          "type": "uint256"
        }
      ],
      "name": "fundLoan",
      "outputs": [],
      "stateMutability": "payable",
      "type": "function"
    },
    {
      "inputs": [],
      "name": "getActiveLoanRequests",
      "outputs": [
        {
          "internalType": "uint256[]",
          "name": "",
          "type": "uint256[]"
        }
      ],
      "stateMutability": "view",
      "type": "function"
    },
    {
      "inputs": [
        {
          "internalType": "uint256",
          "name": "loanId",
          "type": "uint256"
        }
      ],
      "name": "getLoanRequest",
      "outputs": [
        {
          "components": [
            {
              "internalType": "uint256",
              "name": "id",
              "type": "uint256"
            },
            {
              "internalType": "address",
              "name": "borrower",
              "type": "address"
            },
            {
              "internalType": "uint256",
              "name": "amount",
              "type": "uint256"
            },
            {
              "internalType": "uint256",
              "name": "interestRate",
              "type": "uint256"
            },
            {
              "internalType": "uint256",
              "name": "duration",
              "type": "uint256"
            },
            {
              "internalType": "uint256",
              "name": "timestamp",
              "type": "uint256"
            },
            {
              "internalType": "bool",
              "name": "isActive",
              "type": "bool"
            },
            {
              "internalType": "bool",
              "name": "isFunded",
              "type": "bool"
            },
            {
              "internalType": "address",
              "name": "lender",
              "type": "address"
            },
            {
              "internalType": "uint256",
              "name": "fundedAt",
              "type": "uint256"
            }
          ],
          "internalType": "struct FinBridgeLending.LoanRequest",
          "name": "",
          "type": "tuple"
        }
      ],
      "stateMutability": "view",
      "type": "function"
    },
    {
      "inputs": [
        {
          "internalType": "address",
          "name": "user",
          "type": "address"
        }
      ],
      "name": "getUserFundedLoans",
      "outputs": [
        {
          "internalType": "uint256[]",
          "name": "",
          "type": "uint256[]"
        }
      ],
      "stateMutability": "view",
      "type": "function"
    },
    {
      "inputs": [
        {
          "internalType": "address",
          "name": "user",
          "type": "address"
        }
      ],
      "name": "getUserLoanRequests",
      "outputs": [
        {
          "internalType": "uint256[]",
          "name": "",
          "type": "uint256[]"
        }
      ],
      "stateMutability": "view",
      "type": "function"
    },
    {
      "inputs": [
        {
          "internalType": "address",
          "name": "user",
          "type": "address"
        }
      ],
      "name": "getUserStats",
      "outputs": [
        {
          "internalType": "uint256",
          "name": "totalBorrowed",
          "type": "uint256"
        },
        {
          "internalType": "uint256",
          "name": "totalLent",
          "type": "uint256"
        }
      ],
      "stateMutability": "view",
      "type": "function"
    },
    {
      "inputs": [
        {
          "internalType": "address",
          "name": "user",
          "type": "address"
        }
      ],
      "name": "isWalletConnected",
      "outputs": [
        {
          "internalType": "bool",
          "name": "",
          "type": "bool"
        }
      ],
      "stateMutability": "view",
      "type": "function"
    },
    {
      "inputs": [
        {
          "internalType": "uint256",
          "name": "",
          "type": "uint256"
        }
      ],
      "name": "loanRequests",
      "outputs": [
        {
          "internalType": "uint256",
          "name": "id",
          "type": "uint256"
        },
        {
          "internalType": "address",
          "name": "borrower",
          "type": "address"
        },
        {
          "internalType": "uint256",
          "name": "amount",
          "type": "uint256"
        },
        {
          "internalType": "uint256",
          "name": "interestRate",
          "type": "uint256"
        },
        {
          "internalType": "uint256",
          "name": "duration",
          "type": "uint256"
        },
        {
          "internalType": "uint256",
          "name": "timestamp",
          "type": "uint256"
        },
        {
          "internalType": "bool",
          "name": "isActive",
          "type": "bool"
        },
        {
          "internalType": "bool",
          "name": "isFunded",
          "type": "bool"
        },
        {
          "internalType": "address",
          "name": "lender",
          "type": "address"
        },
        {
          "internalType": "uint256",
          "name": "fundedAt",
          "type": "uint256"
        }
      ],
      "stateMutability": "view",
      "type": "function"
    },
    {
      "inputs": [],
      "name": "nextLoanId",
      "outputs": [
        {
          "internalType": "uint256",
          "name": "",
          "type": "uint256"
        }
      ],
      "stateMutability": "view",
      "type": "function"
    },
    {
      "inputs": [],
      "name": "owner",
      "outputs": [
        {
          "internalType": "address",
          "name": "",
          "type": "address"
        }
      ],
      "stateMutability": "view",
      "type": "function"
    },
    {
      "inputs": [],
      "name": "pause",
      "outputs": [],
      "stateMutability": "nonpayable",
      "type": "function"
    },
    {
      "inputs": [],
      "name": "paused",
      "outputs": [
        {
          "internalType": "bool",
          "name": "",
          "type": "bool"
        }
      ],
      "stateMutability": "view",
      "type": "function"
    },
    {
      "inputs": [],
      "name": "renounceOwnership",
      "outputs": [],
      "stateMutability": "nonpayable",
      "type": "function"
    },
    {
      "inputs": [
        {
          "internalType": "uint256",
          "name": "loanId",
          "type": "uint256"
        }
      ],
      "name": "repayLoan",
      "outputs": [],
      "stateMutability": "payable",
      "type": "function"
    },
    {
      "inputs": [
        {
          "internalType": "address",
          "name": "newOwner",
          "type": "address"
        }
      ],
      "name": "transferOwnership",
      "outputs": [],
      "stateMutability": "nonpayable",
      "type": "function"
    },
    {
      "inputs": [],
      "name": "unpause",
      "outputs": [],
      "stateMutability": "nonpayable",
      "type": "function"
    },
    {
      "inputs": [
        {
          "internalType": "address",
          "name": "",
          "type": "address"
        }
      ],
      "name": "users",
      "outputs": [
        {
          "internalType": "bool",
          "name": "isRegistered",
          "type": "bool"
        },
        {
          "internalType": "uint256",
          "name": "totalBorrowed",
          "type": "uint256"
        },
        {
          "internalType": "uint256",
          "name": "totalLent",
          "type": "uint256"
        }
      ],
      "stateMutability": "view",
      "type": "function"
    }
  ],
  "bytecode": "0x6080604052600160025534801561001557600080fd5b5060016000819055805460ff1916905561002e33610033565b61008d565b600180546001600160a01b03838116610100818102610100600160a81b031985161790945560405193909204169182907f8be0079c531659141344cd1fd0a4f28419497f9722a3daafe3b4186f6b6457e090600090a35050565b6119e78061009c6000396000f3fe6080604052600436106101355760003560e01c8063846b909a116100ab578063a87430ba1161006f578063a87430ba1461038d578063ab7b1c89146103eb578063c125958e146103fe578063d1b332f41461041e578063db2e21bc146104fc578063f2fde38b1461051157600080fd5b8063846b909a146102de57806387c51459146102f157806388ae545c146103155780638da5cb5b146103425780639772d7ee1461037857600080fd5b80634e43603a116100fd5780634e43603a146101f85780635c975abb1461024e57806363e680ae14610266578063715018a61461027b57806378961f94146102905780638456cb59146102c957600080fd5b80631443e4e71461013a578063184009b01461015c5780631b3b8671146101a15780632d66f063146101ce5780633f4ba83a146101e3575b600080fd5b34801561014657600080fd5b5061015a610155366004611752565b610531565b005b34801561016857600080fd5b5061018c61017736600461177e565b60056020526000908152604090205460ff1681565b60405190151581526020015b60405180910390f35b3480156101ad57600080fd5b506101c16101bc3660046117ae565b6108a1565b60405161019891906117c7565b3480156101da57600080fd5b5061015a6109a9565b3480156101ef57600080fd5b5061015a610a7d565b34801561020457600080fd5b5061023961021336600461177e565b6001600160a01b0316600090815260046020819052604090912060038101549101549091565b60408051928352602083019190915201610198565b34801561025a57600080fd5b5060015460ff1661018c565b34801561027257600080fd5b5061015a610a8f565b34801561028757600080fd5b5061015a610b24565b34801561029c57600080fd5b5061018c6102ab36600461177e565b6001600160a01b031660009081526005602052604090205460ff1690565b3480156102d557600080fd5b5061015a610b36565b61015a6102ec3660046117ae565b610b46565b3480156102fd57600080fd5b5061030760025481565b604051908152602001610198565b34801561032157600080fd5b5061033561033036600461177e565b610f14565b6040516101989190611862565b34801561034e57600080fd5b5060015461010090046001600160a01b03166040516001600160a01b039091168152602001610198565b34801561038457600080fd5b50610335610f83565b34801561039957600080fd5b506103ce6103a836600461177e565b600460208190526000918252604090912080546003820154919092015460ff9092169183565b604080519315158452602084019290925290820152606001610198565b61015a6103f93660046117ae565b6110cc565b34801561040a57600080fd5b5061033561041936600461177e565b61138d565b34801561042a57600080fd5b506104a16104393660046117ae565b60036020819052600091825260409091208054600182015460028301549383015460048401546005850154600686015460079096015494966001600160a01b0394851696909593949293919260ff80831693610100840490911692620100009004909116908a565b604080519a8b526001600160a01b03998a1660208c01528a01979097526060890195909552608088019390935260a0870191909152151560c0860152151560e085015290911661010083015261012082015261014001610198565b34801561050857600080fd5b5061015a6113fa565b34801561051d57600080fd5b5061015a61052c36600461177e565b6114ad565b3360009081526005602052604090205460ff166105695760405162461bcd60e51b8152600401610560906118a6565b60405180910390fd5b610571611523565b610579611569565b600083116105c95760405162461bcd60e51b815260206004820152601d60248201527f416d6f756e74206d7573742062652067726561746572207468616e20300000006044820152606401610560565b6000821180156105da575060648211155b6106365760405162461bcd60e51b815260206004820152602760248201527f496e7465726573742072617465206d757374206265206265747765656e2031206044820152660616e64203130360cc1b6064820152608401610560565b600081116106865760405162461bcd60e51b815260206004820152601f60248201527f4475726174696f6e206d7573742062652067726561746572207468616e2030006044820152606401610560565b60028054600091826106978361191a565b919050559050604051806101400160405280828152602001336001600160a01b0316815260200185815260200184815260200183815260200142815260200160011515815260200160001515815260200160006001600160a01b031681526020016000815250600360008381526020019081526020016000206000820151816000015560208201518160010160006101000a8154816001600160a01b0302191690836001600160a01b0316021790555060408201518160020155606082015181600301556080820151816004015560a0820151816005015560c08201518160060160006101000a81548160ff02191690831515021790555060e08201518160060160016101000a81548160ff0219169083151502179055506101008201518160060160026101000a8154816001600160a01b0302191690836001600160a01b03160217905550610120820151816007015590505060046000336001600160a01b03166001600160a01b03168152602001908152602001600020600101819080600181540180825580915050600190039060005260206000200160009091909190915055336001600160a01b0316817f9de2064cad69ef8141b960a6b33ed36921ec69d79cb142983f4b98a58095ffb5868686604051610889939291909283526020830191909152604082015260600190565b60405180910390a35061089c6001600055565b505050565b61090d6040518061014001604052806000815260200160006001600160a01b031681526020016000815260200160008152602001600081526020016000815260200160001515815260200160001515815260200160006001600160a01b03168152602001600081525090565b506000908152600360208181526040928390208351610140810185528154815260018201546001600160a01b039081169382019390935260028201549481019490945291820154606084015260048201546080840152600582015460a0840152600682015460ff808216151560c0860152610100808304909116151560e086015262010000909104909116908301526007015461012082015290565b3360009081526005602052604090205460ff1615610a095760405162461bcd60e51b815260206004820152601860248201527f57616c6c657420616c726561647920636f6e6e656374656400000000000000006044820152606401610560565b336000908152600560209081526040808320805460ff19166001179055600490915290205460ff16610a5057336000908152600460205260409020805460ff191660011790555b60405133907f1c072e5ba1f77c8500be2f4d3f2b949ba75c7b388393230124ca29b18b5b554f90600090a2565b610a856115c2565b610a8d611622565b565b3360009081526005602052604090205460ff16610ae55760405162461bcd60e51b815260206004820152601460248201527315d85b1b195d081b9bdd0818dbdb9b9958dd195960621b6044820152606401610560565b33600081815260056020526040808220805460ff19169055517ff39e69be143be787b159dec6a9654f66a1ba77f043b7249d8865aa10016275bc9190a2565b610b2c6115c2565b610a8d6000611674565b610b3e6115c2565b610a8d6116ce565b3360009081526005602052604090205460ff16610b755760405162461bcd60e51b8152600401610560906118a6565b600081815260036020526040812054829103610bd35760405162461bcd60e51b815260206004820152601b60248201527f4c6f616e207265717565737420646f6573206e6f7420657869737400000000006044820152606401610560565b600082815260036020526040902060060154829060ff16610c365760405162461bcd60e51b815260206004820152601a60248201527f4c6f616e2072657175657374206973206e6f74206163746976650000000000006044820152606401610560565b6000838152600360205260409020600601548390610100900460ff1615610c985760405162461bcd60e51b8152602060048201526016602482015275131bd85b881a5cc8185b1c9958591e48199d5b99195960521b6044820152606401610560565b610ca0611523565b610ca8611569565b600084815260036020526040902060018101546001600160a01b03163303610d125760405162461bcd60e51b815260206004820152601960248201527f43616e6e6f742066756e6420796f7572206f776e206c6f616e000000000000006044820152606401610560565b80600201543414610d655760405162461bcd60e51b815260206004820152601b60248201527f4d7573742073656e64206578616374206c6f616e20616d6f756e7400000000006044820152606401610560565b6006810180546201000033908102610100600160b01b0319909216919091176101001790915542600783015560008181526004602081815260408320600281810180546001810182559086529285209092018a905590850154938352018054909190610dd2908490611933565b9091555050600281015460018201546001600160a01b031660009081526004602052604081206003018054909190610e0b908490611933565b909155505060018101546040516000916001600160a01b03169034908381818185875af1925050503d8060008114610e5f576040519150601f19603f3d011682016040523d82523d6000602084013e610e64565b606091505b5050905080610eb55760405162461bcd60e51b815260206004820152601b60248201527f5472616e7366657220746f20626f72726f776572206661696c656400000000006044820152606401610560565b600182015460028301546040519081526001600160a01b0390911690339088907f31962dfcc960e802d8cb12e69128e6789a329952d8300113d776e53221bf44849060200160405180910390a45050610f0e6001600055565b50505050565b6001600160a01b038116600090815260046020908152604091829020600101805483518184028101840190945280845260609392830182828015610f7757602002820191906000526020600020905b815481526020019060010190808311610f63575b50505050509050919050565b6060600060015b600254811015610ff15760008181526003602052604090206006015460ff168015610fcc5750600081815260036020526040902060060154610100900460ff16155b15610fdf5781610fdb8161191a565b9250505b80610fe98161191a565b915050610f8a565b5060008167ffffffffffffffff81111561100d5761100d61194c565b604051908082528060200260200182016040528015611036578160200160208202803683370190505b509050600060015b6002548110156110c35760008181526003602052604090206006015460ff1680156110805750600081815260036020526040902060060154610100900460ff16155b156110b1578083838151811061109857611098611962565b6020908102919091010152816110ad8161191a565b9250505b806110bb8161191a565b91505061103e565b50909392505050565b60008181526003602052604090206001015481906001600160a01b031633146111495760405162461bcd60e51b815260206004820152602960248201527f4f6e6c792074686520626f72726f7765722063616e20706572666f726d20746860448201526834b99030b1ba34b7b760b91b6064820152608401610560565b6000828152600360205260408120548391036111a75760405162461bcd60e51b815260206004820152601b60248201527f4c6f616e207265717565737420646f6573206e6f7420657869737400000000006044820152606401610560565b6111af611523565b6111b7611569565b60008381526003602052604090206006810154610100900460ff166112135760405162461bcd60e51b8152602060048201526012602482015271131bd85b881a5cc81b9bdd08199d5b99195960721b6044820152606401610560565b600060648260030154836002015461122b9190611978565b611235919061198f565b82600201546112449190611933565b90508034146112955760405162461bcd60e51b815260206004820181905260248201527f4d7573742073656e642065786163742072657061796d656e7420616d6f756e746044820152606401610560565b60068201805460ff1916908190556040516000916201000090046001600160a01b03169034908381818185875af1925050503d80600081146112f3576040519150601f19603f3d011682016040523d82523d6000602084013e6112f8565b606091505b50509050806113495760405162461bcd60e51b815260206004820152601960248201527f5472616e7366657220746f206c656e646572206661696c6564000000000000006044820152606401610560565b604051828152339087907f512d3e65b3e58c2187bb1872aa435dba5bd09c1c03823ba56ab70aac411e4a219060200160405180910390a350505061089c6001600055565b6001600160a01b038116600090815260046020908152604091829020600201805483518184028101840190945280845260609392830182828015610f775760200282019190600052602060002090815481526020019060010190808311610f635750505050509050919050565b6114026115c2565b60015460405160009161010090046001600160a01b03169047908381818185875af1925050503d8060008114611454576040519150601f19603f3d011682016040523d82523d6000602084013e611459565b606091505b50509050806114aa5760405162461bcd60e51b815260206004820152601b60248201527f456d657267656e6379207769746864726177616c206661696c656400000000006044820152606401610560565b50565b6114b56115c2565b6001600160a01b03811661151a5760405162461bcd60e51b815260206004820152602660248201527f4f776e61626c653a206e6577206f776e657220697320746865207a65726f206160448201526564647265737360d01b6064820152608401610560565b6114aa81611674565b60015460ff1615610a8d5760405162461bcd60e51b815260206004820152601060248201526f14185d5cd8589b194e881c185d5cd95960821b6044820152606401610560565b6002600054036115bb5760405162461bcd60e51b815260206004820152601f60248201527f5265656e7472616e637947756172643a207265656e7472616e742063616c6c006044820152606401610560565b6002600055565b6001546001600160a01b03610100909104163314610a8d5760405162461bcd60e51b815260206004820181905260248201527f4f776e61626c653a2063616c6c6572206973206e6f7420746865206f776e65726044820152606401610560565b61162a611709565b6001805460ff191690557f5db9ee0a495bf2e6ff9c91a7834c1ba4fdd244a5e8aa4e537bd38aeae4b073aa335b6040516001600160a01b03909116815260200160405180910390a1565b600180546001600160a01b03838116610100818102610100600160a81b031985161790945560405193909204169182907f8be0079c531659141344cd1fd0a4f28419497f9722a3daafe3b4186f6b6457e090600090a35050565b6116d6611523565b6001805460ff1916811790557f62e78cea01bee320cd4e420270b5ea74000d11b0c9f74754ebdbfc544b05a25833611657565b60015460ff16610a8d5760405162461bcd60e51b815260206004820152601460248201527314185d5cd8589b194e881b9bdd081c185d5cd95960621b6044820152606401610560565b60008060006060848603121561176757600080fd5b505081359360208301359350604090920135919050565b60006020828403121561179057600080fd5b81356001600160a01b03811681146117a757600080fd5b9392505050565b6000602082840312156117c057600080fd5b5035919050565b815181526020808301516101408301916117eb908401826001600160a01b03169052565b5060408301516040830152606083015160608301526080830151608083015260a083015160a083015260c083015161182760c084018215159052565b5060e083015161183b60e084018215159052565b50610100838101516001600160a01b03811684830152505061012092830151919092015290565b6020808252825182820181905260009190848201906040850190845b8181101561189a5783518352928401929184019160010161187e565b50909695505050505050565b602080825260409082018190527f57616c6c6574206e6f7420636f6e6e65637465642e20506c6561736520636f6e908201527f6e65637420796f7572204d6574614d61736b2077616c6c65742066697273742e606082015260800190565b634e487b7160e01b600052601160045260246000fd5b60006001820161192c5761192c611904565b5060010190565b8082018082111561194657611946611904565b92915050565b634e487b7160e01b600052604160045260246000fd5b634e487b7160e01b600052603260045260246000fd5b808202811582820484141761194657611946611904565b6000826119ac57634e487b7160e01b600052601260045260246000fd5b50049056fea26469706673582212203ce0e0720dad2f137937a13571650fbf0b207a72c2fc00b51c9ed05642bd5e5264736f6c63430008140033",
  "linkReferences": {},
  "deployedLinkReferences": {}
}