{
  "_format": "hh-sol-artifact-1",
  "contractName": "FinBridgeLending",
  "sourceName": "contracts/FinBridgeLending.sol",
  "abi": [
    {
      "anonymous": false,
      "inputs": [
        {
          "indexed": true,
          "internalType": "uint256",
          "name": "loanId",
          "type": "uint256"
        },
        {
          "indexed": true,
          "internalType": "address",
          "name": "lender",
          "type": "address"
        },
        {
          "indexed": true,
          "internalType": "address",
          "name": "borrower",
          "type": "address"
        },
        {
          "indexed": false,
          "internalType": "uint256",
          "name": "amount",
          "type": "uint256"
        }
      ],
      "name": "LoanFunded",
      "type": "event"
    },
    {
      "anonymous": false,
      "inputs": [
        {
          "indexed": true,
          "internalType": "uint256",
          "name": "loanId",
          "type": "uint256"
        },
        {
          "indexed": true,
          "internalType": "address",
          "name": "borrower",
          "type": "address"
        },
        {
          "indexed": false,
          "internalType": "uint256",
          "name": "amount",
          "type": "uint256"
        }
      ],
      "name": "LoanRepaid",
      "type": "event"
    },
    {
      "anonymous": false,
      "inputs": [
        {
          "indexed": true,
          "internalType": "uint256",
          "name": "loanId",
          "type": "uint256"
        },
        {
          "indexed": true,
          "internalType": "address",
          "name": "borrower",
          "type": "address"
        },
        {
          "indexed": false,
          "internalType": "uint256",
          "name": "amount",
          "type": "uint256"
        },
        {
          "indexed": false,
          "internalType": "uint256",
          "name": "interestRate",
          "type": "uint256"
        },
        {
          "indexed": false,
          "internalType": "uint256",
          "name": "duration",
          "type": "uint256"
        }
      ],
      "name": "LoanRequestCreated",
      "type": "event"
    },
    {
      "anonymous": false,
      "inputs": [
        {
          "indexed": true,
          "internalType": "uint256",
          "name": "loanId",
          "type": "uint256"
        },
        {
          "indexed": true,
          "internalType": "address",
          "name": "borrower",
          "type": "address"
        }
      ],
      "name": "LoanRequestWithdrawn",
      "type": "event"
    },
    {
      "anonymous": false,
      "inputs": [
        {
          "indexed": true,
          "internalType": "address",
          "name": "previousOwner",
          "type": "address"
        },
        {
          "indexed": true,
          "internalType": "address",
          "name": "newOwner",
          "type": "address"
        }
      ],
      "name": "OwnershipTransferred",
      "type": "event"
    },
    {
      "anonymous": false,
      "inputs": [
        {
          "indexed": false,
          "internalType": "address",
          "name": "account",
          "type": "address"
        }
      ],
      "name": "Paused",
      "type": "event"
    },
    {
      "anonymous": false,
      "inputs": [
        {
          "indexed": false,
          "internalType": "address",
          "name": "account",
          "type": "address"
        }
      ],
      "name": "Unpaused",
      "type": "event"
    },
    {
      "anonymous": false,
      "inputs": [
        {
          "indexed": true,
          "internalType": "address",
          "name": "user",
          "type": "address"
        }
      ],
      "name": "WalletConnected",
      "type": "event"
    },
    {
      "anonymous": false,
      "inputs": [
        {
          "indexed": true,
          "internalType": "address",
          "name": "user",
          "type": "address"
        }
      ],
      "name": "WalletDisconnected",
      "type": "event"
    },
    {
      "inputs": [],
      "name": "connectWallet",
      "outputs": [],
      "stateMutability": "nonpayable",
      "type": "function"
    },
    {
      "inputs": [
        {
          "internalType": "address",
          "name": "",
          "type": "address"
        }
      ],
      "name": "connectedWallets",
      "outputs": [
        {
          "internalType": "bool",
          "name": "",
          "type": "bool"
        }
      ],
      "stateMutability": "view",
      "type": "function"
    },
    {
      "inputs": [
        {
          "internalType": "uint256",
          "name": "amount",
          "type": "uint256"
        },
        {
          "internalType": "uint256",
          "name": "interestRate",
          "type": "uint256"
        },
        {
          "internalType": "uint256",
          "name": "duration",
          "type": "uint256"
        }
      ],
      "name": "createLoanRequest",
      "outputs": [],
      "stateMutability": "nonpayable",
      "type": "function"
    },
    {
      "inputs": [],
      "name": "disconnectWallet",
      "outputs": [],
      "stateMutability": "nonpayable",
      "type": "function"
    },
    {
      "inputs": [],
      "name": "emergencyWithdraw",
      "outputs": [],
      "stateMutability": "nonpayable",
      "type": "function"
    },
    {
      "inputs": [
        {
          "internalType": "uint256",
          "name": "loanId",
          "type": "uint256"
        }
      ],
      "name": "fundLoan",
      "outputs": [],
      "stateMutability": "payable",
      "type": "function"
    },
    {
      "inputs": [],
      "name": "getActiveLoanRequests",
      "outputs": [
        {
          "internalType": "uint256[]",
          "name": "",
          "type": "uint256[]"
        }
      ],
      "stateMutability": "view",
      "type": "function"
    },
    {
      "inputs": [
        {
          "internalType": "uint256",
          "name": "loanId",
          "type": "uint256"
        }
      ],
      "name": "getLoanRequest",
      "outputs": [
        {
          "components": [
            {
              "internalType": "uint256",
              "name": "id",
              "type": "uint256"
            },
            {
              "internalType": "address",
              "name": "borrower",
              "type": "address"
            },
            {
              "internalType": "uint256",
              "name": "amount",
              "type": "uint256"
            },
            {
              "internalType": "uint256",
              "name": "interestRate",
              "type": "uint256"
            },
            {
              "internalType": "uint256",
              "name": "duration",
              "type": "uint256"
            },
            {
              "internalType": "uint256",
              "name": "timestamp",
              "type": "uint256"
            },
            {
              "internalType": "bool",
              "name": "isActive",
              "type": "bool"
            },
            {
              "internalType": "bool",
              "name": "isFunded",
              "type": "bool"
            },
            {
              "internalType": "address",
              "name": "lender",
              "type": "address"
            },
            {
              "internalType": "uint256",
              "name": "fundedAt",
              "type": "uint256"
            }
          ],
          "internalType": "struct FinBridgeLending.LoanRequest",
          "name": "",
          "type": "tuple"
        }
      ],
      "stateMutability": "view",
      "type": "function"
    },
    {
      "inputs": [
        {
          "internalType": "address",
          "name": "user",
          "type": "address"
        }
      ],
      "name": "getUserFundedLoans",
      "outputs": [
        {
          "internalType": "uint256[]",
          "name": "",
          "type": "uint256[]"
        }
      ],
      "stateMutability": "view",
      "type": "function"
    },
    {
      "inputs": [
        {
          "internalType": "address",
          "name": "user",
          "type": "address"
        }
      ],
      "name": "getUserLoanRequests",
      "outputs": [
        {
          "internalType": "uint256[]",
          "name": "",
          "type": "uint256[]"
        }
      ],
      "stateMutability": "view",
      "type": "function"
    },
    {
      "inputs": [
        {
          "internalType": "address",
          "name": "user",
          "type": "address"
        }
      ],
      "name": "getUserStats",
      "outputs": [
        {
          "internalType": "uint256",
          "name": "totalBorrowed",
          "type": "uint256"
        },
        {
          "internalType": "uint256",
          "name": "totalLent",
          "type": "uint256"
        }
      ],
      "stateMutability": "view",
      "type": "function"
    },
    {
      "inputs": [
        {
          "internalType": "address",
          "name": "user",
          "type": "address"
        }
      ],
      "name": "isWalletConnected",
      "outputs": [
        {
          "internalType": "bool",
          "name": "",
          "type": "bool"
        }
      ],
      "stateMutability": "view",
      "type": "function"
    },
    {
      "inputs": [
        {
          "internalType": "uint256",
          "name": "",
          "type": "uint256"
        }
      ],
      "name": "loanRequests",
      "outputs": [
        {
          "internalType": "uint256",
          "name": "id",
          "type": "uint256"
        },
        {
          "internalType": "address",
          "name": "borrower",
          "type": "address"
        },
        {
          "internalType": "uint256",
          "name": "amount",
          "type": "uint256"
        },
        {
          "internalType": "uint256",
          "name": "interestRate",
          "type": "uint256"
        },
        {
          "internalType": "uint256",
          "name": "duration",
          "type": "uint256"
        },
        {
          "internalType": "uint256",
          "name": "timestamp",
          "type": "uint256"
        },
        {
          "internalType": "bool",
          "name": "isActive",
          "type": "bool"
        },
        {
          "internalType": "bool",
          "name": "isFunded",
          "type": "bool"
        },
        {
          "internalType": "address",
          "name": "lender",
          "type": "address"
        },
        {
          "internalType": "uint256",
          "name": "fundedAt",
          "type": "uint256"
        }
      ],
      "stateMutability": "view",
      "type": "function"
    },
    {
      "inputs": [],
      "name": "nextLoanId",
      "outputs": [
        {
          "internalType": "uint256",
          "name": "",
          "type": "uint256"
        }
      ],
      "stateMutability": "view",
      "type": "function"
    },
    {
      "inputs": [],
      "name": "owner",
      "outputs": [
        {
          "internalType": "address",
          "name": "",
          "type": "address"
        }
      ],
      "stateMutability": "view",
      "type": "function"
    },
    {
      "inputs": [],
      "name": "pause",
      "outputs": [],
      "stateMutability": "nonpayable",
      "type": "function"
    },
    {
      "inputs": [],
      "name": "paused",
      "outputs": [
        {
          "internalType": "bool",
          "name": "",
          "type": "bool"
        }
      ],
      "stateMutability": "view",
      "type": "function"
    },
    {
      "inputs": [],
      "name": "renounceOwnership",
      "outputs": [],
      "stateMutability": "nonpayable",
      "type": "function"
    },
    {
      "inputs": [
        {
          "internalType": "uint256",
          "name": "loanId",
          "type": "uint256"
        }
      ],
      "name": "repayLoan",
      "outputs": [],
      "stateMutability": "payable",
      "type": "function"
    },
    {
      "inputs": [
        {
          "internalType": "address",
          "name": "newOwner",
          "type": "address"
        }
      ],
      "name": "transferOwnership",
      "outputs": [],
      "stateMutability": "nonpayable",
      "type": "function"
    },
    {
      "inputs": [],
      "name": "unpause",
      "outputs": [],
      "stateMutability": "nonpayable",
      "type": "function"
    },
    {
      "inputs": [
        {
          "internalType": "address",
          "name": "",
          "type": "address"
        }
      ],
      "name": "users",
      "outputs": [
        {
          "internalType": "bool",
          "name": "isRegistered",
          "type": "bool"
        },
        {
          "internalType": "uint256",
          "name": "totalBorrowed",
          "type": "uint256"
        },
        {
          "internalType": "uint256",
          "name": "totalLent",
          "type": "uint256"
        }
      ],
      "stateMutability": "view",
      "type": "function"
    },
    {
      "inputs": [
        {
          "internalType": "uint256",
          "name": "loanId",
          "type": "uint256"
        }
      ],
      "name": "withdrawLoanRequest",
      "outputs": [],
      "stateMutability": "nonpayable",
      "type": "function"
    }
  ],
  "bytecode": "0x6080604052600160025534801561001557600080fd5b5060016000819055805460ff1916905561002e33610033565b61008d565b600180546001600160a01b03838116610100818102610100600160a81b031985161790945560405193909204169182907f8be0079c531659141344cd1fd0a4f28419497f9722a3daafe3b4186f6b6457e090600090a35050565b611b868061009c6000396000f3fe6080604052600436106101405760003560e01c80638456cb59116100b6578063a87430ba1161006f578063a87430ba146103b8578063ab7b1c8914610416578063c125958e14610429578063d1b332f414610449578063db2e21bc14610527578063f2fde38b1461053c57600080fd5b80638456cb59146102f4578063846b909a1461030957806387c514591461031c57806388ae545c146103405780638da5cb5b1461036d5780639772d7ee146103a357600080fd5b80634e43603a116101085780634e43603a146102035780635c975abb1461025957806363e680ae14610271578063714e839514610286578063715018a6146102a657806378961f94146102bb57600080fd5b80631443e4e714610145578063184009b0146101675780631b3b8671146101ac5780632d66f063146101d95780633f4ba83a146101ee575b600080fd5b34801561015157600080fd5b50610165610160366004611871565b61055c565b005b34801561017357600080fd5b5061019761018236600461189d565b60056020526000908152604090205460ff1681565b60405190151581526020015b60405180910390f35b3480156101b857600080fd5b506101cc6101c73660046118cd565b6108cc565b6040516101a391906118e6565b3480156101e557600080fd5b506101656109d4565b3480156101fa57600080fd5b50610165610aa8565b34801561020f57600080fd5b5061024461021e36600461189d565b6001600160a01b0316600090815260046020819052604090912060038101549101549091565b604080519283526020830191909152016101a3565b34801561026557600080fd5b5060015460ff16610197565b34801561027d57600080fd5b50610165610aba565b34801561029257600080fd5b506101656102a13660046118cd565b610b4f565b3480156102b257600080fd5b50610165610ce5565b3480156102c757600080fd5b506101976102d636600461189d565b6001600160a01b031660009081526005602052604090205460ff1690565b34801561030057600080fd5b50610165610cf7565b6101656103173660046118cd565b610d07565b34801561032857600080fd5b5061033260025481565b6040519081526020016101a3565b34801561034c57600080fd5b5061036061035b36600461189d565b6110a5565b6040516101a39190611981565b34801561037957600080fd5b5060015461010090046001600160a01b03166040516001600160a01b0390911681526020016101a3565b3480156103af57600080fd5b50610360611114565b3480156103c457600080fd5b506103f96103d336600461189d565b600460208190526000918252604090912080546003820154919092015460ff9092169183565b6040805193151584526020840192909252908201526060016101a3565b6101656104243660046118cd565b61125d565b34801561043557600080fd5b5061036061044436600461189d565b6114ac565b34801561045557600080fd5b506104cc6104643660046118cd565b60036020819052600091825260409091208054600182015460028301549383015460048401546005850154600686015460079096015494966001600160a01b0394851696909593949293919260ff80831693610100840490911692620100009004909116908a565b604080519a8b526001600160a01b03998a1660208c01528a01979097526060890195909552608088019390935260a0870191909152151560c0860152151560e0850152909116610100830152610120820152610140016101a3565b34801561053357600080fd5b50610165611519565b34801561054857600080fd5b5061016561055736600461189d565b6115cc565b3360009081526005602052604090205460ff166105945760405162461bcd60e51b815260040161058b906119c5565b60405180910390fd5b61059c611642565b6105a4611688565b600083116105f45760405162461bcd60e51b815260206004820152601d60248201527f416d6f756e74206d7573742062652067726561746572207468616e2030000000604482015260640161058b565b600082118015610605575060648211155b6106615760405162461bcd60e51b815260206004820152602760248201527f496e7465726573742072617465206d757374206265206265747765656e2031206044820152660616e64203130360cc1b606482015260840161058b565b600081116106b15760405162461bcd60e51b815260206004820152601f60248201527f4475726174696f6e206d7573742062652067726561746572207468616e203000604482015260640161058b565b60028054600091826106c283611a39565b919050559050604051806101400160405280828152602001336001600160a01b0316815260200185815260200184815260200183815260200142815260200160011515815260200160001515815260200160006001600160a01b031681526020016000815250600360008381526020019081526020016000206000820151816000015560208201518160010160006101000a8154816001600160a01b0302191690836001600160a01b0316021790555060408201518160020155606082015181600301556080820151816004015560a0820151816005015560c08201518160060160006101000a81548160ff02191690831515021790555060e08201518160060160016101000a81548160ff0219169083151502179055506101008201518160060160026101000a8154816001600160a01b0302191690836001600160a01b03160217905550610120820151816007015590505060046000336001600160a01b03166001600160a01b03168152602001908152602001600020600101819080600181540180825580915050600190039060005260206000200160009091909190915055336001600160a01b0316817f9de2064cad69ef8141b960a6b33ed36921ec69d79cb142983f4b98a58095ffb58686866040516108b4939291909283526020830191909152604082015260600190565b60405180910390a3506108c76001600055565b505050565b6109386040518061014001604052806000815260200160006001600160a01b031681526020016000815260200160008152602001600081526020016000815260200160001515815260200160001515815260200160006001600160a01b03168152602001600081525090565b506000908152600360208181526040928390208351610140810185528154815260018201546001600160a01b039081169382019390935260028201549481019490945291820154606084015260048201546080840152600582015460a0840152600682015460ff808216151560c0860152610100808304909116151560e086015262010000909104909116908301526007015461012082015290565b3360009081526005602052604090205460ff1615610a345760405162461bcd60e51b815260206004820152601860248201527f57616c6c657420616c726561647920636f6e6e65637465640000000000000000604482015260640161058b565b336000908152600560209081526040808320805460ff19166001179055600490915290205460ff16610a7b57336000908152600460205260409020805460ff191660011790555b60405133907f1c072e5ba1f77c8500be2f4d3f2b949ba75c7b388393230124ca29b18b5b554f90600090a2565b610ab06116e1565b610ab8611741565b565b3360009081526005602052604090205460ff16610b105760405162461bcd60e51b815260206004820152601460248201527315d85b1b195d081b9bdd0818dbdb9b9958dd195960621b604482015260640161058b565b33600081815260056020526040808220805460ff19169055517ff39e69be143be787b159dec6a9654f66a1ba77f043b7249d8865aa10016275bc9190a2565b60008181526003602052604090206001015481906001600160a01b03163314610b8a5760405162461bcd60e51b815260040161058b90611a52565b600082815260036020526040812054839103610bb85760405162461bcd60e51b815260040161058b90611a9b565b600083815260036020526040902060060154839060ff16610c1b5760405162461bcd60e51b815260206004820152601a60248201527f4c6f616e2072657175657374206973206e6f7420616374697665000000000000604482015260640161058b565b6000848152600360205260409020600601548490610100900460ff1615610c7d5760405162461bcd60e51b8152602060048201526016602482015275131bd85b881a5cc8185b1c9958591e48199d5b99195960521b604482015260640161058b565b610c85611642565b610c8d611688565b60008581526003602052604080822060068101805460ff1916905590519091339188917fdbf354ec74f7d7a19e29856dc9f7387ad7a3e7f226aa570470cb65fcc68f972991a350610cde6001600055565b5050505050565b610ced6116e1565b610ab86000611793565b610cff6116e1565b610ab86117ed565b3360009081526005602052604090205460ff16610d365760405162461bcd60e51b815260040161058b906119c5565b600081815260036020526040812054829103610d645760405162461bcd60e51b815260040161058b90611a9b565b600082815260036020526040902060060154829060ff16610dc75760405162461bcd60e51b815260206004820152601a60248201527f4c6f616e2072657175657374206973206e6f7420616374697665000000000000604482015260640161058b565b6000838152600360205260409020600601548390610100900460ff1615610e295760405162461bcd60e51b8152602060048201526016602482015275131bd85b881a5cc8185b1c9958591e48199d5b99195960521b604482015260640161058b565b610e31611642565b610e39611688565b600084815260036020526040902060018101546001600160a01b03163303610ea35760405162461bcd60e51b815260206004820152601960248201527f43616e6e6f742066756e6420796f7572206f776e206c6f616e00000000000000604482015260640161058b565b80600201543414610ef65760405162461bcd60e51b815260206004820152601b60248201527f4d7573742073656e64206578616374206c6f616e20616d6f756e740000000000604482015260640161058b565b6006810180546201000033908102610100600160b01b0319909216919091176101001790915542600783015560008181526004602081815260408320600281810180546001810182559086529285209092018a905590850154938352018054909190610f63908490611ad2565b9091555050600281015460018201546001600160a01b031660009081526004602052604081206003018054909190610f9c908490611ad2565b909155505060018101546040516000916001600160a01b03169034908381818185875af1925050503d8060008114610ff0576040519150601f19603f3d011682016040523d82523d6000602084013e610ff5565b606091505b50509050806110465760405162461bcd60e51b815260206004820152601b60248201527f5472616e7366657220746f20626f72726f776572206661696c65640000000000604482015260640161058b565b600182015460028301546040519081526001600160a01b0390911690339088907f31962dfcc960e802d8cb12e69128e6789a329952d8300113d776e53221bf44849060200160405180910390a4505061109f6001600055565b50505050565b6001600160a01b03811660009081526004602090815260409182902060010180548351818402810184019094528084526060939283018282801561110857602002820191906000526020600020905b8154815260200190600101908083116110f4575b50505050509050919050565b6060600060015b6002548110156111825760008181526003602052604090206006015460ff16801561115d5750600081815260036020526040902060060154610100900460ff16155b15611170578161116c81611a39565b9250505b8061117a81611a39565b91505061111b565b5060008167ffffffffffffffff81111561119e5761119e611aeb565b6040519080825280602002602001820160405280156111c7578160200160208202803683370190505b509050600060015b6002548110156112545760008181526003602052604090206006015460ff1680156112115750600081815260036020526040902060060154610100900460ff16155b15611242578083838151811061122957611229611b01565b60209081029190910101528161123e81611a39565b9250505b8061124c81611a39565b9150506111cf565b50909392505050565b60008181526003602052604090206001015481906001600160a01b031633146112985760405162461bcd60e51b815260040161058b90611a52565b6000828152600360205260408120548391036112c65760405162461bcd60e51b815260040161058b90611a9b565b6112ce611642565b6112d6611688565b60008381526003602052604090206006810154610100900460ff166113325760405162461bcd60e51b8152602060048201526012602482015271131bd85b881a5cc81b9bdd08199d5b99195960721b604482015260640161058b565b600060648260030154836002015461134a9190611b17565b6113549190611b2e565b82600201546113639190611ad2565b90508034146113b45760405162461bcd60e51b815260206004820181905260248201527f4d7573742073656e642065786163742072657061796d656e7420616d6f756e74604482015260640161058b565b60068201805460ff1916908190556040516000916201000090046001600160a01b03169034908381818185875af1925050503d8060008114611412576040519150601f19603f3d011682016040523d82523d6000602084013e611417565b606091505b50509050806114685760405162461bcd60e51b815260206004820152601960248201527f5472616e7366657220746f206c656e646572206661696c656400000000000000604482015260640161058b565b604051828152339087907f512d3e65b3e58c2187bb1872aa435dba5bd09c1c03823ba56ab70aac411e4a219060200160405180910390a35050506108c76001600055565b6001600160a01b03811660009081526004602090815260409182902060020180548351818402810184019094528084526060939283018282801561110857602002820191906000526020600020908154815260200190600101908083116110f45750505050509050919050565b6115216116e1565b60015460405160009161010090046001600160a01b03169047908381818185875af1925050503d8060008114611573576040519150601f19603f3d011682016040523d82523d6000602084013e611578565b606091505b50509050806115c95760405162461bcd60e51b815260206004820152601b60248201527f456d657267656e6379207769746864726177616c206661696c65640000000000604482015260640161058b565b50565b6115d46116e1565b6001600160a01b0381166116395760405162461bcd60e51b815260206004820152602660248201527f4f776e61626c653a206e6577206f776e657220697320746865207a65726f206160448201526564647265737360d01b606482015260840161058b565b6115c981611793565b60015460ff1615610ab85760405162461bcd60e51b815260206004820152601060248201526f14185d5cd8589b194e881c185d5cd95960821b604482015260640161058b565b6002600054036116da5760405162461bcd60e51b815260206004820152601f60248201527f5265656e7472616e637947756172643a207265656e7472616e742063616c6c00604482015260640161058b565b6002600055565b6001546001600160a01b03610100909104163314610ab85760405162461bcd60e51b815260206004820181905260248201527f4f776e61626c653a2063616c6c6572206973206e6f7420746865206f776e6572604482015260640161058b565b611749611828565b6001805460ff191690557f5db9ee0a495bf2e6ff9c91a7834c1ba4fdd244a5e8aa4e537bd38aeae4b073aa335b6040516001600160a01b03909116815260200160405180910390a1565b600180546001600160a01b03838116610100818102610100600160a81b031985161790945560405193909204169182907f8be0079c531659141344cd1fd0a4f28419497f9722a3daafe3b4186f6b6457e090600090a35050565b6117f5611642565b6001805460ff1916811790557f62e78cea01bee320cd4e420270b5ea74000d11b0c9f74754ebdbfc544b05a25833611776565b60015460ff16610ab85760405162461bcd60e51b815260206004820152601460248201527314185d5cd8589b194e881b9bdd081c185d5cd95960621b604482015260640161058b565b60008060006060848603121561188657600080fd5b505081359360208301359350604090920135919050565b6000602082840312156118af57600080fd5b81356001600160a01b03811681146118c657600080fd5b9392505050565b6000602082840312156118df57600080fd5b5035919050565b8151815260208083015161014083019161190a908401826001600160a01b03169052565b5060408301516040830152606083015160608301526080830151608083015260a083015160a083015260c083015161194660c084018215159052565b5060e083015161195a60e084018215159052565b50610100838101516001600160a01b03811684830152505061012092830151919092015290565b6020808252825182820181905260009190848201906040850190845b818110156119b95783518352928401929184019160010161199d565b50909695505050505050565b602080825260409082018190527f57616c6c6574206e6f7420636f6e6e65637465642e20506c6561736520636f6e908201527f6e65637420796f7572204d6574614d61736b2077616c6c65742066697273742e606082015260800190565b634e487b7160e01b600052601160045260246000fd5b600060018201611a4b57611a4b611a23565b5060010190565b60208082526029908201527f4f6e6c792074686520626f72726f7765722063616e20706572666f726d20746860408201526834b99030b1ba34b7b760b91b606082015260800190565b6020808252601b908201527f4c6f616e207265717565737420646f6573206e6f742065786973740000000000604082015260600190565b80820180821115611ae557611ae5611a23565b92915050565b634e487b7160e01b600052604160045260246000fd5b634e487b7160e01b600052603260045260246000fd5b8082028115828204841417611ae557611ae5611a23565b600082611b4b57634e487b7160e01b600052601260045260246000fd5b50049056fea2646970667358221220ab72468c902b221e7e710796f76401eedb5e1c7952cd818f94b793cdc42853ae64736f6c63430008140033",
  "linkReferences": {},
  "deployedLinkReferences": {}
}