{"contracts/FinBridgeAnalytics.sol":{"FinBridgeAnalytics":{"abi":[{"inputs":[],"stateMutability":"nonpayable","type":"constructor"},{"anonymous":false,"inputs":[{"indexed":false,"internalType":"uint256","name":"date","type":"uint256"},{"indexed":false,"internalType":"uint256","name":"newLoans","type":"uint256"},{"indexed":false,"internalType":"uint256","name":"totalVolume","type":"uint256"}],"name":"DailyStatsRecorded","type":"event"},{"anonymous":false,"inputs":[{"indexed":false,"internalType":"uint256","name":"totalLoans","type":"uint256"},{"indexed":false,"internalType":"uint256","name":"totalVolume","type":"uint256"},{"indexed":false,"internalType":"uint256","name":"activeUsers","type":"uint256"}],"name":"MetricsUpdated","type":"event"},{"anonymous":false,"inputs":[{"indexed":true,"internalType":"address","name":"previousOwner","type":"address"},{"indexed":true,"internalType":"address","name":"newOwner","type":"address"}],"name":"OwnershipTransferred","type":"event"},{"inputs":[],"name":"SECONDS_PER_DAY","outputs":[{"internalType":"uint256","name":"","type":"uint256"}],"stateMutability":"view","type":"function"},{"inputs":[{"internalType":"uint256","name":"","type":"uint256"}],"name":"dailyStats","outputs":[{"internalType":"uint256","name":"date","type":"uint256"},{"internalType":"uint256","name":"newLoans","type":"uint256"},{"internalType":"uint256","name":"totalVolume","type":"uint256"},{"internalType":"uint256","name":"newUsers","type":"uint256"},{"internalType":"uint256","name":"activeLoans","type":"uint256"}],"stateMutability":"view","type":"function"},{"inputs":[{"internalType":"uint256","name":"date","type":"uint256"}],"name":"getDailyStats","outputs":[{"components":[{"internalType":"uint256","name":"date","type":"uint256"},{"internalType":"uint256","name":"newLoans","type":"uint256"},{"internalType":"uint256","name":"totalVolume","type":"uint256"},{"internalType":"uint256","name":"newUsers","type":"uint256"},{"internalType":"uint256","name":"activeLoans","type":"uint256"}],"internalType":"struct FinBridgeAnalytics.DailyStats","name":"","type":"tuple"}],"stateMutability":"view","type":"function"},{"inputs":[],"name":"getMetrics","outputs":[{"components":[{"internalType":"uint256","name":"totalLoansCreated","type":"uint256"},{"internalType":"uint256","name":"totalAmountBorrowed","type":"uint256"},{"internalType":"uint256","name":"totalAmountLent","type":"uint256"},{"internalType":"uint256","name":"activeUsers","type":"uint256"},{"internalType":"uint256","name":"totalInterestPaid","type":"uint256"},{"internalType":"uint256","name":"averageLoanAmount","type":"uint256"},{"internalType":"uint256","name":"averageLoanDuration","type":"uint256"},{"internalType":"uint256","name":"platformRevenue","type":"uint256"},{"internalType":"uint256","name":"lastUpdated","type":"uint256"}],"internalType":"struct FinBridgeAnalytics.PlatformMetrics","name":"","type":"tuple"}],"stateMutability":"view","type":"function"},{"inputs":[{"internalType":"address","name":"user","type":"address"}],"name":"getUserStats","outputs":[{"internalType":"uint256","name":"firstLoan","type":"uint256"},{"internalType":"uint256","name":"lastActivity","type":"uint256"}],"stateMutability":"view","type":"function"},{"inputs":[],"name":"metrics","outputs":[{"internalType":"uint256","name":"totalLoansCreated","type":"uint256"},{"internalType":"uint256","name":"totalAmountBorrowed","type":"uint256"},{"internalType":"uint256","name":"totalAmountLent","type":"uint256"},{"internalType":"uint256","name":"activeUsers","type":"uint256"},{"internalType":"uint256","name":"totalInterestPaid","type":"uint256"},{"internalType":"uint256","name":"averageLoanAmount","type":"uint256"},{"internalType":"uint256","name":"averageLoanDuration","type":"uint256"},{"internalType":"uint256","name":"platformRevenue","type":"uint256"},{"internalType":"uint256","name":"lastUpdated","type":"uint256"}],"stateMutability":"view","type":"function"},{"inputs":[],"name":"owner","outputs":[{"internalType":"address","name":"","type":"address"}],"stateMutability":"view","type":"function"},{"inputs":[{"internalType":"uint256","name":"interestAmount","type":"uint256"}],"name":"recordInterestPayment","outputs":[],"stateMutability":"nonpayable","type":"function"},{"inputs":[{"internalType":"uint256","name":"amount","type":"uint256"},{"internalType":"address","name":"borrower","type":"address"}],"name":"recordLoanCreation","outputs":[],"stateMutability":"nonpayable","type":"function"},{"inputs":[{"internalType":"uint256","name":"amount","type":"uint256"},{"internalType":"address","name":"lender","type":"address"}],"name":"recordLoanFunding","outputs":[],"stateMutability":"nonpayable","type":"function"},{"inputs":[],"name":"renounceOwnership","outputs":[],"stateMutability":"nonpayable","type":"function"},{"inputs":[{"internalType":"address","name":"newOwner","type":"address"}],"name":"transferOwnership","outputs":[],"stateMutability":"nonpayable","type":"function"},{"inputs":[{"internalType":"address","name":"","type":"address"}],"name":"userFirstLoan","outputs":[{"internalType":"uint256","name":"","type":"uint256"}],"stateMutability":"view","type":"function"},{"inputs":[{"internalType":"address","name":"","type":"address"}],"name":"userLastActivity","outputs":[{"internalType":"uint256","name":"","type":"uint256"}],"stateMutability":"view","type":"function"}],"evm":{"bytecode":{"linkReferences":{},"object":"608060405234801561001057600080fd5b50600160005561001f3361009a565b6040805161012081018252600080825260208201819052918101829052606081018290526080810182905260a0810182905260c0810182905260e08101829052426101009091018190526002829055600382905560048290556005829055600682905560078290556008829055600991909155600a556100ec565b600180546001600160a01b038381166001600160a01b0319831681179093556040519116919082907f8be0079c531659141344cd1fd0a4f28419497f9722a3daafe3b4186f6b6457e090600090a35050565b610a6e806100fb6000396000f3fe608060405234801561001057600080fd5b50600436106100ea5760003560e01c806374f0314f1161008c5780638da5cb5b116100665780638da5cb5b146102b4578063a04748f6146102cf578063e2f800d71461033d578063f2fde38b1461039257600080fd5b806374f0314f146102155780637606f7811461021f57806377ce29921461029457600080fd5b806346271d10116100c857806346271d101461019c5780634e43603a146101af57806367715c27146101fa578063715018a61461020d57600080fd5b80631f794f3e146100ef578063287deab1146101045780632c489aec14610137575b600080fd5b6101026100fd366004610950565b6103a5565b005b61012461011236600461097c565b600c6020526000908152604090205481565b6040519081526020015b60405180910390f35b61017461014536600461099e565b600b60205260009081526040902080546001820154600283015460038401546004909401549293919290919085565b604080519586526020860194909452928401919091526060830152608082015260a00161012e565b6101026101aa366004610950565b6103ef565b6101e56101bd36600461097c565b6001600160a01b03166000908152600c6020908152604080832054600d909252909120549091565b6040805192835260208301919091520161012e565b61010261020836600461099e565b6104f9565b610102610534565b6101246201518081565b610227610548565b60405161012e9190600061012082019050825182526020830151602083015260408301516040830152606083015160608301526080830151608083015260a083015160a083015260c083015160c083015260e083015160e083015261010080840151818401525092915050565b6101246102a236600461097c565b600d6020526000908152604090205481565b6001546040516001600160a01b03909116815260200161012e565b600254600354600454600554600654600754600854600954600a546102f998979695949392919089565b60408051998a5260208a0198909852968801959095526060870193909352608086019190915260a085015260c084015260e08301526101008201526101200161012e565b61035061034b36600461099e565b6105ee565b60405161012e9190600060a082019050825182526020830151602083015260408301516040830152606083015160608301526080830151608083015292915050565b6101026103a036600461097c565b61066f565b816002800160008282546103b991906109cd565b90915550506001600160a01b0381166000908152600d602052604081204290819055600a556103eb90839083906106ed565b5050565b600280549060006103ff836109e6565b9190505550816002600101600082825461041991906109cd565b909155505060025460035461042e91906109ff565b6007556001600160a01b0381166000908152600c602052604081205490036104825760058054906000610460836109e6565b90915550506001600160a01b0381166000908152600c60205260409020600190555b6001600160a01b0381166000908152600d602052604090204290819055600a556104ae828260016106ed565b60025460035460055460408051938452602084019290925282820152517f30b47c3a685e507da227a870550a387d376e03da27ad5b6a1d8c7517eb2d9b2f9181900360600190a15050565b806002600401600082825461050e91906109cd565b9091555050600980548291906000906105289084906109cd565b909155505042600a5550565b61053c610888565b61054660006108e2565b565b6105976040518061012001604052806000815260200160008152602001600081526020016000815260200160008152602001600081526020016000815260200160008152602001600081525090565b50604080516101208101825260025481526003546020820152600454918101919091526005546060820152600654608082015260075460a082015260085460c082015260095460e0820152600a5461010082015290565b6106206040518060a0016040528060008152602001600081526020016000815260200160008152602001600081525090565b506000908152600b6020908152604091829020825160a0810184528154815260018201549281019290925260028101549282019290925260038201546060820152600490910154608082015290565b610677610888565b6001600160a01b0381166106e15760405162461bcd60e51b815260206004820152602660248201527f4f776e61626c653a206e6577206f776e657220697320746865207a65726f206160448201526564647265737360d01b60648201526084015b60405180910390fd5b6106ea816108e2565b50565b6000620151806106fd81426109ff565b6107079190610a21565b6000818152600b60205260409020549091508114610777576040805160a081018252828152600060208083018281528385018381526060850184815260808601858152888652600b9094529590932093518455516001840155905160028301559151600382015590516004909101555b81156107e1576000818152600b6020526040812060010180549161079a836109e6565b90915550506001600160a01b0383166000908152600c602052604081205490036107e1576000818152600b602052604081206003018054916107db836109e6565b91905055505b6000818152600b6020526040812060020180548692906108029084906109cd565b90915550506000818152600b60205260408120600401805491610824836109e6565b90915550506000818152600b602090815260409182902060018101546002909101548351858152928301919091528183015290517fee13ef6822ca62bfa05ffc8924615fd8be85c9b8b9cd78f4cb05d03b1d37a16a9181900360600190a150505050565b6001546001600160a01b031633146105465760405162461bcd60e51b815260206004820181905260248201527f4f776e61626c653a2063616c6c6572206973206e6f7420746865206f776e657260448201526064016106d8565b600180546001600160a01b038381166001600160a01b0319831681179093556040519116919082907f8be0079c531659141344cd1fd0a4f28419497f9722a3daafe3b4186f6b6457e090600090a35050565b80356001600160a01b038116811461094b57600080fd5b919050565b6000806040838503121561096357600080fd5b8235915061097360208401610934565b90509250929050565b60006020828403121561098e57600080fd5b61099782610934565b9392505050565b6000602082840312156109b057600080fd5b5035919050565b634e487b7160e01b600052601160045260246000fd5b808201808211156109e0576109e06109b7565b92915050565b6000600182016109f8576109f86109b7565b5060010190565b600082610a1c57634e487b7160e01b600052601260045260246000fd5b500490565b80820281158282048414176109e0576109e06109b756fea264697066735822122093a0b0e83e8d56ca2630d2829c71aae550c5bff600d879352f5111496a285aef64736f6c63430008140033","opcodes":"PUSH1 0x80 PUSH1 0x40 MSTORE CALLVALUE DUP1 ISZERO PUSH2 0x10 JUMPI PUSH1 0x0 DUP1 REVERT JUMPDEST POP PUSH1 0x1 PUSH1 0x0 SSTORE PUSH2 0x1F CALLER PUSH2 0x9A JUMP JUMPDEST PUSH1 0x40 DUP1 MLOAD PUSH2 0x120 DUP2 ADD DUP3 MSTORE PUSH1 0x0 DUP1 DUP3 MSTORE PUSH1 0x20 DUP3 ADD DUP2 SWAP1 MSTORE SWAP2 DUP2 ADD DUP3 SWAP1 MSTORE PUSH1 0x60 DUP2 ADD DUP3 SWAP1 MSTORE PUSH1 0x80 DUP2 ADD DUP3 SWAP1 MSTORE PUSH1 0xA0 DUP2 ADD DUP3 SWAP1 MSTORE PUSH1 0xC0 DUP2 ADD DUP3 SWAP1 MSTORE PUSH1 0xE0 DUP2 ADD DUP3 SWAP1 MSTORE TIMESTAMP PUSH2 0x100 SWAP1 SWAP2 ADD DUP2 SWAP1 MSTORE PUSH1 0x2 DUP3 SWAP1 SSTORE PUSH1 0x3 DUP3 SWAP1 SSTORE PUSH1 0x4 DUP3 SWAP1 SSTORE PUSH1 0x5 DUP3 SWAP1 SSTORE PUSH1 0x6 DUP3 SWAP1 SSTORE PUSH1 0x7 DUP3 SWAP1 SSTORE PUSH1 0x8 DUP3 SWAP1 SSTORE PUSH1 0x9 SWAP2 SWAP1 SWAP2 SSTORE PUSH1 0xA SSTORE PUSH2 0xEC JUMP JUMPDEST PUSH1 0x1 DUP1 SLOAD PUSH1 0x1 PUSH1 0x1 PUSH1 0xA0 SHL SUB DUP4 DUP2 AND PUSH1 0x1 PUSH1 0x1 PUSH1 0xA0 SHL SUB NOT DUP4 AND DUP2 OR SWAP1 SWAP4 SSTORE PUSH1 0x40 MLOAD SWAP2 AND SWAP2 SWAP1 DUP3 SWAP1 PUSH32 0x8BE0079C531659141344CD1FD0A4F28419497F9722A3DAAFE3B4186F6B6457E0 SWAP1 PUSH1 0x0 SWAP1 LOG3 POP POP JUMP JUMPDEST PUSH2 0xA6E DUP1 PUSH2 0xFB PUSH1 0x0 CODECOPY PUSH1 0x0 RETURN INVALID PUSH1 0x80 PUSH1 0x40 MSTORE CALLVALUE DUP1 ISZERO PUSH2 0x10 JUMPI PUSH1 0x0 DUP1 REVERT JUMPDEST POP PUSH1 0x4 CALLDATASIZE LT PUSH2 0xEA JUMPI PUSH1 0x0 CALLDATALOAD PUSH1 0xE0 SHR DUP1 PUSH4 0x74F0314F GT PUSH2 0x8C JUMPI DUP1 PUSH4 0x8DA5CB5B GT PUSH2 0x66 JUMPI DUP1 PUSH4 0x8DA5CB5B EQ PUSH2 0x2B4 JUMPI DUP1 PUSH4 0xA04748F6 EQ PUSH2 0x2CF JUMPI DUP1 PUSH4 0xE2F800D7 EQ PUSH2 0x33D JUMPI DUP1 PUSH4 0xF2FDE38B EQ PUSH2 0x392 JUMPI PUSH1 0x0 DUP1 REVERT JUMPDEST DUP1 PUSH4 0x74F0314F EQ PUSH2 0x215 JUMPI DUP1 PUSH4 0x7606F781 EQ PUSH2 0x21F JUMPI DUP1 PUSH4 0x77CE2992 EQ PUSH2 0x294 JUMPI PUSH1 0x0 DUP1 REVERT JUMPDEST DUP1 PUSH4 0x46271D10 GT PUSH2 0xC8 JUMPI DUP1 PUSH4 0x46271D10 EQ PUSH2 0x19C JUMPI DUP1 PUSH4 0x4E43603A EQ PUSH2 0x1AF JUMPI DUP1 PUSH4 0x67715C27 EQ PUSH2 0x1FA JUMPI DUP1 PUSH4 0x715018A6 EQ PUSH2 0x20D JUMPI PUSH1 0x0 DUP1 REVERT JUMPDEST DUP1 PUSH4 0x1F794F3E EQ PUSH2 0xEF JUMPI DUP1 PUSH4 0x287DEAB1 EQ PUSH2 0x104 JUMPI DUP1 PUSH4 0x2C489AEC EQ PUSH2 0x137 JUMPI JUMPDEST PUSH1 0x0 DUP1 REVERT JUMPDEST PUSH2 0x102 PUSH2 0xFD CALLDATASIZE PUSH1 0x4 PUSH2 0x950 JUMP JUMPDEST PUSH2 0x3A5 JUMP JUMPDEST STOP JUMPDEST PUSH2 0x124 PUSH2 0x112 CALLDATASIZE PUSH1 0x4 PUSH2 0x97C JUMP JUMPDEST PUSH1 0xC PUSH1 0x20 MSTORE PUSH1 0x0 SWAP1 DUP2 MSTORE PUSH1 0x40 SWAP1 KECCAK256 SLOAD DUP2 JUMP JUMPDEST PUSH1 0x40 MLOAD SWAP1 DUP2 MSTORE PUSH1 0x20 ADD JUMPDEST PUSH1 0x40 MLOAD DUP1 SWAP2 SUB SWAP1 RETURN JUMPDEST PUSH2 0x174 PUSH2 0x145 CALLDATASIZE PUSH1 0x4 PUSH2 0x99E JUMP JUMPDEST PUSH1 0xB PUSH1 0x20 MSTORE PUSH1 0x0 SWAP1 DUP2 MSTORE PUSH1 0x40 SWAP1 KECCAK256 DUP1 SLOAD PUSH1 0x1 DUP3 ADD SLOAD PUSH1 0x2 DUP4 ADD SLOAD PUSH1 0x3 DUP5 ADD SLOAD PUSH1 0x4 SWAP1 SWAP5 ADD SLOAD SWAP3 SWAP4 SWAP2 SWAP3 SWAP1 SWAP2 SWAP1 DUP6 JUMP JUMPDEST PUSH1 0x40 DUP1 MLOAD SWAP6 DUP7 MSTORE PUSH1 0x20 DUP7 ADD SWAP5 SWAP1 SWAP5 MSTORE SWAP3 DUP5 ADD SWAP2 SWAP1 SWAP2 MSTORE PUSH1 0x60 DUP4 ADD MSTORE PUSH1 0x80 DUP3 ADD MSTORE PUSH1 0xA0 ADD PUSH2 0x12E JUMP JUMPDEST PUSH2 0x102 PUSH2 0x1AA CALLDATASIZE PUSH1 0x4 PUSH2 0x950 JUMP JUMPDEST PUSH2 0x3EF JUMP JUMPDEST PUSH2 0x1E5 PUSH2 0x1BD CALLDATASIZE PUSH1 0x4 PUSH2 0x97C JUMP JUMPDEST PUSH1 0x1 PUSH1 0x1 PUSH1 0xA0 SHL SUB AND PUSH1 0x0 SWAP1 DUP2 MSTORE PUSH1 0xC PUSH1 0x20 SWAP1 DUP2 MSTORE PUSH1 0x40 DUP1 DUP4 KECCAK256 SLOAD PUSH1 0xD SWAP1 SWAP3 MSTORE SWAP1 SWAP2 KECCAK256 SLOAD SWAP1 SWAP2 JUMP JUMPDEST PUSH1 0x40 DUP1 MLOAD SWAP3 DUP4 MSTORE PUSH1 0x20 DUP4 ADD SWAP2 SWAP1 SWAP2 MSTORE ADD PUSH2 0x12E JUMP JUMPDEST PUSH2 0x102 PUSH2 0x208 CALLDATASIZE PUSH1 0x4 PUSH2 0x99E JUMP JUMPDEST PUSH2 0x4F9 JUMP JUMPDEST PUSH2 0x102 PUSH2 0x534 JUMP JUMPDEST PUSH2 0x124 PUSH3 0x15180 DUP2 JUMP JUMPDEST PUSH2 0x227 PUSH2 0x548 JUMP JUMPDEST PUSH1 0x40 MLOAD PUSH2 0x12E SWAP2 SWAP1 PUSH1 0x0 PUSH2 0x120 DUP3 ADD SWAP1 POP DUP3 MLOAD DUP3 MSTORE PUSH1 0x20 DUP4 ADD MLOAD PUSH1 0x20 DUP4 ADD MSTORE PUSH1 0x40 DUP4 ADD MLOAD PUSH1 0x40 DUP4 ADD MSTORE PUSH1 0x60 DUP4 ADD MLOAD PUSH1 0x60 DUP4 ADD MSTORE PUSH1 0x80 DUP4 ADD MLOAD PUSH1 0x80 DUP4 ADD MSTORE PUSH1 0xA0 DUP4 ADD MLOAD PUSH1 0xA0 DUP4 ADD MSTORE PUSH1 0xC0 DUP4 ADD MLOAD PUSH1 0xC0 DUP4 ADD MSTORE PUSH1 0xE0 DUP4 ADD MLOAD PUSH1 0xE0 DUP4 ADD MSTORE PUSH2 0x100 DUP1 DUP5 ADD MLOAD DUP2 DUP5 ADD MSTORE POP SWAP3 SWAP2 POP POP JUMP JUMPDEST PUSH2 0x124 PUSH2 0x2A2 CALLDATASIZE PUSH1 0x4 PUSH2 0x97C JUMP JUMPDEST PUSH1 0xD PUSH1 0x20 MSTORE PUSH1 0x0 SWAP1 DUP2 MSTORE PUSH1 0x40 SWAP1 KECCAK256 SLOAD DUP2 JUMP JUMPDEST PUSH1 0x1 SLOAD PUSH1 0x40 MLOAD PUSH1 0x1 PUSH1 0x1 PUSH1 0xA0 SHL SUB SWAP1 SWAP2 AND DUP2 MSTORE PUSH1 0x20 ADD PUSH2 0x12E JUMP JUMPDEST PUSH1 0x2 SLOAD PUSH1 0x3 SLOAD PUSH1 0x4 SLOAD PUSH1 0x5 SLOAD PUSH1 0x6 SLOAD PUSH1 0x7 SLOAD PUSH1 0x8 SLOAD PUSH1 0x9 SLOAD PUSH1 0xA SLOAD PUSH2 0x2F9 SWAP9 SWAP8 SWAP7 SWAP6 SWAP5 SWAP4 SWAP3 SWAP2 SWAP1 DUP10 JUMP JUMPDEST PUSH1 0x40 DUP1 MLOAD SWAP10 DUP11 MSTORE PUSH1 0x20 DUP11 ADD SWAP9 SWAP1 SWAP9 MSTORE SWAP7 DUP9 ADD SWAP6 SWAP1 SWAP6 MSTORE PUSH1 0x60 DUP8 ADD SWAP4 SWAP1 SWAP4 MSTORE PUSH1 0x80 DUP7 ADD SWAP2 SWAP1 SWAP2 MSTORE PUSH1 0xA0 DUP6 ADD MSTORE PUSH1 0xC0 DUP5 ADD MSTORE PUSH1 0xE0 DUP4 ADD MSTORE PUSH2 0x100 DUP3 ADD MSTORE PUSH2 0x120 ADD PUSH2 0x12E JUMP JUMPDEST PUSH2 0x350 PUSH2 0x34B CALLDATASIZE PUSH1 0x4 PUSH2 0x99E JUMP JUMPDEST PUSH2 0x5EE JUMP JUMPDEST PUSH1 0x40 MLOAD PUSH2 0x12E SWAP2 SWAP1 PUSH1 0x0 PUSH1 0xA0 DUP3 ADD SWAP1 POP DUP3 MLOAD DUP3 MSTORE PUSH1 0x20 DUP4 ADD MLOAD PUSH1 0x20 DUP4 ADD MSTORE PUSH1 0x40 DUP4 ADD MLOAD PUSH1 0x40 DUP4 ADD MSTORE PUSH1 0x60 DUP4 ADD MLOAD PUSH1 0x60 DUP4 ADD MSTORE PUSH1 0x80 DUP4 ADD MLOAD PUSH1 0x80 DUP4 ADD MSTORE SWAP3 SWAP2 POP POP JUMP JUMPDEST PUSH2 0x102 PUSH2 0x3A0 CALLDATASIZE PUSH1 0x4 PUSH2 0x97C JUMP JUMPDEST PUSH2 0x66F JUMP JUMPDEST DUP2 PUSH1 0x2 DUP1 ADD PUSH1 0x0 DUP3 DUP3 SLOAD PUSH2 0x3B9 SWAP2 SWAP1 PUSH2 0x9CD JUMP JUMPDEST SWAP1 SWAP2 SSTORE POP POP PUSH1 0x1 PUSH1 0x1 PUSH1 0xA0 SHL SUB DUP2 AND PUSH1 0x0 SWAP1 DUP2 MSTORE PUSH1 0xD PUSH1 0x20 MSTORE PUSH1 0x40 DUP2 KECCAK256 TIMESTAMP SWAP1 DUP2 SWAP1 SSTORE PUSH1 0xA SSTORE PUSH2 0x3EB SWAP1 DUP4 SWAP1 DUP4 SWAP1 PUSH2 0x6ED JUMP JUMPDEST POP POP JUMP JUMPDEST PUSH1 0x2 DUP1 SLOAD SWAP1 PUSH1 0x0 PUSH2 0x3FF DUP4 PUSH2 0x9E6 JUMP JUMPDEST SWAP2 SWAP1 POP SSTORE POP DUP2 PUSH1 0x2 PUSH1 0x1 ADD PUSH1 0x0 DUP3 DUP3 SLOAD PUSH2 0x419 SWAP2 SWAP1 PUSH2 0x9CD JUMP JUMPDEST SWAP1 SWAP2 SSTORE POP POP PUSH1 0x2 SLOAD PUSH1 0x3 SLOAD PUSH2 0x42E SWAP2 SWAP1 PUSH2 0x9FF JUMP JUMPDEST PUSH1 0x7 SSTORE PUSH1 0x1 PUSH1 0x1 PUSH1 0xA0 SHL SUB DUP2 AND PUSH1 0x0 SWAP1 DUP2 MSTORE PUSH1 0xC PUSH1 0x20 MSTORE PUSH1 0x40 DUP2 KECCAK256 SLOAD SWAP1 SUB PUSH2 0x482 JUMPI PUSH1 0x5 DUP1 SLOAD SWAP1 PUSH1 0x0 PUSH2 0x460 DUP4 PUSH2 0x9E6 JUMP JUMPDEST SWAP1 SWAP2 SSTORE POP POP PUSH1 0x1 PUSH1 0x1 PUSH1 0xA0 SHL SUB DUP2 AND PUSH1 0x0 SWAP1 DUP2 MSTORE PUSH1 0xC PUSH1 0x20 MSTORE PUSH1 0x40 SWAP1 KECCAK256 PUSH1 0x1 SWAP1 SSTORE JUMPDEST PUSH1 0x1 PUSH1 0x1 PUSH1 0xA0 SHL SUB DUP2 AND PUSH1 0x0 SWAP1 DUP2 MSTORE PUSH1 0xD PUSH1 0x20 MSTORE PUSH1 0x40 SWAP1 KECCAK256 TIMESTAMP SWAP1 DUP2 SWAP1 SSTORE PUSH1 0xA SSTORE PUSH2 0x4AE DUP3 DUP3 PUSH1 0x1 PUSH2 0x6ED JUMP JUMPDEST PUSH1 0x2 SLOAD PUSH1 0x3 SLOAD PUSH1 0x5 SLOAD PUSH1 0x40 DUP1 MLOAD SWAP4 DUP5 MSTORE PUSH1 0x20 DUP5 ADD SWAP3 SWAP1 SWAP3 MSTORE DUP3 DUP3 ADD MSTORE MLOAD PUSH32 0x30B47C3A685E507DA227A870550A387D376E03DA27AD5B6A1D8C7517EB2D9B2F SWAP2 DUP2 SWAP1 SUB PUSH1 0x60 ADD SWAP1 LOG1 POP POP JUMP JUMPDEST DUP1 PUSH1 0x2 PUSH1 0x4 ADD PUSH1 0x0 DUP3 DUP3 SLOAD PUSH2 0x50E SWAP2 SWAP1 PUSH2 0x9CD JUMP JUMPDEST SWAP1 SWAP2 SSTORE POP POP PUSH1 0x9 DUP1 SLOAD DUP3 SWAP2 SWAP1 PUSH1 0x0 SWAP1 PUSH2 0x528 SWAP1 DUP5 SWAP1 PUSH2 0x9CD JUMP JUMPDEST SWAP1 SWAP2 SSTORE POP POP TIMESTAMP PUSH1 0xA SSTORE POP JUMP JUMPDEST PUSH2 0x53C PUSH2 0x888 JUMP JUMPDEST PUSH2 0x546 PUSH1 0x0 PUSH2 0x8E2 JUMP JUMPDEST JUMP JUMPDEST PUSH2 0x597 PUSH1 0x40 MLOAD DUP1 PUSH2 0x120 ADD PUSH1 0x40 MSTORE DUP1 PUSH1 0x0 DUP2 MSTORE PUSH1 0x20 ADD PUSH1 0x0 DUP2 MSTORE PUSH1 0x20 ADD PUSH1 0x0 DUP2 MSTORE PUSH1 0x20 ADD PUSH1 0x0 DUP2 MSTORE PUSH1 0x20 ADD PUSH1 0x0 DUP2 MSTORE PUSH1 0x20 ADD PUSH1 0x0 DUP2 MSTORE PUSH1 0x20 ADD PUSH1 0x0 DUP2 MSTORE PUSH1 0x20 ADD PUSH1 0x0 DUP2 MSTORE PUSH1 0x20 ADD PUSH1 0x0 DUP2 MSTORE POP SWAP1 JUMP JUMPDEST POP PUSH1 0x40 DUP1 MLOAD PUSH2 0x120 DUP2 ADD DUP3 MSTORE PUSH1 0x2 SLOAD DUP2 MSTORE PUSH1 0x3 SLOAD PUSH1 0x20 DUP3 ADD MSTORE PUSH1 0x4 SLOAD SWAP2 DUP2 ADD SWAP2 SWAP1 SWAP2 MSTORE PUSH1 0x5 SLOAD PUSH1 0x60 DUP3 ADD MSTORE PUSH1 0x6 SLOAD PUSH1 0x80 DUP3 ADD MSTORE PUSH1 0x7 SLOAD PUSH1 0xA0 DUP3 ADD MSTORE PUSH1 0x8 SLOAD PUSH1 0xC0 DUP3 ADD MSTORE PUSH1 0x9 SLOAD PUSH1 0xE0 DUP3 ADD MSTORE PUSH1 0xA SLOAD PUSH2 0x100 DUP3 ADD MSTORE SWAP1 JUMP JUMPDEST PUSH2 0x620 PUSH1 0x40 MLOAD DUP1 PUSH1 0xA0 ADD PUSH1 0x40 MSTORE DUP1 PUSH1 0x0 DUP2 MSTORE PUSH1 0x20 ADD PUSH1 0x0 DUP2 MSTORE PUSH1 0x20 ADD PUSH1 0x0 DUP2 MSTORE PUSH1 0x20 ADD PUSH1 0x0 DUP2 MSTORE PUSH1 0x20 ADD PUSH1 0x0 DUP2 MSTORE POP SWAP1 JUMP JUMPDEST POP PUSH1 0x0 SWAP1 DUP2 MSTORE PUSH1 0xB PUSH1 0x20 SWAP1 DUP2 MSTORE PUSH1 0x40 SWAP2 DUP3 SWAP1 KECCAK256 DUP3 MLOAD PUSH1 0xA0 DUP2 ADD DUP5 MSTORE DUP2 SLOAD DUP2 MSTORE PUSH1 0x1 DUP3 ADD SLOAD SWAP3 DUP2 ADD SWAP3 SWAP1 SWAP3 MSTORE PUSH1 0x2 DUP2 ADD SLOAD SWAP3 DUP3 ADD SWAP3 SWAP1 SWAP3 MSTORE PUSH1 0x3 DUP3 ADD SLOAD PUSH1 0x60 DUP3 ADD MSTORE PUSH1 0x4 SWAP1 SWAP2 ADD SLOAD PUSH1 0x80 DUP3 ADD MSTORE SWAP1 JUMP JUMPDEST PUSH2 0x677 PUSH2 0x888 JUMP JUMPDEST PUSH1 0x1 PUSH1 0x1 PUSH1 0xA0 SHL SUB DUP2 AND PUSH2 0x6E1 JUMPI PUSH1 0x40 MLOAD PUSH3 0x461BCD PUSH1 0xE5 SHL DUP2 MSTORE PUSH1 0x20 PUSH1 0x4 DUP3 ADD MSTORE PUSH1 0x26 PUSH1 0x24 DUP3 ADD MSTORE PUSH32 0x4F776E61626C653A206E6577206F776E657220697320746865207A65726F2061 PUSH1 0x44 DUP3 ADD MSTORE PUSH6 0x646472657373 PUSH1 0xD0 SHL PUSH1 0x64 DUP3 ADD MSTORE PUSH1 0x84 ADD JUMPDEST PUSH1 0x40 MLOAD DUP1 SWAP2 SUB SWAP1 REVERT JUMPDEST PUSH2 0x6EA DUP2 PUSH2 0x8E2 JUMP JUMPDEST POP JUMP JUMPDEST PUSH1 0x0 PUSH3 0x15180 PUSH2 0x6FD DUP2 TIMESTAMP PUSH2 0x9FF JUMP JUMPDEST PUSH2 0x707 SWAP2 SWAP1 PUSH2 0xA21 JUMP JUMPDEST PUSH1 0x0 DUP2 DUP2 MSTORE PUSH1 0xB PUSH1 0x20 MSTORE PUSH1 0x40 SWAP1 KECCAK256 SLOAD SWAP1 SWAP2 POP DUP2 EQ PUSH2 0x777 JUMPI PUSH1 0x40 DUP1 MLOAD PUSH1 0xA0 DUP2 ADD DUP3 MSTORE DUP3 DUP2 MSTORE PUSH1 0x0 PUSH1 0x20 DUP1 DUP4 ADD DUP3 DUP2 MSTORE DUP4 DUP6 ADD DUP4 DUP2 MSTORE PUSH1 0x60 DUP6 ADD DUP5 DUP2 MSTORE PUSH1 0x80 DUP7 ADD DUP6 DUP2 MSTORE DUP9 DUP7 MSTORE PUSH1 0xB SWAP1 SWAP5 MSTORE SWAP6 SWAP1 SWAP4 KECCAK256 SWAP4 MLOAD DUP5 SSTORE MLOAD PUSH1 0x1 DUP5 ADD SSTORE SWAP1 MLOAD PUSH1 0x2 DUP4 ADD SSTORE SWAP2 MLOAD PUSH1 0x3 DUP3 ADD SSTORE SWAP1 MLOAD PUSH1 0x4 SWAP1 SWAP2 ADD SSTORE JUMPDEST DUP2 ISZERO PUSH2 0x7E1 JUMPI PUSH1 0x0 DUP2 DUP2 MSTORE PUSH1 0xB PUSH1 0x20 MSTORE PUSH1 0x40 DUP2 KECCAK256 PUSH1 0x1 ADD DUP1 SLOAD SWAP2 PUSH2 0x79A DUP4 PUSH2 0x9E6 JUMP JUMPDEST SWAP1 SWAP2 SSTORE POP POP PUSH1 0x1 PUSH1 0x1 PUSH1 0xA0 SHL SUB DUP4 AND PUSH1 0x0 SWAP1 DUP2 MSTORE PUSH1 0xC PUSH1 0x20 MSTORE PUSH1 0x40 DUP2 KECCAK256 SLOAD SWAP1 SUB PUSH2 0x7E1 JUMPI PUSH1 0x0 DUP2 DUP2 MSTORE PUSH1 0xB PUSH1 0x20 MSTORE PUSH1 0x40 DUP2 KECCAK256 PUSH1 0x3 ADD DUP1 SLOAD SWAP2 PUSH2 0x7DB DUP4 PUSH2 0x9E6 JUMP JUMPDEST SWAP2 SWAP1 POP SSTORE POP JUMPDEST PUSH1 0x0 DUP2 DUP2 MSTORE PUSH1 0xB PUSH1 0x20 MSTORE PUSH1 0x40 DUP2 KECCAK256 PUSH1 0x2 ADD DUP1 SLOAD DUP7 SWAP3 SWAP1 PUSH2 0x802 SWAP1 DUP5 SWAP1 PUSH2 0x9CD JUMP JUMPDEST SWAP1 SWAP2 SSTORE POP POP PUSH1 0x0 DUP2 DUP2 MSTORE PUSH1 0xB PUSH1 0x20 MSTORE PUSH1 0x40 DUP2 KECCAK256 PUSH1 0x4 ADD DUP1 SLOAD SWAP2 PUSH2 0x824 DUP4 PUSH2 0x9E6 JUMP JUMPDEST SWAP1 SWAP2 SSTORE POP POP PUSH1 0x0 DUP2 DUP2 MSTORE PUSH1 0xB PUSH1 0x20 SWAP1 DUP2 MSTORE PUSH1 0x40 SWAP2 DUP3 SWAP1 KECCAK256 PUSH1 0x1 DUP2 ADD SLOAD PUSH1 0x2 SWAP1 SWAP2 ADD SLOAD DUP4 MLOAD DUP6 DUP2 MSTORE SWAP3 DUP4 ADD SWAP2 SWAP1 SWAP2 MSTORE DUP2 DUP4 ADD MSTORE SWAP1 MLOAD PUSH32 0xEE13EF6822CA62BFA05FFC8924615FD8BE85C9B8B9CD78F4CB05D03B1D37A16A SWAP2 DUP2 SWAP1 SUB PUSH1 0x60 ADD SWAP1 LOG1 POP POP POP POP JUMP JUMPDEST PUSH1 0x1 SLOAD PUSH1 0x1 PUSH1 0x1 PUSH1 0xA0 SHL SUB AND CALLER EQ PUSH2 0x546 JUMPI PUSH1 0x40 MLOAD PUSH3 0x461BCD PUSH1 0xE5 SHL DUP2 MSTORE PUSH1 0x20 PUSH1 0x4 DUP3 ADD DUP2 SWAP1 MSTORE PUSH1 0x24 DUP3 ADD MSTORE PUSH32 0x4F776E61626C653A2063616C6C6572206973206E6F7420746865206F776E6572 PUSH1 0x44 DUP3 ADD MSTORE PUSH1 0x64 ADD PUSH2 0x6D8 JUMP JUMPDEST PUSH1 0x1 DUP1 SLOAD PUSH1 0x1 PUSH1 0x1 PUSH1 0xA0 SHL SUB DUP4 DUP2 AND PUSH1 0x1 PUSH1 0x1 PUSH1 0xA0 SHL SUB NOT DUP4 AND DUP2 OR SWAP1 SWAP4 SSTORE PUSH1 0x40 MLOAD SWAP2 AND SWAP2 SWAP1 DUP3 SWAP1 PUSH32 0x8BE0079C531659141344CD1FD0A4F28419497F9722A3DAAFE3B4186F6B6457E0 SWAP1 PUSH1 0x0 SWAP1 LOG3 POP POP JUMP JUMPDEST DUP1 CALLDATALOAD PUSH1 0x1 PUSH1 0x1 PUSH1 0xA0 SHL SUB DUP2 AND DUP2 EQ PUSH2 0x94B JUMPI PUSH1 0x0 DUP1 REVERT JUMPDEST SWAP2 SWAP1 POP JUMP JUMPDEST PUSH1 0x0 DUP1 PUSH1 0x40 DUP4 DUP6 SUB SLT ISZERO PUSH2 0x963 JUMPI PUSH1 0x0 DUP1 REVERT JUMPDEST DUP3 CALLDATALOAD SWAP2 POP PUSH2 0x973 PUSH1 0x20 DUP5 ADD PUSH2 0x934 JUMP JUMPDEST SWAP1 POP SWAP3 POP SWAP3 SWAP1 POP JUMP JUMPDEST PUSH1 0x0 PUSH1 0x20 DUP3 DUP5 SUB SLT ISZERO PUSH2 0x98E JUMPI PUSH1 0x0 DUP1 REVERT JUMPDEST PUSH2 0x997 DUP3 PUSH2 0x934 JUMP JUMPDEST SWAP4 SWAP3 POP POP POP JUMP JUMPDEST PUSH1 0x0 PUSH1 0x20 DUP3 DUP5 SUB SLT ISZERO PUSH2 0x9B0 JUMPI PUSH1 0x0 DUP1 REVERT JUMPDEST POP CALLDATALOAD SWAP2 SWAP1 POP JUMP JUMPDEST PUSH4 0x4E487B71 PUSH1 0xE0 SHL PUSH1 0x0 MSTORE PUSH1 0x11 PUSH1 0x4 MSTORE PUSH1 0x24 PUSH1 0x0 REVERT JUMPDEST DUP1 DUP3 ADD DUP1 DUP3 GT ISZERO PUSH2 0x9E0 JUMPI PUSH2 0x9E0 PUSH2 0x9B7 JUMP JUMPDEST SWAP3 SWAP2 POP POP JUMP JUMPDEST PUSH1 0x0 PUSH1 0x1 DUP3 ADD PUSH2 0x9F8 JUMPI PUSH2 0x9F8 PUSH2 0x9B7 JUMP JUMPDEST POP PUSH1 0x1 ADD SWAP1 JUMP JUMPDEST PUSH1 0x0 DUP3 PUSH2 0xA1C JUMPI PUSH4 0x4E487B71 PUSH1 0xE0 SHL PUSH1 0x0 MSTORE PUSH1 0x12 PUSH1 0x4 MSTORE PUSH1 0x24 PUSH1 0x0 REVERT JUMPDEST POP DIV SWAP1 JUMP JUMPDEST DUP1 DUP3 MUL DUP2 ISZERO DUP3 DUP3 DIV DUP5 EQ OR PUSH2 0x9E0 JUMPI PUSH2 0x9E0 PUSH2 0x9B7 JUMP INVALID LOG2 PUSH5 0x6970667358 0x22 SLT KECCAK256 SWAP4 LOG0 0xB0 0xE8 RETURNDATACOPY DUP14 JUMP 0xCA 0x26 ADDRESS 0xD2 DUP3 SWAP13 PUSH18 0xAAE550C5BFF600D879352F5111496A285AEF PUSH5 0x736F6C6343 STOP ADDMOD EQ STOP CALLER "},"methodIdentifiers":{"SECONDS_PER_DAY()":"74f0314f","dailyStats(uint256)":"2c489aec","getDailyStats(uint256)":"e2f800d7","getMetrics()":"7606f781","getUserStats(address)":"4e43603a","metrics()":"a04748f6","owner()":"8da5cb5b","recordInterestPayment(uint256)":"67715c27","recordLoanCreation(uint256,address)":"46271d10","recordLoanFunding(uint256,address)":"1f794f3e","renounceOwnership()":"715018a6","transferOwnership(address)":"f2fde38b","userFirstLoan(address)":"287deab1","userLastActivity(address)":"77ce2992"}}}}}