{"contracts/FinBridgeInsurance.sol":{"FinBridgeInsurance":{"abi":[{"anonymous":false,"inputs":[{"indexed":true,"internalType":"uint256","name":"policyId","type":"uint256"},{"indexed":true,"internalType":"address","name":"insured","type":"address"},{"indexed":false,"internalType":"uint256","name":"payoutAmount","type":"uint256"}],"name":"ClaimProcessed","type":"event"},{"anonymous":false,"inputs":[{"indexed":true,"internalType":"address","name":"previousOwner","type":"address"},{"indexed":true,"internalType":"address","name":"newOwner","type":"address"}],"name":"OwnershipTransferred","type":"event"},{"anonymous":false,"inputs":[{"indexed":true,"internalType":"uint256","name":"policyId","type":"uint256"},{"indexed":true,"internalType":"address","name":"insured","type":"address"},{"indexed":false,"internalType":"uint256","name":"coverageAmount","type":"uint256"}],"name":"PolicyCreated","type":"event"},{"inputs":[],"name":"COVERAGE_MULTIPLIER","outputs":[{"internalType":"uint256","name":"","type":"uint256"}],"stateMutability":"view","type":"function"},{"inputs":[],"name":"PREMIUM_RATE","outputs":[{"internalType":"uint256","name":"","type":"uint256"}],"stateMutability":"view","type":"function"},{"inputs":[{"internalType":"uint256","name":"loanAmount","type":"uint256"},{"internalType":"uint256","name":"duration","type":"uint256"}],"name":"createInsurancePolicy","outputs":[],"stateMutability":"payable","type":"function"},{"inputs":[],"name":"getInsurancePool","outputs":[{"internalType":"uint256","name":"","type":"uint256"}],"stateMutability":"view","type":"function"},{"inputs":[{"internalType":"uint256","name":"policyId","type":"uint256"}],"name":"getPolicy","outputs":[{"components":[{"internalType":"uint256","name":"id","type":"uint256"},{"internalType":"address","name":"insured","type":"address"},{"internalType":"uint256","name":"loanAmount","type":"uint256"},{"internalType":"uint256","name":"premium","type":"uint256"},{"internalType":"uint256","name":"coverageAmount","type":"uint256"},{"internalType":"uint256","name":"duration","type":"uint256"},{"internalType":"uint256","name":"startTime","type":"uint256"},{"internalType":"bool","name":"isActive","type":"bool"},{"internalType":"bool","name":"claimProcessed","type":"bool"}],"internalType":"struct FinBridgeInsurance.InsurancePolicy","name":"","type":"tuple"}],"stateMutability":"view","type":"function"},{"inputs":[{"internalType":"address","name":"user","type":"address"}],"name":"getUserPolicies","outputs":[{"internalType":"uint256[]","name":"","type":"uint256[]"}],"stateMutability":"view","type":"function"},{"inputs":[],"name":"nextPolicyId","outputs":[{"internalType":"uint256","name":"","type":"uint256"}],"stateMutability":"view","type":"function"},{"inputs":[],"name":"owner","outputs":[{"internalType":"address","name":"","type":"address"}],"stateMutability":"view","type":"function"},{"inputs":[{"internalType":"uint256","name":"","type":"uint256"}],"name":"policies","outputs":[{"internalType":"uint256","name":"id","type":"uint256"},{"internalType":"address","name":"insured","type":"address"},{"internalType":"uint256","name":"loanAmount","type":"uint256"},{"internalType":"uint256","name":"premium","type":"uint256"},{"internalType":"uint256","name":"coverageAmount","type":"uint256"},{"internalType":"uint256","name":"duration","type":"uint256"},{"internalType":"uint256","name":"startTime","type":"uint256"},{"internalType":"bool","name":"isActive","type":"bool"},{"internalType":"bool","name":"claimProcessed","type":"bool"}],"stateMutability":"view","type":"function"},{"inputs":[{"internalType":"uint256","name":"policyId","type":"uint256"}],"name":"processClaim","outputs":[],"stateMutability":"nonpayable","type":"function"},{"inputs":[],"name":"renounceOwnership","outputs":[],"stateMutability":"nonpayable","type":"function"},{"inputs":[{"internalType":"address","name":"newOwner","type":"address"}],"name":"transferOwnership","outputs":[],"stateMutability":"nonpayable","type":"function"},{"inputs":[{"internalType":"address","name":"","type":"address"},{"internalType":"uint256","name":"","type":"uint256"}],"name":"userPolicies","outputs":[{"internalType":"uint256","name":"","type":"uint256"}],"stateMutability":"view","type":"function"}],"evm":{"bytecode":{"linkReferences":{},"object":"6080604052600160045534801561001557600080fd5b50600160005561002433610029565b61007b565b600180546001600160a01b038381166001600160a01b0319831681179093556040519116919082907f8be0079c531659141344cd1fd0a4f28419497f9722a3daafe3b4186f6b6457e090600090a35050565b610c798061008a6000396000f3fe6080604052600436106100c25760003560e01c80637257dfc91161007f578063d0d5665b11610059578063d0d5665b146101f8578063d3e894831461020b578063e0f39474146102d0578063f2fde38b146102e357600080fd5b80637257dfc91461019a5780638da5cb5b146101ba578063cad0b8db146101e257600080fd5b806319ac4614146100c75780631b2f2e9d146100fd5780631cb27ba4146101215780632b07fce3146101365780633d36adc514610163578063715018a614610183575b600080fd5b3480156100d357600080fd5b506100e76100e2366004610a91565b610303565b6040516100f49190610ab3565b60405180910390f35b34801561010957600080fd5b506101136103e881565b6040519081526020016100f4565b34801561012d57600080fd5b50610113603281565b34801561014257600080fd5b50610156610151366004610af7565b61036f565b6040516100f49190610b10565b34801561016f57600080fd5b5061011361017e366004610b89565b610454565b34801561018f57600080fd5b50610198610485565b005b3480156101a657600080fd5b506101986101b5366004610af7565b610499565b3480156101c657600080fd5b506001546040516001600160a01b0390911681526020016100f4565b3480156101ee57600080fd5b5061011360045481565b34801561020457600080fd5b5047610113565b34801561021757600080fd5b50610280610226366004610af7565b60026020819052600091825260409091208054600182015492820154600383015460048401546005850154600686015460079096015494966001600160a01b03169593949293919290919060ff8082169161010090041689565b60408051998a526001600160a01b0390981660208a0152968801959095526060870193909352608086019190915260a085015260c0840152151560e08301521515610100820152610120016100f4565b6101986102de366004610bb3565b610687565b3480156102ef57600080fd5b506101986102fe366004610a91565b6108fa565b6001600160a01b03811660009081526003602090815260409182902080548351818402810184019094528084526060939283018282801561036357602002820191906000526020600020905b81548152602001906001019080831161034f575b50505050509050919050565b6103cb6040518061012001604052806000815260200160006001600160a01b0316815260200160008152602001600081526020016000815260200160008152602001600081526020016000151581526020016000151581525090565b506000908152600260208181526040928390208351610120810185528154815260018201546001600160a01b03169281019290925291820154928101929092526003810154606083015260048101546080830152600581015460a0830152600681015460c08301526007015460ff808216151560e0840152610100918290041615159082015290565b6003602052816000526040600020818154811061047057600080fd5b90600052602060002001600091509150505481565b61048d610970565b61049760006109ca565b565b6104a1610970565b6104a9610a1c565b60008181526002602052604090206007015460ff166105065760405162461bcd60e51b8152602060048201526014602482015273506f6c696379206973206e6f742061637469766560601b60448201526064015b60405180910390fd5b600081815260026020526040902060070154610100900460ff161561056d5760405162461bcd60e51b815260206004820152601760248201527f436c61696d20616c72656164792070726f63657373656400000000000000000060448201526064016104fd565b60008181526002602052604080822060078101805461ffff19166101001790556004810154600182015492519193909290916001600160a01b039091169083908381818185875af1925050503d80600081146105e5576040519150601f19603f3d011682016040523d82523d6000602084013e6105ea565b606091505b50509050806106315760405162461bcd60e51b815260206004820152601360248201527210db185a5b481c185e5bdd5d0819985a5b1959606a1b60448201526064016104fd565b60018301546040518381526001600160a01b039091169085907f786e090d783caced3baddcb29bd555ffb93faf484529ab87feab4ec4c48a81e19060200160405180910390a35050506106846001600055565b50565b61068f610a1c565b662386f26fc100003410156106e65760405162461bcd60e51b815260206004820152601b60248201527f4d696e696d756d207072656d69756d20697320302e303120455448000000000060448201526064016104fd565b600082116107415760405162461bcd60e51b815260206004820152602260248201527f4c6f616e20616d6f756e74206d7573742062652067726561746572207468616e604482015261020360f41b60648201526084016104fd565b600081116107915760405162461bcd60e51b815260206004820152601f60248201527f4475726174696f6e206d7573742062652067726561746572207468616e20300060448201526064016104fd565b3460006103e86107a18186610beb565b6107ab9190610c08565b6004805491925060009190826107c083610c2a565b9091555060408051610120810182528281523360208083018281528385018b8152606085018a8152608086018a815260a087018d81524260c08901908152600160e08a018181526000610100808d018281528f83526002808d528f84209e518f559a518e860180546001600160a01b0319166001600160a01b039092169190911790559851998d019990995595516003808d0191909155945160048c0155925160058b0155905160068a0155905160079098018054945161ffff1990951698151561ff00191698909817931515909402929092179095558385528252848420805491820181558452928190209092018490559151858152929350909183917f601882301d3e3fce7fe3a99d4bb17ef5b6699b417bdd29f2bfb82e19fcbcb660910160405180910390a35050506108f66001600055565b5050565b610902610970565b6001600160a01b0381166109675760405162461bcd60e51b815260206004820152602660248201527f4f776e61626c653a206e6577206f776e657220697320746865207a65726f206160448201526564647265737360d01b60648201526084016104fd565b610684816109ca565b6001546001600160a01b031633146104975760405162461bcd60e51b815260206004820181905260248201527f4f776e61626c653a2063616c6c6572206973206e6f7420746865206f776e657260448201526064016104fd565b600180546001600160a01b038381166001600160a01b0319831681179093556040519116919082907f8be0079c531659141344cd1fd0a4f28419497f9722a3daafe3b4186f6b6457e090600090a35050565b600260005403610a6e5760405162461bcd60e51b815260206004820152601f60248201527f5265656e7472616e637947756172643a207265656e7472616e742063616c6c0060448201526064016104fd565b6002600055565b80356001600160a01b0381168114610a8c57600080fd5b919050565b600060208284031215610aa357600080fd5b610aac82610a75565b9392505050565b6020808252825182820181905260009190848201906040850190845b81811015610aeb57835183529284019291840191600101610acf565b50909695505050505050565b600060208284031215610b0957600080fd5b5035919050565b6000610120820190508251825260018060a01b03602084015116602083015260408301516040830152606083015160608301526080830151608083015260a083015160a083015260c083015160c083015260e0830151151560e083015261010080840151610b818285018215159052565b505092915050565b60008060408385031215610b9c57600080fd5b610ba583610a75565b946020939093013593505050565b60008060408385031215610bc657600080fd5b50508035926020909101359150565b634e487b7160e01b600052601160045260246000fd5b8082028115828204841417610c0257610c02610bd5565b92915050565b600082610c2557634e487b7160e01b600052601260045260246000fd5b500490565b600060018201610c3c57610c3c610bd5565b506001019056fea264697066735822122086579a6342b2b09d00eea46dee880b59607c4b987b93cf27486653d0d857bd8464736f6c63430008140033","opcodes":"PUSH1 0x80 PUSH1 0x40 MSTORE PUSH1 0x1 PUSH1 0x4 SSTORE CALLVALUE DUP1 ISZERO PUSH2 0x15 JUMPI PUSH1 0x0 DUP1 REVERT JUMPDEST POP PUSH1 0x1 PUSH1 0x0 SSTORE PUSH2 0x24 CALLER PUSH2 0x29 JUMP JUMPDEST PUSH2 0x7B JUMP JUMPDEST PUSH1 0x1 DUP1 SLOAD PUSH1 0x1 PUSH1 0x1 PUSH1 0xA0 SHL SUB DUP4 DUP2 AND PUSH1 0x1 PUSH1 0x1 PUSH1 0xA0 SHL SUB NOT DUP4 AND DUP2 OR SWAP1 SWAP4 SSTORE PUSH1 0x40 MLOAD SWAP2 AND SWAP2 SWAP1 DUP3 SWAP1 PUSH32 0x8BE0079C531659141344CD1FD0A4F28419497F9722A3DAAFE3B4186F6B6457E0 SWAP1 PUSH1 0x0 SWAP1 LOG3 POP POP JUMP JUMPDEST PUSH2 0xC79 DUP1 PUSH2 0x8A PUSH1 0x0 CODECOPY PUSH1 0x0 RETURN INVALID PUSH1 0x80 PUSH1 0x40 MSTORE PUSH1 0x4 CALLDATASIZE LT PUSH2 0xC2 JUMPI PUSH1 0x0 CALLDATALOAD PUSH1 0xE0 SHR DUP1 PUSH4 0x7257DFC9 GT PUSH2 0x7F JUMPI DUP1 PUSH4 0xD0D5665B GT PUSH2 0x59 JUMPI DUP1 PUSH4 0xD0D5665B EQ PUSH2 0x1F8 JUMPI DUP1 PUSH4 0xD3E89483 EQ PUSH2 0x20B JUMPI DUP1 PUSH4 0xE0F39474 EQ PUSH2 0x2D0 JUMPI DUP1 PUSH4 0xF2FDE38B EQ PUSH2 0x2E3 JUMPI PUSH1 0x0 DUP1 REVERT JUMPDEST DUP1 PUSH4 0x7257DFC9 EQ PUSH2 0x19A JUMPI DUP1 PUSH4 0x8DA5CB5B EQ PUSH2 0x1BA JUMPI DUP1 PUSH4 0xCAD0B8DB EQ PUSH2 0x1E2 JUMPI PUSH1 0x0 DUP1 REVERT JUMPDEST DUP1 PUSH4 0x19AC4614 EQ PUSH2 0xC7 JUMPI DUP1 PUSH4 0x1B2F2E9D EQ PUSH2 0xFD JUMPI DUP1 PUSH4 0x1CB27BA4 EQ PUSH2 0x121 JUMPI DUP1 PUSH4 0x2B07FCE3 EQ PUSH2 0x136 JUMPI DUP1 PUSH4 0x3D36ADC5 EQ PUSH2 0x163 JUMPI DUP1 PUSH4 0x715018A6 EQ PUSH2 0x183 JUMPI JUMPDEST PUSH1 0x0 DUP1 REVERT JUMPDEST CALLVALUE DUP1 ISZERO PUSH2 0xD3 JUMPI PUSH1 0x0 DUP1 REVERT JUMPDEST POP PUSH2 0xE7 PUSH2 0xE2 CALLDATASIZE PUSH1 0x4 PUSH2 0xA91 JUMP JUMPDEST PUSH2 0x303 JUMP JUMPDEST PUSH1 0x40 MLOAD PUSH2 0xF4 SWAP2 SWAP1 PUSH2 0xAB3 JUMP JUMPDEST PUSH1 0x40 MLOAD DUP1 SWAP2 SUB SWAP1 RETURN JUMPDEST CALLVALUE DUP1 ISZERO PUSH2 0x109 JUMPI PUSH1 0x0 DUP1 REVERT JUMPDEST POP PUSH2 0x113 PUSH2 0x3E8 DUP2 JUMP JUMPDEST PUSH1 0x40 MLOAD SWAP1 DUP2 MSTORE PUSH1 0x20 ADD PUSH2 0xF4 JUMP JUMPDEST CALLVALUE DUP1 ISZERO PUSH2 0x12D JUMPI PUSH1 0x0 DUP1 REVERT JUMPDEST POP PUSH2 0x113 PUSH1 0x32 DUP2 JUMP JUMPDEST CALLVALUE DUP1 ISZERO PUSH2 0x142 JUMPI PUSH1 0x0 DUP1 REVERT JUMPDEST POP PUSH2 0x156 PUSH2 0x151 CALLDATASIZE PUSH1 0x4 PUSH2 0xAF7 JUMP JUMPDEST PUSH2 0x36F JUMP JUMPDEST PUSH1 0x40 MLOAD PUSH2 0xF4 SWAP2 SWAP1 PUSH2 0xB10 JUMP JUMPDEST CALLVALUE DUP1 ISZERO PUSH2 0x16F JUMPI PUSH1 0x0 DUP1 REVERT JUMPDEST POP PUSH2 0x113 PUSH2 0x17E CALLDATASIZE PUSH1 0x4 PUSH2 0xB89 JUMP JUMPDEST PUSH2 0x454 JUMP JUMPDEST CALLVALUE DUP1 ISZERO PUSH2 0x18F JUMPI PUSH1 0x0 DUP1 REVERT JUMPDEST POP PUSH2 0x198 PUSH2 0x485 JUMP JUMPDEST STOP JUMPDEST CALLVALUE DUP1 ISZERO PUSH2 0x1A6 JUMPI PUSH1 0x0 DUP1 REVERT JUMPDEST POP PUSH2 0x198 PUSH2 0x1B5 CALLDATASIZE PUSH1 0x4 PUSH2 0xAF7 JUMP JUMPDEST PUSH2 0x499 JUMP JUMPDEST CALLVALUE DUP1 ISZERO PUSH2 0x1C6 JUMPI PUSH1 0x0 DUP1 REVERT JUMPDEST POP PUSH1 0x1 SLOAD PUSH1 0x40 MLOAD PUSH1 0x1 PUSH1 0x1 PUSH1 0xA0 SHL SUB SWAP1 SWAP2 AND DUP2 MSTORE PUSH1 0x20 ADD PUSH2 0xF4 JUMP JUMPDEST CALLVALUE DUP1 ISZERO PUSH2 0x1EE JUMPI PUSH1 0x0 DUP1 REVERT JUMPDEST POP PUSH2 0x113 PUSH1 0x4 SLOAD DUP2 JUMP JUMPDEST CALLVALUE DUP1 ISZERO PUSH2 0x204 JUMPI PUSH1 0x0 DUP1 REVERT JUMPDEST POP SELFBALANCE PUSH2 0x113 JUMP JUMPDEST CALLVALUE DUP1 ISZERO PUSH2 0x217 JUMPI PUSH1 0x0 DUP1 REVERT JUMPDEST POP PUSH2 0x280 PUSH2 0x226 CALLDATASIZE PUSH1 0x4 PUSH2 0xAF7 JUMP JUMPDEST PUSH1 0x2 PUSH1 0x20 DUP2 SWAP1 MSTORE PUSH1 0x0 SWAP2 DUP3 MSTORE PUSH1 0x40 SWAP1 SWAP2 KECCAK256 DUP1 SLOAD PUSH1 0x1 DUP3 ADD SLOAD SWAP3 DUP3 ADD SLOAD PUSH1 0x3 DUP4 ADD SLOAD PUSH1 0x4 DUP5 ADD SLOAD PUSH1 0x5 DUP6 ADD SLOAD PUSH1 0x6 DUP7 ADD SLOAD PUSH1 0x7 SWAP1 SWAP7 ADD SLOAD SWAP5 SWAP7 PUSH1 0x1 PUSH1 0x1 PUSH1 0xA0 SHL SUB AND SWAP6 SWAP4 SWAP5 SWAP3 SWAP4 SWAP2 SWAP3 SWAP1 SWAP2 SWAP1 PUSH1 0xFF DUP1 DUP3 AND SWAP2 PUSH2 0x100 SWAP1 DIV AND DUP10 JUMP JUMPDEST PUSH1 0x40 DUP1 MLOAD SWAP10 DUP11 MSTORE PUSH1 0x1 PUSH1 0x1 PUSH1 0xA0 SHL SUB SWAP1 SWAP9 AND PUSH1 0x20 DUP11 ADD MSTORE SWAP7 DUP9 ADD SWAP6 SWAP1 SWAP6 MSTORE PUSH1 0x60 DUP8 ADD SWAP4 SWAP1 SWAP4 MSTORE PUSH1 0x80 DUP7 ADD SWAP2 SWAP1 SWAP2 MSTORE PUSH1 0xA0 DUP6 ADD MSTORE PUSH1 0xC0 DUP5 ADD MSTORE ISZERO ISZERO PUSH1 0xE0 DUP4 ADD MSTORE ISZERO ISZERO PUSH2 0x100 DUP3 ADD MSTORE PUSH2 0x120 ADD PUSH2 0xF4 JUMP JUMPDEST PUSH2 0x198 PUSH2 0x2DE CALLDATASIZE PUSH1 0x4 PUSH2 0xBB3 JUMP JUMPDEST PUSH2 0x687 JUMP JUMPDEST CALLVALUE DUP1 ISZERO PUSH2 0x2EF JUMPI PUSH1 0x0 DUP1 REVERT JUMPDEST POP PUSH2 0x198 PUSH2 0x2FE CALLDATASIZE PUSH1 0x4 PUSH2 0xA91 JUMP JUMPDEST PUSH2 0x8FA JUMP JUMPDEST PUSH1 0x1 PUSH1 0x1 PUSH1 0xA0 SHL SUB DUP2 AND PUSH1 0x0 SWAP1 DUP2 MSTORE PUSH1 0x3 PUSH1 0x20 SWAP1 DUP2 MSTORE PUSH1 0x40 SWAP2 DUP3 SWAP1 KECCAK256 DUP1 SLOAD DUP4 MLOAD DUP2 DUP5 MUL DUP2 ADD DUP5 ADD SWAP1 SWAP5 MSTORE DUP1 DUP5 MSTORE PUSH1 0x60 SWAP4 SWAP3 DUP4 ADD DUP3 DUP3 DUP1 ISZERO PUSH2 0x363 JUMPI PUSH1 0x20 MUL DUP3 ADD SWAP2 SWAP1 PUSH1 0x0 MSTORE PUSH1 0x20 PUSH1 0x0 KECCAK256 SWAP1 JUMPDEST DUP2 SLOAD DUP2 MSTORE PUSH1 0x20 ADD SWAP1 PUSH1 0x1 ADD SWAP1 DUP1 DUP4 GT PUSH2 0x34F JUMPI JUMPDEST POP POP POP POP POP SWAP1 POP SWAP2 SWAP1 POP JUMP JUMPDEST PUSH2 0x3CB PUSH1 0x40 MLOAD DUP1 PUSH2 0x120 ADD PUSH1 0x40 MSTORE DUP1 PUSH1 0x0 DUP2 MSTORE PUSH1 0x20 ADD PUSH1 0x0 PUSH1 0x1 PUSH1 0x1 PUSH1 0xA0 SHL SUB AND DUP2 MSTORE PUSH1 0x20 ADD PUSH1 0x0 DUP2 MSTORE PUSH1 0x20 ADD PUSH1 0x0 DUP2 MSTORE PUSH1 0x20 ADD PUSH1 0x0 DUP2 MSTORE PUSH1 0x20 ADD PUSH1 0x0 DUP2 MSTORE PUSH1 0x20 ADD PUSH1 0x0 DUP2 MSTORE PUSH1 0x20 ADD PUSH1 0x0 ISZERO ISZERO DUP2 MSTORE PUSH1 0x20 ADD PUSH1 0x0 ISZERO ISZERO DUP2 MSTORE POP SWAP1 JUMP JUMPDEST POP PUSH1 0x0 SWAP1 DUP2 MSTORE PUSH1 0x2 PUSH1 0x20 DUP2 DUP2 MSTORE PUSH1 0x40 SWAP3 DUP4 SWAP1 KECCAK256 DUP4 MLOAD PUSH2 0x120 DUP2 ADD DUP6 MSTORE DUP2 SLOAD DUP2 MSTORE PUSH1 0x1 DUP3 ADD SLOAD PUSH1 0x1 PUSH1 0x1 PUSH1 0xA0 SHL SUB AND SWAP3 DUP2 ADD SWAP3 SWAP1 SWAP3 MSTORE SWAP2 DUP3 ADD SLOAD SWAP3 DUP2 ADD SWAP3 SWAP1 SWAP3 MSTORE PUSH1 0x3 DUP2 ADD SLOAD PUSH1 0x60 DUP4 ADD MSTORE PUSH1 0x4 DUP2 ADD SLOAD PUSH1 0x80 DUP4 ADD MSTORE PUSH1 0x5 DUP2 ADD SLOAD PUSH1 0xA0 DUP4 ADD MSTORE PUSH1 0x6 DUP2 ADD SLOAD PUSH1 0xC0 DUP4 ADD MSTORE PUSH1 0x7 ADD SLOAD PUSH1 0xFF DUP1 DUP3 AND ISZERO ISZERO PUSH1 0xE0 DUP5 ADD MSTORE PUSH2 0x100 SWAP2 DUP3 SWAP1 DIV AND ISZERO ISZERO SWAP1 DUP3 ADD MSTORE SWAP1 JUMP JUMPDEST PUSH1 0x3 PUSH1 0x20 MSTORE DUP2 PUSH1 0x0 MSTORE PUSH1 0x40 PUSH1 0x0 KECCAK256 DUP2 DUP2 SLOAD DUP2 LT PUSH2 0x470 JUMPI PUSH1 0x0 DUP1 REVERT JUMPDEST SWAP1 PUSH1 0x0 MSTORE PUSH1 0x20 PUSH1 0x0 KECCAK256 ADD PUSH1 0x0 SWAP2 POP SWAP2 POP POP SLOAD DUP2 JUMP JUMPDEST PUSH2 0x48D PUSH2 0x970 JUMP JUMPDEST PUSH2 0x497 PUSH1 0x0 PUSH2 0x9CA JUMP JUMPDEST JUMP JUMPDEST PUSH2 0x4A1 PUSH2 0x970 JUMP JUMPDEST PUSH2 0x4A9 PUSH2 0xA1C JUMP JUMPDEST PUSH1 0x0 DUP2 DUP2 MSTORE PUSH1 0x2 PUSH1 0x20 MSTORE PUSH1 0x40 SWAP1 KECCAK256 PUSH1 0x7 ADD SLOAD PUSH1 0xFF AND PUSH2 0x506 JUMPI PUSH1 0x40 MLOAD PUSH3 0x461BCD PUSH1 0xE5 SHL DUP2 MSTORE PUSH1 0x20 PUSH1 0x4 DUP3 ADD MSTORE PUSH1 0x14 PUSH1 0x24 DUP3 ADD MSTORE PUSH20 0x506F6C696379206973206E6F7420616374697665 PUSH1 0x60 SHL PUSH1 0x44 DUP3 ADD MSTORE PUSH1 0x64 ADD JUMPDEST PUSH1 0x40 MLOAD DUP1 SWAP2 SUB SWAP1 REVERT JUMPDEST PUSH1 0x0 DUP2 DUP2 MSTORE PUSH1 0x2 PUSH1 0x20 MSTORE PUSH1 0x40 SWAP1 KECCAK256 PUSH1 0x7 ADD SLOAD PUSH2 0x100 SWAP1 DIV PUSH1 0xFF AND ISZERO PUSH2 0x56D JUMPI PUSH1 0x40 MLOAD PUSH3 0x461BCD PUSH1 0xE5 SHL DUP2 MSTORE PUSH1 0x20 PUSH1 0x4 DUP3 ADD MSTORE PUSH1 0x17 PUSH1 0x24 DUP3 ADD MSTORE PUSH32 0x436C61696D20616C72656164792070726F636573736564000000000000000000 PUSH1 0x44 DUP3 ADD MSTORE PUSH1 0x64 ADD PUSH2 0x4FD JUMP JUMPDEST PUSH1 0x0 DUP2 DUP2 MSTORE PUSH1 0x2 PUSH1 0x20 MSTORE PUSH1 0x40 DUP1 DUP3 KECCAK256 PUSH1 0x7 DUP2 ADD DUP1 SLOAD PUSH2 0xFFFF NOT AND PUSH2 0x100 OR SWAP1 SSTORE PUSH1 0x4 DUP2 ADD SLOAD PUSH1 0x1 DUP3 ADD SLOAD SWAP3 MLOAD SWAP2 SWAP4 SWAP1 SWAP3 SWAP1 SWAP2 PUSH1 0x1 PUSH1 0x1 PUSH1 0xA0 SHL SUB SWAP1 SWAP2 AND SWAP1 DUP4 SWAP1 DUP4 DUP2 DUP2 DUP2 DUP6 DUP8 GAS CALL SWAP3 POP POP POP RETURNDATASIZE DUP1 PUSH1 0x0 DUP2 EQ PUSH2 0x5E5 JUMPI PUSH1 0x40 MLOAD SWAP2 POP PUSH1 0x1F NOT PUSH1 0x3F RETURNDATASIZE ADD AND DUP3 ADD PUSH1 0x40 MSTORE RETURNDATASIZE DUP3 MSTORE RETURNDATASIZE PUSH1 0x0 PUSH1 0x20 DUP5 ADD RETURNDATACOPY PUSH2 0x5EA JUMP JUMPDEST PUSH1 0x60 SWAP2 POP JUMPDEST POP POP SWAP1 POP DUP1 PUSH2 0x631 JUMPI PUSH1 0x40 MLOAD PUSH3 0x461BCD PUSH1 0xE5 SHL DUP2 MSTORE PUSH1 0x20 PUSH1 0x4 DUP3 ADD MSTORE PUSH1 0x13 PUSH1 0x24 DUP3 ADD MSTORE PUSH19 0x10DB185A5B481C185E5BDD5D0819985A5B1959 PUSH1 0x6A SHL PUSH1 0x44 DUP3 ADD MSTORE PUSH1 0x64 ADD PUSH2 0x4FD JUMP JUMPDEST PUSH1 0x1 DUP4 ADD SLOAD PUSH1 0x40 MLOAD DUP4 DUP2 MSTORE PUSH1 0x1 PUSH1 0x1 PUSH1 0xA0 SHL SUB SWAP1 SWAP2 AND SWAP1 DUP6 SWAP1 PUSH32 0x786E090D783CACED3BADDCB29BD555FFB93FAF484529AB87FEAB4EC4C48A81E1 SWAP1 PUSH1 0x20 ADD PUSH1 0x40 MLOAD DUP1 SWAP2 SUB SWAP1 LOG3 POP POP POP PUSH2 0x684 PUSH1 0x1 PUSH1 0x0 SSTORE JUMP JUMPDEST POP JUMP JUMPDEST PUSH2 0x68F PUSH2 0xA1C JUMP JUMPDEST PUSH7 0x2386F26FC10000 CALLVALUE LT ISZERO PUSH2 0x6E6 JUMPI PUSH1 0x40 MLOAD PUSH3 0x461BCD PUSH1 0xE5 SHL DUP2 MSTORE PUSH1 0x20 PUSH1 0x4 DUP3 ADD MSTORE PUSH1 0x1B PUSH1 0x24 DUP3 ADD MSTORE PUSH32 0x4D696E696D756D207072656D69756D20697320302E3031204554480000000000 PUSH1 0x44 DUP3 ADD MSTORE PUSH1 0x64 ADD PUSH2 0x4FD JUMP JUMPDEST PUSH1 0x0 DUP3 GT PUSH2 0x741 JUMPI PUSH1 0x40 MLOAD PUSH3 0x461BCD PUSH1 0xE5 SHL DUP2 MSTORE PUSH1 0x20 PUSH1 0x4 DUP3 ADD MSTORE PUSH1 0x22 PUSH1 0x24 DUP3 ADD MSTORE PUSH32 0x4C6F616E20616D6F756E74206D7573742062652067726561746572207468616E PUSH1 0x44 DUP3 ADD MSTORE PUSH2 0x203 PUSH1 0xF4 SHL PUSH1 0x64 DUP3 ADD MSTORE PUSH1 0x84 ADD PUSH2 0x4FD JUMP JUMPDEST PUSH1 0x0 DUP2 GT PUSH2 0x791 JUMPI PUSH1 0x40 MLOAD PUSH3 0x461BCD PUSH1 0xE5 SHL DUP2 MSTORE PUSH1 0x20 PUSH1 0x4 DUP3 ADD MSTORE PUSH1 0x1F PUSH1 0x24 DUP3 ADD MSTORE PUSH32 0x4475726174696F6E206D7573742062652067726561746572207468616E203000 PUSH1 0x44 DUP3 ADD MSTORE PUSH1 0x64 ADD PUSH2 0x4FD JUMP JUMPDEST CALLVALUE PUSH1 0x0 PUSH2 0x3E8 PUSH2 0x7A1 DUP2 DUP7 PUSH2 0xBEB JUMP JUMPDEST PUSH2 0x7AB SWAP2 SWAP1 PUSH2 0xC08 JUMP JUMPDEST PUSH1 0x4 DUP1 SLOAD SWAP2 SWAP3 POP PUSH1 0x0 SWAP2 SWAP1 DUP3 PUSH2 0x7C0 DUP4 PUSH2 0xC2A JUMP JUMPDEST SWAP1 SWAP2 SSTORE POP PUSH1 0x40 DUP1 MLOAD PUSH2 0x120 DUP2 ADD DUP3 MSTORE DUP3 DUP2 MSTORE CALLER PUSH1 0x20 DUP1 DUP4 ADD DUP3 DUP2 MSTORE DUP4 DUP6 ADD DUP12 DUP2 MSTORE PUSH1 0x60 DUP6 ADD DUP11 DUP2 MSTORE PUSH1 0x80 DUP7 ADD DUP11 DUP2 MSTORE PUSH1 0xA0 DUP8 ADD DUP14 DUP2 MSTORE TIMESTAMP PUSH1 0xC0 DUP10 ADD SWAP1 DUP2 MSTORE PUSH1 0x1 PUSH1 0xE0 DUP11 ADD DUP2 DUP2 MSTORE PUSH1 0x0 PUSH2 0x100 DUP1 DUP14 ADD DUP3 DUP2 MSTORE DUP16 DUP4 MSTORE PUSH1 0x2 DUP1 DUP14 MSTORE DUP16 DUP5 KECCAK256 SWAP15 MLOAD DUP16 SSTORE SWAP11 MLOAD DUP15 DUP7 ADD DUP1 SLOAD PUSH1 0x1 PUSH1 0x1 PUSH1 0xA0 SHL SUB NOT AND PUSH1 0x1 PUSH1 0x1 PUSH1 0xA0 SHL SUB SWAP1 SWAP3 AND SWAP2 SWAP1 SWAP2 OR SWAP1 SSTORE SWAP9 MLOAD SWAP10 DUP14 ADD SWAP10 SWAP1 SWAP10 SSTORE SWAP6 MLOAD PUSH1 0x3 DUP1 DUP14 ADD SWAP2 SWAP1 SWAP2 SSTORE SWAP5 MLOAD PUSH1 0x4 DUP13 ADD SSTORE SWAP3 MLOAD PUSH1 0x5 DUP12 ADD SSTORE SWAP1 MLOAD PUSH1 0x6 DUP11 ADD SSTORE SWAP1 MLOAD PUSH1 0x7 SWAP1 SWAP9 ADD DUP1 SLOAD SWAP5 MLOAD PUSH2 0xFFFF NOT SWAP1 SWAP6 AND SWAP9 ISZERO ISZERO PUSH2 0xFF00 NOT AND SWAP9 SWAP1 SWAP9 OR SWAP4 ISZERO ISZERO SWAP1 SWAP5 MUL SWAP3 SWAP1 SWAP3 OR SWAP1 SWAP6 SSTORE DUP4 DUP6 MSTORE DUP3 MSTORE DUP5 DUP5 KECCAK256 DUP1 SLOAD SWAP2 DUP3 ADD DUP2 SSTORE DUP5 MSTORE SWAP3 DUP2 SWAP1 KECCAK256 SWAP1 SWAP3 ADD DUP5 SWAP1 SSTORE SWAP2 MLOAD DUP6 DUP2 MSTORE SWAP3 SWAP4 POP SWAP1 SWAP2 DUP4 SWAP2 PUSH32 0x601882301D3E3FCE7FE3A99D4BB17EF5B6699B417BDD29F2BFB82E19FCBCB660 SWAP2 ADD PUSH1 0x40 MLOAD DUP1 SWAP2 SUB SWAP1 LOG3 POP POP POP PUSH2 0x8F6 PUSH1 0x1 PUSH1 0x0 SSTORE JUMP JUMPDEST POP POP JUMP JUMPDEST PUSH2 0x902 PUSH2 0x970 JUMP JUMPDEST PUSH1 0x1 PUSH1 0x1 PUSH1 0xA0 SHL SUB DUP2 AND PUSH2 0x967 JUMPI PUSH1 0x40 MLOAD PUSH3 0x461BCD PUSH1 0xE5 SHL DUP2 MSTORE PUSH1 0x20 PUSH1 0x4 DUP3 ADD MSTORE PUSH1 0x26 PUSH1 0x24 DUP3 ADD MSTORE PUSH32 0x4F776E61626C653A206E6577206F776E657220697320746865207A65726F2061 PUSH1 0x44 DUP3 ADD MSTORE PUSH6 0x646472657373 PUSH1 0xD0 SHL PUSH1 0x64 DUP3 ADD MSTORE PUSH1 0x84 ADD PUSH2 0x4FD JUMP JUMPDEST PUSH2 0x684 DUP2 PUSH2 0x9CA JUMP JUMPDEST PUSH1 0x1 SLOAD PUSH1 0x1 PUSH1 0x1 PUSH1 0xA0 SHL SUB AND CALLER EQ PUSH2 0x497 JUMPI PUSH1 0x40 MLOAD PUSH3 0x461BCD PUSH1 0xE5 SHL DUP2 MSTORE PUSH1 0x20 PUSH1 0x4 DUP3 ADD DUP2 SWAP1 MSTORE PUSH1 0x24 DUP3 ADD MSTORE PUSH32 0x4F776E61626C653A2063616C6C6572206973206E6F7420746865206F776E6572 PUSH1 0x44 DUP3 ADD MSTORE PUSH1 0x64 ADD PUSH2 0x4FD JUMP JUMPDEST PUSH1 0x1 DUP1 SLOAD PUSH1 0x1 PUSH1 0x1 PUSH1 0xA0 SHL SUB DUP4 DUP2 AND PUSH1 0x1 PUSH1 0x1 PUSH1 0xA0 SHL SUB NOT DUP4 AND DUP2 OR SWAP1 SWAP4 SSTORE PUSH1 0x40 MLOAD SWAP2 AND SWAP2 SWAP1 DUP3 SWAP1 PUSH32 0x8BE0079C531659141344CD1FD0A4F28419497F9722A3DAAFE3B4186F6B6457E0 SWAP1 PUSH1 0x0 SWAP1 LOG3 POP POP JUMP JUMPDEST PUSH1 0x2 PUSH1 0x0 SLOAD SUB PUSH2 0xA6E JUMPI PUSH1 0x40 MLOAD PUSH3 0x461BCD PUSH1 0xE5 SHL DUP2 MSTORE PUSH1 0x20 PUSH1 0x4 DUP3 ADD MSTORE PUSH1 0x1F PUSH1 0x24 DUP3 ADD MSTORE PUSH32 0x5265656E7472616E637947756172643A207265656E7472616E742063616C6C00 PUSH1 0x44 DUP3 ADD MSTORE PUSH1 0x64 ADD PUSH2 0x4FD JUMP JUMPDEST PUSH1 0x2 PUSH1 0x0 SSTORE JUMP JUMPDEST DUP1 CALLDATALOAD PUSH1 0x1 PUSH1 0x1 PUSH1 0xA0 SHL SUB DUP2 AND DUP2 EQ PUSH2 0xA8C JUMPI PUSH1 0x0 DUP1 REVERT JUMPDEST SWAP2 SWAP1 POP JUMP JUMPDEST PUSH1 0x0 PUSH1 0x20 DUP3 DUP5 SUB SLT ISZERO PUSH2 0xAA3 JUMPI PUSH1 0x0 DUP1 REVERT JUMPDEST PUSH2 0xAAC DUP3 PUSH2 0xA75 JUMP JUMPDEST SWAP4 SWAP3 POP POP POP JUMP JUMPDEST PUSH1 0x20 DUP1 DUP3 MSTORE DUP3 MLOAD DUP3 DUP3 ADD DUP2 SWAP1 MSTORE PUSH1 0x0 SWAP2 SWAP1 DUP5 DUP3 ADD SWAP1 PUSH1 0x40 DUP6 ADD SWAP1 DUP5 JUMPDEST DUP2 DUP2 LT ISZERO PUSH2 0xAEB JUMPI DUP4 MLOAD DUP4 MSTORE SWAP3 DUP5 ADD SWAP3 SWAP2 DUP5 ADD SWAP2 PUSH1 0x1 ADD PUSH2 0xACF JUMP JUMPDEST POP SWAP1 SWAP7 SWAP6 POP POP POP POP POP POP JUMP JUMPDEST PUSH1 0x0 PUSH1 0x20 DUP3 DUP5 SUB SLT ISZERO PUSH2 0xB09 JUMPI PUSH1 0x0 DUP1 REVERT JUMPDEST POP CALLDATALOAD SWAP2 SWAP1 POP JUMP JUMPDEST PUSH1 0x0 PUSH2 0x120 DUP3 ADD SWAP1 POP DUP3 MLOAD DUP3 MSTORE PUSH1 0x1 DUP1 PUSH1 0xA0 SHL SUB PUSH1 0x20 DUP5 ADD MLOAD AND PUSH1 0x20 DUP4 ADD MSTORE PUSH1 0x40 DUP4 ADD MLOAD PUSH1 0x40 DUP4 ADD MSTORE PUSH1 0x60 DUP4 ADD MLOAD PUSH1 0x60 DUP4 ADD MSTORE PUSH1 0x80 DUP4 ADD MLOAD PUSH1 0x80 DUP4 ADD MSTORE PUSH1 0xA0 DUP4 ADD MLOAD PUSH1 0xA0 DUP4 ADD MSTORE PUSH1 0xC0 DUP4 ADD MLOAD PUSH1 0xC0 DUP4 ADD MSTORE PUSH1 0xE0 DUP4 ADD MLOAD ISZERO ISZERO PUSH1 0xE0 DUP4 ADD MSTORE PUSH2 0x100 DUP1 DUP5 ADD MLOAD PUSH2 0xB81 DUP3 DUP6 ADD DUP3 ISZERO ISZERO SWAP1 MSTORE JUMP JUMPDEST POP POP SWAP3 SWAP2 POP POP JUMP JUMPDEST PUSH1 0x0 DUP1 PUSH1 0x40 DUP4 DUP6 SUB SLT ISZERO PUSH2 0xB9C JUMPI PUSH1 0x0 DUP1 REVERT JUMPDEST PUSH2 0xBA5 DUP4 PUSH2 0xA75 JUMP JUMPDEST SWAP5 PUSH1 0x20 SWAP4 SWAP1 SWAP4 ADD CALLDATALOAD SWAP4 POP POP POP JUMP JUMPDEST PUSH1 0x0 DUP1 PUSH1 0x40 DUP4 DUP6 SUB SLT ISZERO PUSH2 0xBC6 JUMPI PUSH1 0x0 DUP1 REVERT JUMPDEST POP POP DUP1 CALLDATALOAD SWAP3 PUSH1 0x20 SWAP1 SWAP2 ADD CALLDATALOAD SWAP2 POP JUMP JUMPDEST PUSH4 0x4E487B71 PUSH1 0xE0 SHL PUSH1 0x0 MSTORE PUSH1 0x11 PUSH1 0x4 MSTORE PUSH1 0x24 PUSH1 0x0 REVERT JUMPDEST DUP1 DUP3 MUL DUP2 ISZERO DUP3 DUP3 DIV DUP5 EQ OR PUSH2 0xC02 JUMPI PUSH2 0xC02 PUSH2 0xBD5 JUMP JUMPDEST SWAP3 SWAP2 POP POP JUMP JUMPDEST PUSH1 0x0 DUP3 PUSH2 0xC25 JUMPI PUSH4 0x4E487B71 PUSH1 0xE0 SHL PUSH1 0x0 MSTORE PUSH1 0x12 PUSH1 0x4 MSTORE PUSH1 0x24 PUSH1 0x0 REVERT JUMPDEST POP DIV SWAP1 JUMP JUMPDEST PUSH1 0x0 PUSH1 0x1 DUP3 ADD PUSH2 0xC3C JUMPI PUSH2 0xC3C PUSH2 0xBD5 JUMP JUMPDEST POP PUSH1 0x1 ADD SWAP1 JUMP INVALID LOG2 PUSH5 0x6970667358 0x22 SLT KECCAK256 DUP7 JUMPI SWAP11 PUSH4 0x42B2B09D STOP 0xEE LOG4 PUSH14 0xEE880B59607C4B987B93CF274866 MSTORE8 0xD0 0xD8 JUMPI 0xBD DUP5 PUSH5 0x736F6C6343 STOP ADDMOD EQ STOP CALLER "},"methodIdentifiers":{"COVERAGE_MULTIPLIER()":"1b2f2e9d","PREMIUM_RATE()":"1cb27ba4","createInsurancePolicy(uint256,uint256)":"e0f39474","getInsurancePool()":"d0d5665b","getPolicy(uint256)":"2b07fce3","getUserPolicies(address)":"19ac4614","nextPolicyId()":"cad0b8db","owner()":"8da5cb5b","policies(uint256)":"d3e89483","processClaim(uint256)":"7257dfc9","renounceOwnership()":"715018a6","transferOwnership(address)":"f2fde38b","userPolicies(address,uint256)":"3d36adc5"}}}}}