{
  "_format": "hh-sol-artifact-1",
  "contractName": "FinBridgeInsurance",
  "sourceName": "contracts/FinBridgeInsurance.sol",
  "abi": [
    {
      "anonymous": false,
      "inputs": [
        {
          "indexed": true,
          "internalType": "uint256",
          "name": "policyId",
          "type": "uint256"
        },
        {
          "indexed": true,
          "internalType": "address",
          "name": "insured",
          "type": "address"
        },
        {
          "indexed": false,
          "internalType": "uint256",
          "name": "payoutAmount",
          "type": "uint256"
        }
      ],
      "name": "ClaimProcessed",
      "type": "event"
    },
    {
      "anonymous": false,
      "inputs": [
        {
          "indexed": true,
          "internalType": "address",
          "name": "previousOwner",
          "type": "address"
        },
        {
          "indexed": true,
          "internalType": "address",
          "name": "newOwner",
          "type": "address"
        }
      ],
      "name": "OwnershipTransferred",
      "type": "event"
    },
    {
      "anonymous": false,
      "inputs": [
        {
          "indexed": true,
          "internalType": "uint256",
          "name": "policyId",
          "type": "uint256"
        },
        {
          "indexed": true,
          "internalType": "address",
          "name": "insured",
          "type": "address"
        },
        {
          "indexed": false,
          "internalType": "uint256",
          "name": "coverageAmount",
          "type": "uint256"
        }
      ],
      "name": "PolicyCreated",
      "type": "event"
    },
    {
      "inputs": [],
      "name": "COVERAGE_MULTIPLIER",
      "outputs": [
        {
          "internalType": "uint256",
          "name": "",
          "type": "uint256"
        }
      ],
      "stateMutability": "view",
      "type": "function"
    },
    {
      "inputs": [],
      "name": "PREMIUM_RATE",
      "outputs": [
        {
          "internalType": "uint256",
          "name": "",
          "type": "uint256"
        }
      ],
      "stateMutability": "view",
      "type": "function"
    },
    {
      "inputs": [
        {
          "internalType": "uint256",
          "name": "loanAmount",
          "type": "uint256"
        },
        {
          "internalType": "uint256",
          "name": "duration",
          "type": "uint256"
        }
      ],
      "name": "createInsurancePolicy",
      "outputs": [],
      "stateMutability": "payable",
      "type": "function"
    },
    {
      "inputs": [],
      "name": "getInsurancePool",
      "outputs": [
        {
          "internalType": "uint256",
          "name": "",
          "type": "uint256"
        }
      ],
      "stateMutability": "view",
      "type": "function"
    },
    {
      "inputs": [
        {
          "internalType": "uint256",
          "name": "policyId",
          "type": "uint256"
        }
      ],
      "name": "getPolicy",
      "outputs": [
        {
          "components": [
            {
              "internalType": "uint256",
              "name": "id",
              "type": "uint256"
            },
            {
              "internalType": "address",
              "name": "insured",
              "type": "address"
            },
            {
              "internalType": "uint256",
              "name": "loanAmount",
              "type": "uint256"
            },
            {
              "internalType": "uint256",
              "name": "premium",
              "type": "uint256"
            },
            {
              "internalType": "uint256",
              "name": "coverageAmount",
              "type": "uint256"
            },
            {
              "internalType": "uint256",
              "name": "duration",
              "type": "uint256"
            },
            {
              "internalType": "uint256",
              "name": "startTime",
              "type": "uint256"
            },
            {
              "internalType": "bool",
              "name": "isActive",
              "type": "bool"
            },
            {
              "internalType": "bool",
              "name": "claimProcessed",
              "type": "bool"
            }
          ],
          "internalType": "struct FinBridgeInsurance.InsurancePolicy",
          "name": "",
          "type": "tuple"
        }
      ],
      "stateMutability": "view",
      "type": "function"
    },
    {
      "inputs": [
        {
          "internalType": "address",
          "name": "user",
          "type": "address"
        }
      ],
      "name": "getUserPolicies",
      "outputs": [
        {
          "internalType": "uint256[]",
          "name": "",
          "type": "uint256[]"
        }
      ],
      "stateMutability": "view",
      "type": "function"
    },
    {
      "inputs": [],
      "name": "nextPolicyId",
      "outputs": [
        {
          "internalType": "uint256",
          "name": "",
          "type": "uint256"
        }
      ],
      "stateMutability": "view",
      "type": "function"
    },
    {
      "inputs": [],
      "name": "owner",
      "outputs": [
        {
          "internalType": "address",
          "name": "",
          "type": "address"
        }
      ],
      "stateMutability": "view",
      "type": "function"
    },
    {
      "inputs": [
        {
          "internalType": "uint256",
          "name": "",
          "type": "uint256"
        }
      ],
      "name": "policies",
      "outputs": [
        {
          "internalType": "uint256",
          "name": "id",
          "type": "uint256"
        },
        {
          "internalType": "address",
          "name": "insured",
          "type": "address"
        },
        {
          "internalType": "uint256",
          "name": "loanAmount",
          "type": "uint256"
        },
        {
          "internalType": "uint256",
          "name": "premium",
          "type": "uint256"
        },
        {
          "internalType": "uint256",
          "name": "coverageAmount",
          "type": "uint256"
        },
        {
          "internalType": "uint256",
          "name": "duration",
          "type": "uint256"
        },
        {
          "internalType": "uint256",
          "name": "startTime",
          "type": "uint256"
        },
        {
          "internalType": "bool",
          "name": "isActive",
          "type": "bool"
        },
        {
          "internalType": "bool",
          "name": "claimProcessed",
          "type": "bool"
        }
      ],
      "stateMutability": "view",
      "type": "function"
    },
    {
      "inputs": [
        {
          "internalType": "uint256",
          "name": "policyId",
          "type": "uint256"
        }
      ],
      "name": "processClaim",
      "outputs": [],
      "stateMutability": "nonpayable",
      "type": "function"
    },
    {
      "inputs": [],
      "name": "renounceOwnership",
      "outputs": [],
      "stateMutability": "nonpayable",
      "type": "function"
    },
    {
      "inputs": [
        {
          "internalType": "address",
          "name": "newOwner",
          "type": "address"
        }
      ],
      "name": "transferOwnership",
      "outputs": [],
      "stateMutability": "nonpayable",
      "type": "function"
    },
    {
      "inputs": [
        {
          "internalType": "address",
          "name": "",
          "type": "address"
        },
        {
          "internalType": "uint256",
          "name": "",
          "type": "uint256"
        }
      ],
      "name": "userPolicies",
      "outputs": [
        {
          "internalType": "uint256",
          "name": "",
          "type": "uint256"
        }
      ],
      "stateMutability": "view",
      "type": "function"
    }
  ],
  "bytecode": "0x6080604052600160045534801561001557600080fd5b50600160005561002433610029565b61007b565b600180546001600160a01b038381166001600160a01b0319831681179093556040519116919082907f8be0079c531659141344cd1fd0a4f28419497f9722a3daafe3b4186f6b6457e090600090a35050565b610c798061008a6000396000f3fe6080604052600436106100c25760003560e01c80637257dfc91161007f578063d0d5665b11610059578063d0d5665b146101f8578063d3e894831461020b578063e0f39474146102d0578063f2fde38b146102e357600080fd5b80637257dfc91461019a5780638da5cb5b146101ba578063cad0b8db146101e257600080fd5b806319ac4614146100c75780631b2f2e9d146100fd5780631cb27ba4146101215780632b07fce3146101365780633d36adc514610163578063715018a614610183575b600080fd5b3480156100d357600080fd5b506100e76100e2366004610a91565b610303565b6040516100f49190610ab3565b60405180910390f35b34801561010957600080fd5b506101136103e881565b6040519081526020016100f4565b34801561012d57600080fd5b50610113603281565b34801561014257600080fd5b50610156610151366004610af7565b61036f565b6040516100f49190610b10565b34801561016f57600080fd5b5061011361017e366004610b89565b610454565b34801561018f57600080fd5b50610198610485565b005b3480156101a657600080fd5b506101986101b5366004610af7565b610499565b3480156101c657600080fd5b506001546040516001600160a01b0390911681526020016100f4565b3480156101ee57600080fd5b5061011360045481565b34801561020457600080fd5b5047610113565b34801561021757600080fd5b50610280610226366004610af7565b60026020819052600091825260409091208054600182015492820154600383015460048401546005850154600686015460079096015494966001600160a01b03169593949293919290919060ff8082169161010090041689565b60408051998a526001600160a01b0390981660208a0152968801959095526060870193909352608086019190915260a085015260c0840152151560e08301521515610100820152610120016100f4565b6101986102de366004610bb3565b610687565b3480156102ef57600080fd5b506101986102fe366004610a91565b6108fa565b6001600160a01b03811660009081526003602090815260409182902080548351818402810184019094528084526060939283018282801561036357602002820191906000526020600020905b81548152602001906001019080831161034f575b50505050509050919050565b6103cb6040518061012001604052806000815260200160006001600160a01b0316815260200160008152602001600081526020016000815260200160008152602001600081526020016000151581526020016000151581525090565b506000908152600260208181526040928390208351610120810185528154815260018201546001600160a01b03169281019290925291820154928101929092526003810154606083015260048101546080830152600581015460a0830152600681015460c08301526007015460ff808216151560e0840152610100918290041615159082015290565b6003602052816000526040600020818154811061047057600080fd5b90600052602060002001600091509150505481565b61048d610970565b61049760006109ca565b565b6104a1610970565b6104a9610a1c565b60008181526002602052604090206007015460ff166105065760405162461bcd60e51b8152602060048201526014602482015273506f6c696379206973206e6f742061637469766560601b60448201526064015b60405180910390fd5b600081815260026020526040902060070154610100900460ff161561056d5760405162461bcd60e51b815260206004820152601760248201527f436c61696d20616c72656164792070726f63657373656400000000000000000060448201526064016104fd565b60008181526002602052604080822060078101805461ffff19166101001790556004810154600182015492519193909290916001600160a01b039091169083908381818185875af1925050503d80600081146105e5576040519150601f19603f3d011682016040523d82523d6000602084013e6105ea565b606091505b50509050806106315760405162461bcd60e51b815260206004820152601360248201527210db185a5b481c185e5bdd5d0819985a5b1959606a1b60448201526064016104fd565b60018301546040518381526001600160a01b039091169085907f786e090d783caced3baddcb29bd555ffb93faf484529ab87feab4ec4c48a81e19060200160405180910390a35050506106846001600055565b50565b61068f610a1c565b662386f26fc100003410156106e65760405162461bcd60e51b815260206004820152601b60248201527f4d696e696d756d207072656d69756d20697320302e303120455448000000000060448201526064016104fd565b600082116107415760405162461bcd60e51b815260206004820152602260248201527f4c6f616e20616d6f756e74206d7573742062652067726561746572207468616e604482015261020360f41b60648201526084016104fd565b600081116107915760405162461bcd60e51b815260206004820152601f60248201527f4475726174696f6e206d7573742062652067726561746572207468616e20300060448201526064016104fd565b3460006103e86107a18186610beb565b6107ab9190610c08565b6004805491925060009190826107c083610c2a565b9091555060408051610120810182528281523360208083018281528385018b8152606085018a8152608086018a815260a087018d81524260c08901908152600160e08a018181526000610100808d018281528f83526002808d528f84209e518f559a518e860180546001600160a01b0319166001600160a01b039092169190911790559851998d019990995595516003808d0191909155945160048c0155925160058b0155905160068a0155905160079098018054945161ffff1990951698151561ff00191698909817931515909402929092179095558385528252848420805491820181558452928190209092018490559151858152929350909183917f601882301d3e3fce7fe3a99d4bb17ef5b6699b417bdd29f2bfb82e19fcbcb660910160405180910390a35050506108f66001600055565b5050565b610902610970565b6001600160a01b0381166109675760405162461bcd60e51b815260206004820152602660248201527f4f776e61626c653a206e6577206f776e657220697320746865207a65726f206160448201526564647265737360d01b60648201526084016104fd565b610684816109ca565b6001546001600160a01b031633146104975760405162461bcd60e51b815260206004820181905260248201527f4f776e61626c653a2063616c6c6572206973206e6f7420746865206f776e657260448201526064016104fd565b600180546001600160a01b038381166001600160a01b0319831681179093556040519116919082907f8be0079c531659141344cd1fd0a4f28419497f9722a3daafe3b4186f6b6457e090600090a35050565b600260005403610a6e5760405162461bcd60e51b815260206004820152601f60248201527f5265656e7472616e637947756172643a207265656e7472616e742063616c6c0060448201526064016104fd565b6002600055565b80356001600160a01b0381168114610a8c57600080fd5b919050565b600060208284031215610aa357600080fd5b610aac82610a75565b9392505050565b6020808252825182820181905260009190848201906040850190845b81811015610aeb57835183529284019291840191600101610acf565b50909695505050505050565b600060208284031215610b0957600080fd5b5035919050565b6000610120820190508251825260018060a01b03602084015116602083015260408301516040830152606083015160608301526080830151608083015260a083015160a083015260c083015160c083015260e0830151151560e083015261010080840151610b818285018215159052565b505092915050565b60008060408385031215610b9c57600080fd5b610ba583610a75565b946020939093013593505050565b60008060408385031215610bc657600080fd5b50508035926020909101359150565b634e487b7160e01b600052601160045260246000fd5b8082028115828204841417610c0257610c02610bd5565b92915050565b600082610c2557634e487b7160e01b600052601260045260246000fd5b500490565b600060018201610c3c57610c3c610bd5565b506001019056fea264697066735822122086579a6342b2b09d00eea46dee880b59607c4b987b93cf27486653d0d857bd8464736f6c63430008140033",
  "linkReferences": {},
  "deployedLinkReferences": {}
}