{
  "_format": "hh-sol-artifact-1",
  "contractName": "FinBridgeGovernance",
  "sourceName": "contracts/FinBridgeGovernance.sol",
  "abi": [
    {
      "anonymous": false,
      "inputs": [
        {
          "indexed": true,
          "internalType": "address",
          "name": "previousOwner",
          "type": "address"
        },
        {
          "indexed": true,
          "internalType": "address",
          "name": "newOwner",
          "type": "address"
        }
      ],
      "name": "OwnershipTransferred",
      "type": "event"
    },
    {
      "anonymous": false,
      "inputs": [
        {
          "indexed": true,
          "internalType": "uint256",
          "name": "proposalId",
          "type": "uint256"
        },
        {
          "indexed": true,
          "internalType": "address",
          "name": "proposer",
          "type": "address"
        },
        {
          "indexed": false,
          "internalType": "string",
          "name": "description",
          "type": "string"
        }
      ],
      "name": "ProposalCreated",
      "type": "event"
    },
    {
      "anonymous": false,
      "inputs": [
        {
          "indexed": true,
          "internalType": "uint256",
          "name": "proposalId",
          "type": "uint256"
        },
        {
          "indexed": false,
          "internalType": "bool",
          "name": "passed",
          "type": "bool"
        }
      ],
      "name": "ProposalExecuted",
      "type": "event"
    },
    {
      "anonymous": false,
      "inputs": [
        {
          "indexed": true,
          "internalType": "address",
          "name": "voter",
          "type": "address"
        },
        {
          "indexed": true,
          "internalType": "uint256",
          "name": "proposalId",
          "type": "uint256"
        },
        {
          "indexed": false,
          "internalType": "bool",
          "name": "support",
          "type": "bool"
        }
      ],
      "name": "VoteCast",
      "type": "event"
    },
    {
      "inputs": [],
      "name": "MIN_VOTING_POWER",
      "outputs": [
        {
          "internalType": "uint256",
          "name": "",
          "type": "uint256"
        }
      ],
      "stateMutability": "view",
      "type": "function"
    },
    {
      "inputs": [],
      "name": "VOTING_PERIOD",
      "outputs": [
        {
          "internalType": "uint256",
          "name": "",
          "type": "uint256"
        }
      ],
      "stateMutability": "view",
      "type": "function"
    },
    {
      "inputs": [
        {
          "internalType": "string",
          "name": "description",
          "type": "string"
        }
      ],
      "name": "createProposal",
      "outputs": [],
      "stateMutability": "nonpayable",
      "type": "function"
    },
    {
      "inputs": [
        {
          "internalType": "uint256",
          "name": "proposalId",
          "type": "uint256"
        }
      ],
      "name": "executeProposal",
      "outputs": [],
      "stateMutability": "nonpayable",
      "type": "function"
    },
    {
      "inputs": [
        {
          "internalType": "uint256",
          "name": "proposalId",
          "type": "uint256"
        }
      ],
      "name": "getProposal",
      "outputs": [
        {
          "components": [
            {
              "internalType": "uint256",
              "name": "id",
              "type": "uint256"
            },
            {
              "internalType": "address",
              "name": "proposer",
              "type": "address"
            },
            {
              "internalType": "string",
              "name": "description",
              "type": "string"
            },
            {
              "internalType": "uint256",
              "name": "votesFor",
              "type": "uint256"
            },
            {
              "internalType": "uint256",
              "name": "votesAgainst",
              "type": "uint256"
            },
            {
              "internalType": "uint256",
              "name": "deadline",
              "type": "uint256"
            },
            {
              "internalType": "bool",
              "name": "executed",
              "type": "bool"
            },
            {
              "internalType": "uint256",
              "name": "createdAt",
              "type": "uint256"
            }
          ],
          "internalType": "struct FinBridgeGovernance.Proposal",
          "name": "",
          "type": "tuple"
        }
      ],
      "stateMutability": "view",
      "type": "function"
    },
    {
      "inputs": [
        {
          "internalType": "address",
          "name": "user",
          "type": "address"
        }
      ],
      "name": "getUserVotes",
      "outputs": [
        {
          "internalType": "uint256[]",
          "name": "",
          "type": "uint256[]"
        }
      ],
      "stateMutability": "view",
      "type": "function"
    },
    {
      "inputs": [
        {
          "internalType": "address",
          "name": "",
          "type": "address"
        },
        {
          "internalType": "uint256",
          "name": "",
          "type": "uint256"
        }
      ],
      "name": "hasVoted",
      "outputs": [
        {
          "internalType": "bool",
          "name": "",
          "type": "bool"
        }
      ],
      "stateMutability": "view",
      "type": "function"
    },
    {
      "inputs": [],
      "name": "nextProposalId",
      "outputs": [
        {
          "internalType": "uint256",
          "name": "",
          "type": "uint256"
        }
      ],
      "stateMutability": "view",
      "type": "function"
    },
    {
      "inputs": [],
      "name": "owner",
      "outputs": [
        {
          "internalType": "address",
          "name": "",
          "type": "address"
        }
      ],
      "stateMutability": "view",
      "type": "function"
    },
    {
      "inputs": [
        {
          "internalType": "uint256",
          "name": "",
          "type": "uint256"
        }
      ],
      "name": "proposals",
      "outputs": [
        {
          "internalType": "uint256",
          "name": "id",
          "type": "uint256"
        },
        {
          "internalType": "address",
          "name": "proposer",
          "type": "address"
        },
        {
          "internalType": "string",
          "name": "description",
          "type": "string"
        },
        {
          "internalType": "uint256",
          "name": "votesFor",
          "type": "uint256"
        },
        {
          "internalType": "uint256",
          "name": "votesAgainst",
          "type": "uint256"
        },
        {
          "internalType": "uint256",
          "name": "deadline",
          "type": "uint256"
        },
        {
          "internalType": "bool",
          "name": "executed",
          "type": "bool"
        },
        {
          "internalType": "uint256",
          "name": "createdAt",
          "type": "uint256"
        }
      ],
      "stateMutability": "view",
      "type": "function"
    },
    {
      "inputs": [],
      "name": "renounceOwnership",
      "outputs": [],
      "stateMutability": "nonpayable",
      "type": "function"
    },
    {
      "inputs": [
        {
          "internalType": "address",
          "name": "newOwner",
          "type": "address"
        }
      ],
      "name": "transferOwnership",
      "outputs": [],
      "stateMutability": "nonpayable",
      "type": "function"
    },
    {
      "inputs": [
        {
          "internalType": "uint256",
          "name": "proposalId",
          "type": "uint256"
        },
        {
          "internalType": "bool",
          "name": "support",
          "type": "bool"
        }
      ],
      "name": "vote",
      "outputs": [],
      "stateMutability": "nonpayable",
      "type": "function"
    },
    {
      "inputs": [
        {
          "internalType": "address",
          "name": "",
          "type": "address"
        }
      ],
      "name": "votingPower",
      "outputs": [
        {
          "internalType": "uint256",
          "name": "",
          "type": "uint256"
        }
      ],
      "stateMutability": "view",
      "type": "function"
    }
  ],
  "bytecode": "0x6080604052600160055534801561001557600080fd5b50600160005561002433610029565b61007b565b600180546001600160a01b038381166001600160a01b0319831681179093556040519116919082907f8be0079c531659141344cd1fd0a4f28419497f9722a3daafe3b4186f6b6457e090600090a35050565b6110cf8061008a6000396000f3fe608060405234801561001057600080fd5b50600436106100ea5760003560e01c80638da5cb5b1161008c578063c07473f611610066578063c07473f6146101f8578063c7f758a814610218578063c9d27afe14610238578063f2fde38b1461024b57600080fd5b80638da5cb5b146101b3578063950c7822146101ce578063b1610d7e146101ee57600080fd5b806342545825116100c8578063425458251461014b57806349c2a1a614610189578063715018a61461019c578063805a8142146101a457600080fd5b8063013cf08b146100ef5780630d61b5191461011f5780632ab09d1414610134575b600080fd5b6101026100fd366004610c04565b61025e565b604051610116989796959493929190610c63565b60405180910390f35b61013261012d366004610c04565b610337565b005b61013d60055481565b604051908152602001610116565b610179610159366004610cd8565b600360209081526000928352604080842090915290825290205460ff1681565b6040519015158152602001610116565b610132610197366004610d18565b6104b1565b61013261069d565b61013d670de0b6b3a764000081565b6001546040516001600160a01b039091168152602001610116565b6101e16101dc366004610dc9565b6106b1565b6040516101169190610deb565b61013d62093a8081565b61013d610206366004610dc9565b60046020526000908152604090205481565b61022b610226366004610c04565b610768565b6040516101169190610e2f565b610132610246366004610eaa565b6108c2565b610132610259366004610dc9565b610adf565b600260208190526000918252604090912080546001820154928201805491936001600160a01b0316929161029190610edf565b80601f01602080910402602001604051908101604052809291908181526020018280546102bd90610edf565b801561030a5780601f106102df5761010080835404028352916020019161030a565b820191906000526020600020905b8154815290600101906020018083116102ed57829003601f168201915b505050506003830154600484015460058501546006860154600790960154949592949193509160ff169088565b60008181526002602052604090206005015442101561039d5760405162461bcd60e51b815260206004820152601760248201527f566f74696e6720706572696f64206e6f7420656e64656400000000000000000060448201526064015b60405180910390fd5b60008181526002602052604090206006015460ff16156103fb5760405162461bcd60e51b8152602060048201526019602482015278141c9bdc1bdcd85b08185b1c9958591e48195e1958dd5d1959603a1b6044820152606401610394565b60008181526002602052604090206004810154600390910154116104595760405162461bcd60e51b815260206004820152601560248201527450726f706f73616c20646964206e6f74207061737360581b6044820152606401610394565b600081815260026020908152604091829020600601805460ff19166001908117909155915191825282917f948f4a9cd986f1118c3fbd459f7a22b23c0693e1ca3ef06a6a8be5aa7d39cc03910160405180910390a250565b33600090815260046020526040902054670de0b6b3a764000011156105145760405162461bcd60e51b815260206004820152601960248201527824b739bab33334b1b4b2b73a103b37ba34b733903837bbb2b960391b6044820152606401610394565b60008151116105655760405162461bcd60e51b815260206004820152601b60248201527f4465736372697074696f6e2063616e6e6f7420626520656d70747900000000006044820152606401610394565b600580546000918261057683610f2f565b919050559050604051806101000160405280828152602001336001600160a01b03168152602001838152602001600081526020016000815260200162093a80426105c09190610f48565b8152600060208083018290524260409384015284825260028082529183902084518155908401516001820180546001600160a01b0319166001600160a01b03909216919091179055918301519082019061061a9082610fb0565b50606082015160038201556080820151600482015560a0820151600582015560c082015160068201805460ff191691151591909117905560e090910151600790910155604051339082907f7585f467599d0f008985f231af99293be388626ac16ca59505c2f8f88969cd6390610691908690611070565b60405180910390a35050565b6106a5610b58565b6106af6000610bb2565b565b604080516064808252610ca082019092526060916000919060208201610c8080368337019050509050600060015b600554811080156106f05750606482105b1561075f576001600160a01b038516600090815260036020908152604080832084845290915290205460ff161561074d578083838151811061073457610734611083565b60209081029190910101528161074981610f2f565b9250505b8061075781610f2f565b9150506106df565b50909392505050565b6107bb6040518061010001604052806000815260200160006001600160a01b0316815260200160608152602001600081526020016000815260200160008152602001600015158152602001600081525090565b6000828152600260208181526040928390208351610100810185528154815260018201546001600160a01b0316928101929092529182018054919384019161080290610edf565b80601f016020809104026020016040519081016040528092919081815260200182805461082e90610edf565b801561087b5780601f106108505761010080835404028352916020019161087b565b820191906000526020600020905b81548152906001019060200180831161085e57829003601f168201915b5050509183525050600382015460208201526004820154604082015260058201546060820152600682015460ff161515608082015260079091015460a09091015292915050565b60008281526002602052604090206006015460ff16156109205760405162461bcd60e51b8152602060048201526019602482015278141c9bdc1bdcd85b08185b1c9958591e48195e1958dd5d1959603a1b6044820152606401610394565b60008281526002602052604090206005015442106109765760405162461bcd60e51b8152602060048201526013602482015272159bdd1a5b99c81c195c9a5bd908195b991959606a1b6044820152606401610394565b33600090815260036020908152604080832085845290915290205460ff16156109d15760405162461bcd60e51b815260206004820152600d60248201526c105b1c9958591e481d9bdd1959609a1b6044820152606401610394565b33600090815260046020526040902054670de0b6b3a76400001115610a345760405162461bcd60e51b815260206004820152601960248201527824b739bab33334b1b4b2b73a103b37ba34b733903837bbb2b960391b6044820152606401610394565b3360009081526003602090815260408083208584529091529020805460ff191660011790558015610a86576000828152600260205260408120600301805491610a7c83610f2f565b9190505550610aa9565b6000828152600260205260408120600401805491610aa383610f2f565b91905055505b6040518115158152829033907fd356173ae8eeea8691aee4c1be712c314a975a3d43ebc48b08ca54d0dac9122890602001610691565b610ae7610b58565b6001600160a01b038116610b4c5760405162461bcd60e51b815260206004820152602660248201527f4f776e61626c653a206e6577206f776e657220697320746865207a65726f206160448201526564647265737360d01b6064820152608401610394565b610b5581610bb2565b50565b6001546001600160a01b031633146106af5760405162461bcd60e51b815260206004820181905260248201527f4f776e61626c653a2063616c6c6572206973206e6f7420746865206f776e65726044820152606401610394565b600180546001600160a01b038381166001600160a01b0319831681179093556040519116919082907f8be0079c531659141344cd1fd0a4f28419497f9722a3daafe3b4186f6b6457e090600090a35050565b600060208284031215610c1657600080fd5b5035919050565b6000815180845260005b81811015610c4357602081850181015186830182015201610c27565b506000602082860101526020601f19601f83011685010191505092915050565b8881526001600160a01b038816602082015261010060408201819052600090610c8e8382018a610c1d565b60608401989098525050608081019490945260a0840192909252151560c083015260e0909101529392505050565b80356001600160a01b0381168114610cd357600080fd5b919050565b60008060408385031215610ceb57600080fd5b610cf483610cbc565b946020939093013593505050565b634e487b7160e01b600052604160045260246000fd5b600060208284031215610d2a57600080fd5b813567ffffffffffffffff80821115610d4257600080fd5b818401915084601f830112610d5657600080fd5b813581811115610d6857610d68610d02565b604051601f8201601f19908116603f01168101908382118183101715610d9057610d90610d02565b81604052828152876020848701011115610da957600080fd5b826020860160208301376000928101602001929092525095945050505050565b600060208284031215610ddb57600080fd5b610de482610cbc565b9392505050565b6020808252825182820181905260009190848201906040850190845b81811015610e2357835183529284019291840191600101610e07565b50909695505050505050565b602081528151602082015260018060a01b03602083015116604082015260006040830151610100806060850152610e6a610120850183610c1d565b915060608501516080850152608085015160a085015260a085015160c085015260c0850151151560e085015260e085015181850152508091505092915050565b60008060408385031215610ebd57600080fd5b8235915060208301358015158114610ed457600080fd5b809150509250929050565b600181811c90821680610ef357607f821691505b602082108103610f1357634e487b7160e01b600052602260045260246000fd5b50919050565b634e487b7160e01b600052601160045260246000fd5b600060018201610f4157610f41610f19565b5060010190565b80820180821115610f5b57610f5b610f19565b92915050565b601f821115610fab57600081815260208120601f850160051c81016020861015610f885750805b601f850160051c820191505b81811015610fa757828155600101610f94565b5050505b505050565b815167ffffffffffffffff811115610fca57610fca610d02565b610fde81610fd88454610edf565b84610f61565b602080601f8311600181146110135760008415610ffb5750858301515b600019600386901b1c1916600185901b178555610fa7565b600085815260208120601f198616915b8281101561104257888601518255948401946001909101908401611023565b50858210156110605787850151600019600388901b60f8161c191681555b5050505050600190811b01905550565b602081526000610de46020830184610c1d565b634e487b7160e01b600052603260045260246000fdfea2646970667358221220d9f04c8c1c1e49ed7ccefa673b9a350ac8c1136ca013415effb4b925daebfde764736f6c63430008140033",
  "linkReferences": {},
  "deployedLinkReferences": {}
}