{
  "_format": "hh-sol-artifact-1",
  "contractName": "FinBridgeExtensions",
  "sourceName": "contracts/FinBridgeExtensions.sol",
  "abi": [
    {
      "anonymous": false,
      "inputs": [
        {
          "indexed": true,
          "internalType": "uint256",
          "name": "extensionId",
          "type": "uint256"
        },
        {
          "indexed": true,
          "internalType": "address",
          "name": "borrower",
          "type": "address"
        },
        {
          "indexed": false,
          "internalType": "uint256",
          "name": "newAmount",
          "type": "uint256"
        }
      ],
      "name": "ExtensionApproved",
      "type": "event"
    },
    {
      "anonymous": false,
      "inputs": [
        {
          "indexed": true,
          "internalType": "uint256",
          "name": "extensionId",
          "type": "uint256"
        },
        {
          "indexed": true,
          "internalType": "address",
          "name": "borrower",
          "type": "address"
        },
        {
          "indexed": false,
          "internalType": "uint256",
          "name": "originalLoanId",
          "type": "uint256"
        }
      ],
      "name": "ExtensionRequested",
      "type": "event"
    },
    {
      "inputs": [
        {
          "internalType": "uint256",
          "name": "extensionId",
          "type": "uint256"
        }
      ],
      "name": "getExtension",
      "outputs": [
        {
          "components": [
            {
              "internalType": "uint256",
              "name": "id",
              "type": "uint256"
            },
            {
              "internalType": "address",
              "name": "borrower",
              "type": "address"
            },
            {
              "internalType": "uint256",
              "name": "originalAmount",
              "type": "uint256"
            },
            {
              "internalType": "uint256",
              "name": "extensionAmount",
              "type": "uint256"
            },
            {
              "internalType": "uint256",
              "name": "newDuration",
              "type": "uint256"
            },
            {
              "internalType": "uint256",
              "name": "timestamp",
              "type": "uint256"
            },
            {
              "internalType": "bool",
              "name": "isActive",
              "type": "bool"
            }
          ],
          "internalType": "struct FinBridgeExtensions.LoanExtension",
          "name": "",
          "type": "tuple"
        }
      ],
      "stateMutability": "view",
      "type": "function"
    },
    {
      "inputs": [
        {
          "internalType": "address",
          "name": "user",
          "type": "address"
        }
      ],
      "name": "getUserExtensions",
      "outputs": [
        {
          "internalType": "uint256[]",
          "name": "",
          "type": "uint256[]"
        }
      ],
      "stateMutability": "view",
      "type": "function"
    },
    {
      "inputs": [
        {
          "internalType": "uint256",
          "name": "",
          "type": "uint256"
        }
      ],
      "name": "loanExtensions",
      "outputs": [
        {
          "internalType": "uint256",
          "name": "id",
          "type": "uint256"
        },
        {
          "internalType": "address",
          "name": "borrower",
          "type": "address"
        },
        {
          "internalType": "uint256",
          "name": "originalAmount",
          "type": "uint256"
        },
        {
          "internalType": "uint256",
          "name": "extensionAmount",
          "type": "uint256"
        },
        {
          "internalType": "uint256",
          "name": "newDuration",
          "type": "uint256"
        },
        {
          "internalType": "uint256",
          "name": "timestamp",
          "type": "uint256"
        },
        {
          "internalType": "bool",
          "name": "isActive",
          "type": "bool"
        }
      ],
      "stateMutability": "view",
      "type": "function"
    },
    {
      "inputs": [],
      "name": "nextExtensionId",
      "outputs": [
        {
          "internalType": "uint256",
          "name": "",
          "type": "uint256"
        }
      ],
      "stateMutability": "view",
      "type": "function"
    },
    {
      "inputs": [
        {
          "internalType": "uint256",
          "name": "originalLoanId",
          "type": "uint256"
        },
        {
          "internalType": "uint256",
          "name": "additionalAmount",
          "type": "uint256"
        },
        {
          "internalType": "uint256",
          "name": "newDuration",
          "type": "uint256"
        }
      ],
      "name": "requestLoanExtension",
      "outputs": [],
      "stateMutability": "nonpayable",
      "type": "function"
    },
    {
      "inputs": [
        {
          "internalType": "address",
          "name": "",
          "type": "address"
        },
        {
          "internalType": "uint256",
          "name": "",
          "type": "uint256"
        }
      ],
      "name": "userExtensions",
      "outputs": [
        {
          "internalType": "uint256",
          "name": "",
          "type": "uint256"
        }
      ],
      "stateMutability": "view",
      "type": "function"
    }
  ],
  "bytecode": "0x6080604052600160025534801561001557600080fd5b50610642806100256000396000f3fe608060405234801561001057600080fd5b50600436106100625760003560e01c80636823736d14610067578063ae0c984a1461007c578063d870b065146100a2578063e0c2699c146100c2578063e9cf660614610159578063f61eab7a14610162575b600080fd5b61007a6100753660046104f4565b6101d1565b005b61008f61008a36600461053c565b61039d565b6040519081526020015b60405180910390f35b6100b56100b0366004610566565b6103ce565b6040516100999190610588565b61011a6100d03660046105cc565b600060208190529081526040902080546001820154600283015460038401546004850154600586015460069096015494956001600160a01b03909416949293919290919060ff1687565b604080519788526001600160a01b039096166020880152948601939093526060850191909152608084015260a0830152151560c082015260e001610099565b61008f60025481565b6101756101703660046105cc565b61043a565b6040516100999190815181526020808301516001600160a01b03169082015260408083015190820152606080830151908201526080808301519082015260a0808301519082015260c09182015115159181019190915260e00190565b600082116102365760405162461bcd60e51b815260206004820152602760248201527f457874656e73696f6e20616d6f756e74206d75737420626520677265617465726044820152660207468616e20360cc1b60648201526084015b60405180910390fd5b600081116102925760405162461bcd60e51b815260206004820152602360248201527f4e6577206475726174696f6e206d75737420626520677265617465722074686160448201526206e20360ec1b606482015260840161022d565b60028054600091826102a3836105e5565b909155506040805160e081018252828152336020808301828152838501898152606085018a8152608086018a81524260a08801908152600160c0890181815260008c81528089528b81209a518b5596518a830180546001600160a01b0319166001600160a01b03909216919091179055945160028a0155925160038901559051600488015551600587015590516006909501805460ff1916951515959095179094558281528382528481208054948501815581528190209092018490559151878152929350909183917fe47cff2ebed8ad4659f468899ab7ebd88febb7485219b360fc15bfac802daf98910160405180910390a350505050565b600160205281600052604060002081815481106103b957600080fd5b90600052602060002001600091509150505481565b6001600160a01b03811660009081526001602090815260409182902080548351818402810184019094528084526060939283018282801561042e57602002820191906000526020600020905b81548152602001906001019080831161041a575b50505050509050919050565b6104856040518060e001604052806000815260200160006001600160a01b03168152602001600081526020016000815260200160008152602001600081526020016000151581525090565b5060009081526020818152604091829020825160e0810184528154815260018201546001600160a01b0316928101929092526002810154928201929092526003820154606082015260048201546080820152600582015460a082015260069091015460ff16151560c082015290565b60008060006060848603121561050957600080fd5b505081359360208301359350604090920135919050565b80356001600160a01b038116811461053757600080fd5b919050565b6000806040838503121561054f57600080fd5b61055883610520565b946020939093013593505050565b60006020828403121561057857600080fd5b61058182610520565b9392505050565b6020808252825182820181905260009190848201906040850190845b818110156105c0578351835292840192918401916001016105a4565b50909695505050505050565b6000602082840312156105de57600080fd5b5035919050565b60006001820161060557634e487b7160e01b600052601160045260246000fd5b506001019056fea26469706673582212206fab3d4205feb9e5ac29bca0ca91ebf85953802abfaa8781eaeaf94c25d5699e64736f6c63430008140033",
  "linkReferences": {},
  "deployedLinkReferences": {}
}