{
  "_format": "hh-sol-artifact-1",
  "contractName": "FinBridgeAnalytics",
  "sourceName": "contracts/FinBridgeAnalytics.sol",
  "abi": [
    {
      "inputs": [],
      "stateMutability": "nonpayable",
      "type": "constructor"
    },
    {
      "anonymous": false,
      "inputs": [
        {
          "indexed": false,
          "internalType": "uint256",
          "name": "date",
          "type": "uint256"
        },
        {
          "indexed": false,
          "internalType": "uint256",
          "name": "newLoans",
          "type": "uint256"
        },
        {
          "indexed": false,
          "internalType": "uint256",
          "name": "totalVolume",
          "type": "uint256"
        }
      ],
      "name": "DailyStatsRecorded",
      "type": "event"
    },
    {
      "anonymous": false,
      "inputs": [
        {
          "indexed": false,
          "internalType": "uint256",
          "name": "totalLoans",
          "type": "uint256"
        },
        {
          "indexed": false,
          "internalType": "uint256",
          "name": "totalVolume",
          "type": "uint256"
        },
        {
          "indexed": false,
          "internalType": "uint256",
          "name": "activeUsers",
          "type": "uint256"
        }
      ],
      "name": "MetricsUpdated",
      "type": "event"
    },
    {
      "anonymous": false,
      "inputs": [
        {
          "indexed": true,
          "internalType": "address",
          "name": "previousOwner",
          "type": "address"
        },
        {
          "indexed": true,
          "internalType": "address",
          "name": "newOwner",
          "type": "address"
        }
      ],
      "name": "OwnershipTransferred",
      "type": "event"
    },
    {
      "inputs": [],
      "name": "SECONDS_PER_DAY",
      "outputs": [
        {
          "internalType": "uint256",
          "name": "",
          "type": "uint256"
        }
      ],
      "stateMutability": "view",
      "type": "function"
    },
    {
      "inputs": [
        {
          "internalType": "uint256",
          "name": "",
          "type": "uint256"
        }
      ],
      "name": "dailyStats",
      "outputs": [
        {
          "internalType": "uint256",
          "name": "date",
          "type": "uint256"
        },
        {
          "internalType": "uint256",
          "name": "newLoans",
          "type": "uint256"
        },
        {
          "internalType": "uint256",
          "name": "totalVolume",
          "type": "uint256"
        },
        {
          "internalType": "uint256",
          "name": "newUsers",
          "type": "uint256"
        },
        {
          "internalType": "uint256",
          "name": "activeLoans",
          "type": "uint256"
        }
      ],
      "stateMutability": "view",
      "type": "function"
    },
    {
      "inputs": [
        {
          "internalType": "uint256",
          "name": "date",
          "type": "uint256"
        }
      ],
      "name": "getDailyStats",
      "outputs": [
        {
          "components": [
            {
              "internalType": "uint256",
              "name": "date",
              "type": "uint256"
            },
            {
              "internalType": "uint256",
              "name": "newLoans",
              "type": "uint256"
            },
            {
              "internalType": "uint256",
              "name": "totalVolume",
              "type": "uint256"
            },
            {
              "internalType": "uint256",
              "name": "newUsers",
              "type": "uint256"
            },
            {
              "internalType": "uint256",
              "name": "activeLoans",
              "type": "uint256"
            }
          ],
          "internalType": "struct FinBridgeAnalytics.DailyStats",
          "name": "",
          "type": "tuple"
        }
      ],
      "stateMutability": "view",
      "type": "function"
    },
    {
      "inputs": [],
      "name": "getMetrics",
      "outputs": [
        {
          "components": [
            {
              "internalType": "uint256",
              "name": "totalLoansCreated",
              "type": "uint256"
            },
            {
              "internalType": "uint256",
              "name": "totalAmountBorrowed",
              "type": "uint256"
            },
            {
              "internalType": "uint256",
              "name": "totalAmountLent",
              "type": "uint256"
            },
            {
              "internalType": "uint256",
              "name": "activeUsers",
              "type": "uint256"
            },
            {
              "internalType": "uint256",
              "name": "totalInterestPaid",
              "type": "uint256"
            },
            {
              "internalType": "uint256",
              "name": "averageLoanAmount",
              "type": "uint256"
            },
            {
              "internalType": "uint256",
              "name": "averageLoanDuration",
              "type": "uint256"
            },
            {
              "internalType": "uint256",
              "name": "platformRevenue",
              "type": "uint256"
            },
            {
              "internalType": "uint256",
              "name": "lastUpdated",
              "type": "uint256"
            }
          ],
          "internalType": "struct FinBridgeAnalytics.PlatformMetrics",
          "name": "",
          "type": "tuple"
        }
      ],
      "stateMutability": "view",
      "type": "function"
    },
    {
      "inputs": [
        {
          "internalType": "address",
          "name": "user",
          "type": "address"
        }
      ],
      "name": "getUserStats",
      "outputs": [
        {
          "internalType": "uint256",
          "name": "firstLoan",
          "type": "uint256"
        },
        {
          "internalType": "uint256",
          "name": "lastActivity",
          "type": "uint256"
        }
      ],
      "stateMutability": "view",
      "type": "function"
    },
    {
      "inputs": [],
      "name": "metrics",
      "outputs": [
        {
          "internalType": "uint256",
          "name": "totalLoansCreated",
          "type": "uint256"
        },
        {
          "internalType": "uint256",
          "name": "totalAmountBorrowed",
          "type": "uint256"
        },
        {
          "internalType": "uint256",
          "name": "totalAmountLent",
          "type": "uint256"
        },
        {
          "internalType": "uint256",
          "name": "activeUsers",
          "type": "uint256"
        },
        {
          "internalType": "uint256",
          "name": "totalInterestPaid",
          "type": "uint256"
        },
        {
          "internalType": "uint256",
          "name": "averageLoanAmount",
          "type": "uint256"
        },
        {
          "internalType": "uint256",
          "name": "averageLoanDuration",
          "type": "uint256"
        },
        {
          "internalType": "uint256",
          "name": "platformRevenue",
          "type": "uint256"
        },
        {
          "internalType": "uint256",
          "name": "lastUpdated",
          "type": "uint256"
        }
      ],
      "stateMutability": "view",
      "type": "function"
    },
    {
      "inputs": [],
      "name": "owner",
      "outputs": [
        {
          "internalType": "address",
          "name": "",
          "type": "address"
        }
      ],
      "stateMutability": "view",
      "type": "function"
    },
    {
      "inputs": [
        {
          "internalType": "uint256",
          "name": "interestAmount",
          "type": "uint256"
        }
      ],
      "name": "recordInterestPayment",
      "outputs": [],
      "stateMutability": "nonpayable",
      "type": "function"
    },
    {
      "inputs": [
        {
          "internalType": "uint256",
          "name": "amount",
          "type": "uint256"
        },
        {
          "internalType": "address",
          "name": "borrower",
          "type": "address"
        }
      ],
      "name": "recordLoanCreation",
      "outputs": [],
      "stateMutability": "nonpayable",
      "type": "function"
    },
    {
      "inputs": [
        {
          "internalType": "uint256",
          "name": "amount",
          "type": "uint256"
        },
        {
          "internalType": "address",
          "name": "lender",
          "type": "address"
        }
      ],
      "name": "recordLoanFunding",
      "outputs": [],
      "stateMutability": "nonpayable",
      "type": "function"
    },
    {
      "inputs": [],
      "name": "renounceOwnership",
      "outputs": [],
      "stateMutability": "nonpayable",
      "type": "function"
    },
    {
      "inputs": [
        {
          "internalType": "address",
          "name": "newOwner",
          "type": "address"
        }
      ],
      "name": "transferOwnership",
      "outputs": [],
      "stateMutability": "nonpayable",
      "type": "function"
    },
    {
      "inputs": [
        {
          "internalType": "address",
          "name": "",
          "type": "address"
        }
      ],
      "name": "userFirstLoan",
      "outputs": [
        {
          "internalType": "uint256",
          "name": "",
          "type": "uint256"
        }
      ],
      "stateMutability": "view",
      "type": "function"
    },
    {
      "inputs": [
        {
          "internalType": "address",
          "name": "",
          "type": "address"
        }
      ],
      "name": "userLastActivity",
      "outputs": [
        {
          "internalType": "uint256",
          "name": "",
          "type": "uint256"
        }
      ],
      "stateMutability": "view",
      "type": "function"
    }
  ],
  "bytecode": "0x608060405234801561001057600080fd5b50600160005561001f3361009a565b6040805161012081018252600080825260208201819052918101829052606081018290526080810182905260a0810182905260c0810182905260e08101829052426101009091018190526002829055600382905560048290556005829055600682905560078290556008829055600991909155600a556100ec565b600180546001600160a01b038381166001600160a01b0319831681179093556040519116919082907f8be0079c531659141344cd1fd0a4f28419497f9722a3daafe3b4186f6b6457e090600090a35050565b610a6e806100fb6000396000f3fe608060405234801561001057600080fd5b50600436106100ea5760003560e01c806374f0314f1161008c5780638da5cb5b116100665780638da5cb5b146102b4578063a04748f6146102cf578063e2f800d71461033d578063f2fde38b1461039257600080fd5b806374f0314f146102155780637606f7811461021f57806377ce29921461029457600080fd5b806346271d10116100c857806346271d101461019c5780634e43603a146101af57806367715c27146101fa578063715018a61461020d57600080fd5b80631f794f3e146100ef578063287deab1146101045780632c489aec14610137575b600080fd5b6101026100fd366004610950565b6103a5565b005b61012461011236600461097c565b600c6020526000908152604090205481565b6040519081526020015b60405180910390f35b61017461014536600461099e565b600b60205260009081526040902080546001820154600283015460038401546004909401549293919290919085565b604080519586526020860194909452928401919091526060830152608082015260a00161012e565b6101026101aa366004610950565b6103ef565b6101e56101bd36600461097c565b6001600160a01b03166000908152600c6020908152604080832054600d909252909120549091565b6040805192835260208301919091520161012e565b61010261020836600461099e565b6104f9565b610102610534565b6101246201518081565b610227610548565b60405161012e9190600061012082019050825182526020830151602083015260408301516040830152606083015160608301526080830151608083015260a083015160a083015260c083015160c083015260e083015160e083015261010080840151818401525092915050565b6101246102a236600461097c565b600d6020526000908152604090205481565b6001546040516001600160a01b03909116815260200161012e565b600254600354600454600554600654600754600854600954600a546102f998979695949392919089565b60408051998a5260208a0198909852968801959095526060870193909352608086019190915260a085015260c084015260e08301526101008201526101200161012e565b61035061034b36600461099e565b6105ee565b60405161012e9190600060a082019050825182526020830151602083015260408301516040830152606083015160608301526080830151608083015292915050565b6101026103a036600461097c565b61066f565b816002800160008282546103b991906109cd565b90915550506001600160a01b0381166000908152600d602052604081204290819055600a556103eb90839083906106ed565b5050565b600280549060006103ff836109e6565b9190505550816002600101600082825461041991906109cd565b909155505060025460035461042e91906109ff565b6007556001600160a01b0381166000908152600c602052604081205490036104825760058054906000610460836109e6565b90915550506001600160a01b0381166000908152600c60205260409020600190555b6001600160a01b0381166000908152600d602052604090204290819055600a556104ae828260016106ed565b60025460035460055460408051938452602084019290925282820152517f30b47c3a685e507da227a870550a387d376e03da27ad5b6a1d8c7517eb2d9b2f9181900360600190a15050565b806002600401600082825461050e91906109cd565b9091555050600980548291906000906105289084906109cd565b909155505042600a5550565b61053c610888565b61054660006108e2565b565b6105976040518061012001604052806000815260200160008152602001600081526020016000815260200160008152602001600081526020016000815260200160008152602001600081525090565b50604080516101208101825260025481526003546020820152600454918101919091526005546060820152600654608082015260075460a082015260085460c082015260095460e0820152600a5461010082015290565b6106206040518060a0016040528060008152602001600081526020016000815260200160008152602001600081525090565b506000908152600b6020908152604091829020825160a0810184528154815260018201549281019290925260028101549282019290925260038201546060820152600490910154608082015290565b610677610888565b6001600160a01b0381166106e15760405162461bcd60e51b815260206004820152602660248201527f4f776e61626c653a206e6577206f776e657220697320746865207a65726f206160448201526564647265737360d01b60648201526084015b60405180910390fd5b6106ea816108e2565b50565b6000620151806106fd81426109ff565b6107079190610a21565b6000818152600b60205260409020549091508114610777576040805160a081018252828152600060208083018281528385018381526060850184815260808601858152888652600b9094529590932093518455516001840155905160028301559151600382015590516004909101555b81156107e1576000818152600b6020526040812060010180549161079a836109e6565b90915550506001600160a01b0383166000908152600c602052604081205490036107e1576000818152600b602052604081206003018054916107db836109e6565b91905055505b6000818152600b6020526040812060020180548692906108029084906109cd565b90915550506000818152600b60205260408120600401805491610824836109e6565b90915550506000818152600b602090815260409182902060018101546002909101548351858152928301919091528183015290517fee13ef6822ca62bfa05ffc8924615fd8be85c9b8b9cd78f4cb05d03b1d37a16a9181900360600190a150505050565b6001546001600160a01b031633146105465760405162461bcd60e51b815260206004820181905260248201527f4f776e61626c653a2063616c6c6572206973206e6f7420746865206f776e657260448201526064016106d8565b600180546001600160a01b038381166001600160a01b0319831681179093556040519116919082907f8be0079c531659141344cd1fd0a4f28419497f9722a3daafe3b4186f6b6457e090600090a35050565b80356001600160a01b038116811461094b57600080fd5b919050565b6000806040838503121561096357600080fd5b8235915061097360208401610934565b90509250929050565b60006020828403121561098e57600080fd5b61099782610934565b9392505050565b6000602082840312156109b057600080fd5b5035919050565b634e487b7160e01b600052601160045260246000fd5b808201808211156109e0576109e06109b7565b92915050565b6000600182016109f8576109f86109b7565b5060010190565b600082610a1c57634e487b7160e01b600052601260045260246000fd5b500490565b80820281158282048414176109e0576109e06109b756fea264697066735822122093a0b0e83e8d56ca2630d2829c71aae550c5bff600d879352f5111496a285aef64736f6c63430008140033",
  "linkReferences": {},
  "deployedLinkReferences": {}
}