{
  "_format": "hh-sol-artifact-1",
  "contractName": "FinBridgeStaking",
  "sourceName": "contracts/FinBridgeStaking.sol",
  "abi": [
    {
      "anonymous": false,
      "inputs": [
        {
          "indexed": true,
          "internalType": "address",
          "name": "previousOwner",
          "type": "address"
        },
        {
          "indexed": true,
          "internalType": "address",
          "name": "newOwner",
          "type": "address"
        }
      ],
      "name": "OwnershipTransferred",
      "type": "event"
    },
    {
      "anonymous": false,
      "inputs": [
        {
          "indexed": true,
          "internalType": "address",
          "name": "staker",
          "type": "address"
        },
        {
          "indexed": false,
          "internalType": "uint256",
          "name": "amount",
          "type": "uint256"
        }
      ],
      "name": "RewardsClaimed",
      "type": "event"
    },
    {
      "anonymous": false,
      "inputs": [
        {
          "indexed": true,
          "internalType": "address",
          "name": "staker",
          "type": "address"
        },
        {
          "indexed": false,
          "internalType": "uint256",
          "name": "amount",
          "type": "uint256"
        },
        {
          "indexed": false,
          "internalType": "uint256",
          "name": "period",
          "type": "uint256"
        }
      ],
      "name": "TokensStaked",
      "type": "event"
    },
    {
      "anonymous": false,
      "inputs": [
        {
          "indexed": true,
          "internalType": "address",
          "name": "staker",
          "type": "address"
        },
        {
          "indexed": false,
          "internalType": "uint256",
          "name": "amount",
          "type": "uint256"
        }
      ],
      "name": "TokensUnstaked",
      "type": "event"
    },
    {
      "inputs": [],
      "name": "MAX_STAKE_AMOUNT",
      "outputs": [
        {
          "internalType": "uint256",
          "name": "",
          "type": "uint256"
        }
      ],
      "stateMutability": "view",
      "type": "function"
    },
    {
      "inputs": [],
      "name": "MIN_STAKE_AMOUNT",
      "outputs": [
        {
          "internalType": "uint256",
          "name": "",
          "type": "uint256"
        }
      ],
      "stateMutability": "view",
      "type": "function"
    },
    {
      "inputs": [],
      "name": "REWARD_RATE",
      "outputs": [
        {
          "internalType": "uint256",
          "name": "",
          "type": "uint256"
        }
      ],
      "stateMutability": "view",
      "type": "function"
    },
    {
      "inputs": [],
      "name": "SECONDS_PER_YEAR",
      "outputs": [
        {
          "internalType": "uint256",
          "name": "",
          "type": "uint256"
        }
      ],
      "stateMutability": "view",
      "type": "function"
    },
    {
      "inputs": [],
      "name": "claimRewards",
      "outputs": [],
      "stateMutability": "nonpayable",
      "type": "function"
    },
    {
      "inputs": [
        {
          "internalType": "address",
          "name": "staker",
          "type": "address"
        }
      ],
      "name": "getPendingRewards",
      "outputs": [
        {
          "internalType": "uint256",
          "name": "",
          "type": "uint256"
        }
      ],
      "stateMutability": "view",
      "type": "function"
    },
    {
      "inputs": [
        {
          "internalType": "address",
          "name": "staker",
          "type": "address"
        }
      ],
      "name": "getStake",
      "outputs": [
        {
          "components": [
            {
              "internalType": "address",
              "name": "staker",
              "type": "address"
            },
            {
              "internalType": "uint256",
              "name": "amount",
              "type": "uint256"
            },
            {
              "internalType": "uint256",
              "name": "stakingPeriod",
              "type": "uint256"
            },
            {
              "internalType": "uint256",
              "name": "rewardsEarned",
              "type": "uint256"
            },
            {
              "internalType": "uint256",
              "name": "lastRewardTime",
              "type": "uint256"
            },
            {
              "internalType": "bool",
              "name": "isActive",
              "type": "bool"
            },
            {
              "internalType": "uint256",
              "name": "stakedAt",
              "type": "uint256"
            }
          ],
          "internalType": "struct FinBridgeStaking.Stake",
          "name": "",
          "type": "tuple"
        }
      ],
      "stateMutability": "view",
      "type": "function"
    },
    {
      "inputs": [],
      "name": "getTotalStaked",
      "outputs": [
        {
          "internalType": "uint256",
          "name": "",
          "type": "uint256"
        }
      ],
      "stateMutability": "view",
      "type": "function"
    },
    {
      "inputs": [],
      "name": "owner",
      "outputs": [
        {
          "internalType": "address",
          "name": "",
          "type": "address"
        }
      ],
      "stateMutability": "view",
      "type": "function"
    },
    {
      "inputs": [],
      "name": "renounceOwnership",
      "outputs": [],
      "stateMutability": "nonpayable",
      "type": "function"
    },
    {
      "inputs": [
        {
          "internalType": "uint256",
          "name": "amount",
          "type": "uint256"
        },
        {
          "internalType": "uint256",
          "name": "stakingPeriod",
          "type": "uint256"
        }
      ],
      "name": "stakeTokens",
      "outputs": [],
      "stateMutability": "payable",
      "type": "function"
    },
    {
      "inputs": [
        {
          "internalType": "address",
          "name": "",
          "type": "address"
        }
      ],
      "name": "stakes",
      "outputs": [
        {
          "internalType": "address",
          "name": "staker",
          "type": "address"
        },
        {
          "internalType": "uint256",
          "name": "amount",
          "type": "uint256"
        },
        {
          "internalType": "uint256",
          "name": "stakingPeriod",
          "type": "uint256"
        },
        {
          "internalType": "uint256",
          "name": "rewardsEarned",
          "type": "uint256"
        },
        {
          "internalType": "uint256",
          "name": "lastRewardTime",
          "type": "uint256"
        },
        {
          "internalType": "bool",
          "name": "isActive",
          "type": "bool"
        },
        {
          "internalType": "uint256",
          "name": "stakedAt",
          "type": "uint256"
        }
      ],
      "stateMutability": "view",
      "type": "function"
    },
    {
      "inputs": [
        {
          "internalType": "address",
          "name": "",
          "type": "address"
        }
      ],
      "name": "totalStaked",
      "outputs": [
        {
          "internalType": "uint256",
          "name": "",
          "type": "uint256"
        }
      ],
      "stateMutability": "view",
      "type": "function"
    },
    {
      "inputs": [],
      "name": "totalStakedAmount",
      "outputs": [
        {
          "internalType": "uint256",
          "name": "",
          "type": "uint256"
        }
      ],
      "stateMutability": "view",
      "type": "function"
    },
    {
      "inputs": [
        {
          "internalType": "address",
          "name": "newOwner",
          "type": "address"
        }
      ],
      "name": "transferOwnership",
      "outputs": [],
      "stateMutability": "nonpayable",
      "type": "function"
    },
    {
      "inputs": [],
      "name": "unstakeTokens",
      "outputs": [],
      "stateMutability": "nonpayable",
      "type": "function"
    }
  ],
  "bytecode": "0x608060405234801561001057600080fd5b50600160005561001f33610024565b610076565b600180546001600160a01b038381166001600160a01b0319831681179093556040519116919082907f8be0079c531659141344cd1fd0a4f28419497f9722a3daafe3b4186f6b6457e090600090a35050565b610ddd806100856000396000f3fe6080604052600436106100f35760003560e01c8063715018a61161008a578063a5ce413b11610059578063a5ce413b14610338578063e6a69ab81461034d578063f2fde38b14610365578063f6ed20171461038557600080fd5b8063715018a6146102525780637a766460146102675780638da5cb5b146102e35780639bfd8d611461030b57600080fd5b8063372500ab116100c6578063372500ab146101fd5780633b7b618814610214578063567e98f9146102275780635997bb371461023d57600080fd5b80630917e776146100f857806316934fc41461011c57806327ed7188146101c55780632f92f1f2146101e0575b600080fd5b34801561010457600080fd5b506004545b6040519081526020015b60405180910390f35b34801561012857600080fd5b50610184610137366004610ce0565b600260208190526000918252604090912080546001820154928201546003830154600484015460058501546006909501546001600160a01b03909416959492939192909160ff9091169087565b604080516001600160a01b03909816885260208801969096529486019390935260608501919091526080840152151560a083015260c082015260e001610113565b3480156101d157600080fd5b50610109662386f26fc1000081565b3480156101ec57600080fd5b50610109683635c9adc5dea0000081565b34801561020957600080fd5b506102126103a5565b005b610212610222366004610d10565b610527565b34801561023357600080fd5b5061010960045481565b34801561024957600080fd5b50610109606481565b34801561025e57600080fd5b50610212610784565b34801561027357600080fd5b50610287610282366004610ce0565b610796565b604051610113919081516001600160a01b031681526020808301519082015260408083015190820152606080830151908201526080808301519082015260a08281015115159082015260c0918201519181019190915260e00190565b3480156102ef57600080fd5b506001546040516001600160a01b039091168152602001610113565b34801561031757600080fd5b50610109610326366004610ce0565b60036020526000908152604090205481565b34801561034457600080fd5b50610212610854565b34801561035957600080fd5b506101096301e1338081565b34801561037157600080fd5b50610212610380366004610ce0565b610ab3565b34801561039157600080fd5b506101096103a0366004610ce0565b610b2c565b6103ad610b3d565b3360009081526002602052604090206005015460ff1661040c5760405162461bcd60e51b8152602060048201526015602482015274139bc81858dd1a5d99481cdd185ad948199bdd5b99605a1b60448201526064015b60405180910390fd5b600061041733610b96565b9050801561051a573360009081526002602052604081206003018054839290610441908490610d48565b909155505033600081815260026020526040808220426004909101555190919083908381818185875af1925050503d806000811461049b576040519150601f19603f3d011682016040523d82523d6000602084013e6104a0565b606091505b50509050806104e35760405162461bcd60e51b815260206004820152600f60248201526e151c985b9cd9995c8819985a5b1959608a1b6044820152606401610403565b60405182815233907ffc30cddea38e2bf4d6ea7d3f9ed3b6ad7f176419f4963bd81318067a4aee73fe9060200160405180910390a2505b506105256001600055565b565b61052f610b3d565b81341461058a5760405162461bcd60e51b8152602060048201526024808201527f45544820616d6f756e74206d757374206d61746368207374616b696e6720616d6044820152631bdd5b9d60e21b6064820152608401610403565b662386f26fc1000082101580156105aa5750683635c9adc5dea000008211155b6105ef5760405162461bcd60e51b8152602060048201526016602482015275125b9d985b1a59081cdd185ada5b99c8185b5bdd5b9d60521b6044820152606401610403565b6000811161064d5760405162461bcd60e51b815260206004820152602560248201527f5374616b696e6720706572696f64206d75737420626520677265617465722074604482015264068616e20360dc1b6064820152608401610403565b600061065c8262278d00610d5b565b6040805160e0810182523380825260208083018881528385018681526000606086018181524260808801818152600160a08a0181815260c08b0193845298855260028089528b86209a518b546001600160a01b0319166001600160a01b03909116178b559651908a01559351948801949094555160038088019190915591516004870155935160058601805460ff19169115159190911790559051600690940193909355919091529081208054929350859290919061071c908490610d48565b9250508190555082600460008282546107359190610d48565b9091555050604080518481526020810183905233917fdd2a19c3bdd089cbe77c04f5655f83de0504d6140d12c8667646f55d0557c4dc910160405180910390a2506107806001600055565b5050565b61078c610c34565b6105256000610c8e565b6107e16040518060e0016040528060006001600160a01b0316815260200160008152602001600081526020016000815260200160008152602001600015158152602001600081525090565b506001600160a01b03908116600090815260026020818152604092839020835160e0810185528154909516855260018101549185019190915290810154918301919091526003810154606083015260048101546080830152600581015460ff16151560a08301526006015460c082015290565b61085c610b3d565b3360009081526002602052604090206005015460ff166108b65760405162461bcd60e51b8152602060048201526015602482015274139bc81858dd1a5d99481cdd185ad948199bdd5b99605a1b6044820152606401610403565b336000908152600260208190526040909120908101546006909101546108dc9190610d48565b42101561092b5760405162461bcd60e51b815260206004820152601c60248201527f5374616b696e6720706572696f64206e6f7420636f6d706c65746564000000006044820152606401610403565b3360008181526002602052604081209161094490610b96565b60058301805460ff19169055600183015433600090815260036020526040812080549394509192610976908490610d72565b9091555050600182015460048054600090610992908490610d72565b9091555050600182015460009033906109ac908490610d48565b604051600081818185875af1925050503d80600081146109e8576040519150601f19603f3d011682016040523d82523d6000602084013e6109ed565b606091505b5050905080610a305760405162461bcd60e51b815260206004820152600f60248201526e151c985b9cd9995c8819985a5b1959608a1b6044820152606401610403565b600183015460405190815233907f9845e367b683334e5c0b12d7b81721ac518e649376fa65e3d68324e8f34f26799060200160405180910390a28115610aa65760405182815233907ffc30cddea38e2bf4d6ea7d3f9ed3b6ad7f176419f4963bd81318067a4aee73fe9060200160405180910390a25b5050506105256001600055565b610abb610c34565b6001600160a01b038116610b205760405162461bcd60e51b815260206004820152602660248201527f4f776e61626c653a206e6577206f776e657220697320746865207a65726f206160448201526564647265737360d01b6064820152608401610403565b610b2981610c8e565b50565b6000610b3782610b96565b92915050565b600260005403610b8f5760405162461bcd60e51b815260206004820152601f60248201527f5265656e7472616e637947756172643a207265656e7472616e742063616c6c006044820152606401610403565b6002600055565b6001600160a01b03811660009081526002602052604081206005015460ff16610bc157506000919050565b6001600160a01b03821660009081526002602052604081206004810154909190610beb9042610d72565b9050600061271060648460010154610c039190610d5b565b610c0d9190610d85565b905060006301e13380610c208484610d5b565b610c2a9190610d85565b9695505050505050565b6001546001600160a01b031633146105255760405162461bcd60e51b815260206004820181905260248201527f4f776e61626c653a2063616c6c6572206973206e6f7420746865206f776e65726044820152606401610403565b600180546001600160a01b038381166001600160a01b0319831681179093556040519116919082907f8be0079c531659141344cd1fd0a4f28419497f9722a3daafe3b4186f6b6457e090600090a35050565b600060208284031215610cf257600080fd5b81356001600160a01b0381168114610d0957600080fd5b9392505050565b60008060408385031215610d2357600080fd5b50508035926020909101359150565b634e487b7160e01b600052601160045260246000fd5b80820180821115610b3757610b37610d32565b8082028115828204841417610b3757610b37610d32565b81810381811115610b3757610b37610d32565b600082610da257634e487b7160e01b600052601260045260246000fd5b50049056fea2646970667358221220bf61355ad4527ea13d68cfaae8dc9c57021c4504471071e0a89438613ddb6a1664736f6c63430008140033",
  "linkReferences": {},
  "deployedLinkReferences": {}
}